:020000040000FA
:1000000050020020C1000000DD120000BD120000FF
:10001000FFFFFFFFFFFFFFFFFFFFFFFFFFFFFFFFF0
:10002000FFFFFFFFFFFFFFFFFFFFFFFF7115000056
:10003000FFFFFFFFFFFFFFFF21140000731500000B
:1000400035010000B9140000350100003501000041
:1000500035010000350100003501000035010000C8
:1000600035010000350100003501000035010000B8
:1000700035010000350100003501000035010000A8
:100080003501000035010000350100003501000098
:100090003501000035010000350100003501000088
:1000A0003501000035010000350100003501000078
:1000B0003501000035010000350100003501000068
:1000C0001D4880471D4880471D4800471D4801695D
:1000D000002908D14169002905D18169002902D18F
:1000E000C169002909D01848C1680901090D002912
:1000F0000ED005290CD006290AD0BFF34F8F134824
:100100001349016013491248C860BFF34F8FFEE7DF
:100110000E4801680E48884200D070470E480F49CB
:1001200001600A480E4901607047FEE7FEE7FEE7FE
:10013000FEE7FEE7FEE70000CD00000075150000B9
:100140006501000000030840800108400000002015
:100150000400FA0500ED00E0008108400100000005
:10016000000000000348854600F0F6F8004800470C
:10017000BD170000500200200FB400B589B00BA8D5
:1001800000906A4603480A9900F0DAF809B008BC02
:1001900004B0184700000020FFB50027FF4383B0DC
:1001A00000205C6801909E681D46A9697F1C049828
:1001B00088470090296A88470028F6D10098401C9B
:1001C0000CD0032040028443002E19DD600614D5B4
:1001D00000982B2809D02D280FD103E00020C04320
:1001E00007B0F0BD012080020443A9697F1C049878
:1001F0008847761E0090002E02DD0098302803D03C
:100200000598002825D035E0012040020443A96963
:10021000761E7F1C049888470090002E03DD782806
:1002200005D0582803D00598002810D022E0059862
:10023000002801D010281DD1012040028443A96963
:10024000761E7F1C049888470090102002E008204A
:1002500000E00A2005900DE0012149020C43059AB7
:100260000199761E514308180190A9697F1C0498D2
:1002700088470090002E05DD0599009800F050F8A1
:100280000028E9DAE96904988847A00502D401202A
:10029000C043A5E7E00722D1600611D560050198AB
:1002A00000D5404229680A1D2A600968220501D547
:1002B000087014E0220701D5088010E008600EE005
:1002C0002868011D29600068210502D50199017087
:1002D00005E02107019901D5018000E00160384661
:1002E0007EE770B50446002903D0002020220123B8
:1002F00010E0002801D00020C043C046C0460DE0F9
:100300002546D5408D4205D30D469540641B1D46BC
:10031000954040191546521E002DF1DC214670BD56
:100320003A2800D23038202302469A43412A01D38A
:1003300010463738884201D30020C0437047000080
:1003400010B5034B9361034BD36100F023F810BD4C
:10035000AB170000A71700001CB50948009009481A
:10036000019005460126009C05E0E36807CC334375
:100370000C3C98471034AC42F7D3FFF7F7FE00006F
:10038000441D0000641D00000268137851180160CC
:100390001846704710B5D160044951610449116293
:1003A00000211161114600F00DF810BD8903000015
:1003B000B503000010B50F21C0B2490200F09EF94C
:1003C00010BD0000F3B58DB000200A9001200B9005
:1003D000002608460C300C460990626901210998F4
:1003E0009047051E2ED0252D2DD0216A8847002844
:1003F00018D06269012109989047216A884700282E
:10040000F7D1411E62690998904700E0761CA16906
:100410000D988847216A88470028F7D1E1690D982F
:100420008847DAE7A1690D9888470746A84201D1B5
:10043000761CD2E7E1690D9888477F1C02D10A98A3
:10044000002877D049E1002762693D46394609987E
:1004500090472A280CD1626901210998904701250B
:1004600006E00A214F433F18303FEBD410200543EC
:100470006269012109989047014630390A2903D25F
:100480009B498F42DEDCECE7E90600D4994F6C28EB
:100490000AD04C2810D0682824D06A282ED074287E
:1004A0000CD07A280AD00DE06269012109989047A2
:1004B0006C2823D004211CE020200543626901211F
:1004C00009989047A760656065284FD026DC5828BA
:1004D00039D01ADC452849D012DC252834D04128EF
:1004E000B0D143E06269012109989047682802D0A1
:1004F00008210D43E6E70120C002DEE70220DCE729
:10050000462833D047282CD130E05B2870D06128B2
:100510002CD063286CD0642823D161E06F284FD0A1
:1005200009DC662822D0672820D0692826D06E28CA
:1005300017D12EE0CDE070284DD073286FD07528EC
:100540004ED078280DD154E0A1690D988847054612
:10055000252800D16CE7E1690D9888476D1C00D112
:100560006DE7BAE00A224CE00A2252E0012023465D
:100570006A46C0430D99C046C046A3E028464021C4
:1005800008436060A807234601D5002239E0002215
:100590003FE0E80700D020E72068011D21600068E7
:1005A000290501D5067018E7290701D5068014E74B
:1005B000A90703D5F117066041600EE706600CE756
:1005C0002846402108436060A807234601D5082239
:1005D00017E008221DE0484928460840606016E000
:1005E0002846402108436060A8072346BCD5B9E7E8
:1005F00015E02846402108436060A80707D5234638
:1006000010220120C0430D99C046C0465AE023463F
:1006100010220120C0430D99FFF7BEFD52E00021DA
:100620000C910B460091632802D05B2807D043E071
:10063000E80601D40120A060012000903CE062693E
:100640000121099890475E2805D101200C900146B0
:100650006269099890472169002906D10B4601AAD1
:100660008F00491CD3510829FADB002835D02169B5
:1006700000290ED1C117C90E09184A11930001AA09
:100680009A1849094901411A012013688840034317
:10069000136062690121099890475D28E5D10C98A3
:1006A000002808D0002001AB81005A58401CD243DA
:1006B0005A500828F8DB01AB01202246C0430D99AF
:1006C000C046C04600280ADA401C06D10B98002814
:1006D00003D00020C0430FB0F0BD0A98FBE7E90744
:1006E00002D10A99491C0A91361800200B9074E631
:1006F000CCCCCC0CFFFFFF7FF1F7FFFF7F2801D9A7
:10070000002207E0054B42089A5CC00700D112099D
:100710001207120F0120904008407047A01C0000F3
:10072000F0B58EB0C0005C4BC4180F2318020790C0
:10073000180308901804099018050A9018060B90E1
:1007400018070C900E060D9452D001200840454227
:100750002F461F408807059000D5F03748070490C2
:1007600001D5079807430807039001D50898074368
:10077000C806029001D5099807438806019001D563
:100780000A9807434806009003D530460B9E37432E
:1007900006460696002E01D50C9E37430D9C246814
:1007A000BC4317010598C6173E4015403543160255
:1007B0000498C71737402F4315030398C6172E40D8
:1007C0003E4315040298C7172F403743150501987B
:1007D000C6172E403E4315060098C01728403043E8
:1007E0001507069EF6172E40064326430D9C2660ED
:1007F0000E04300E41D0C805C7173B40880506904F
:1008000000D5F0334805059001D507980343080546
:10081000079001D508980343C80408902FD4880492
:1008200031D4490433D4002E01D50C9D2B43656887
:100830009D431301069CE4171C40174027431302F5
:10084000059CE4171C403C431303079FFF171F4000
:1008500027431304089CE4171C403C431305C017AE
:10086000184020431306C917194001431007F21717
:1008700002400A432A430D9842600EB0F0BD099829
:1008800003438804CDD50A9D2B434904CBD50B9D4A
:100890002B43002EC9D4CAE720200240F0B593B004
:1008A0000268C04907925218511C0AD003240B4613
:1008B00023400693BC4B0193032A04D20027079AD6
:1008C000B1E00027FCE00090079802462240049225
:1008D000E2438908129251430391411C2140029145
:1008E000411E11910C400594811EC21E1092051FDD
:1008F000192000010F900024274615E009980B9954
:1009000008180C9908180A99081827181198001F38
:1009100011900E99091F1098001F10902D1F089C10
:10092000241F0398A0427BD00D95099764250E9152
:1009300008462946FFF7D5FC079908940F19684324
:1009400012998C1C201A3818974800D0974806999D
:100950000029954900D101460C910E980F9E314611
:10096000FFF7BFFC7043201A381801D18F480C9054
:1009700011982946FFF7B5FC68431299CC1C201A40
:100980003818894800D0894805990029864900D13E
:1009900001460B9111980F9E3146FFF7A2FC704360
:1009A000201A381801D181480B9010982946FFF77A
:1009B00098FC684312994C1C201A38187A4800D0C9
:1009C000F24802990029784900D101460A9110980D
:1009D0000F9E3146FFF785FC7043201A381801D16D
:1009E000EA480A900D982946FFF77BFC6843129964
:1009F000081A38186C4800D0E448049900296A4C59
:100A000000D104460D9D28460F9E3146FFF769FC34
:100A100070431299081A381800D06FE7DB4C6DE765
:100A20000798021900980699002949D03B46551E9F
:100A3000D7490F466F4302263C461296F441D54EE5
:100A4000B442594E00D3D14EAC07574C00D1344676
:100A50000425EF41D04EB74200D8CC4CE718069B96
:100A6000012B2DD00997941E0F4667433E46129BDB
:100A7000DE41C84B9E424C4E00D3C44EA4074A4CA4
:100A800000D13446EF41C44EB74200D8BF4C099F55
:100A9000E719069B022B13D0D21E51430C46129B22
:100AA000DC41BC4B9C42404B00D3B84B920700D179
:100AB0000193E941B14201D8B44901910199CF199B
:100AC0004568B749012D4FD0B44A53784B43DF19DD
:100AD000022D49D00997AE4B079C634302241F4661
:100AE000E741AC4E324CB742274600D3AF4F079E8A
:100AF000B60700D13C460426F341A74EB34200D8C6
:100B0000AA4C099F3F19EE1E2ED0032433462340E2
:100B100012932D1F032D16D303243B46E743B5083C
:100B20007D431F46165D4E43F61917197B784B43DC
:100B30009B19BE784E43F318FE784E43F718241DD8
:100B40002B19032BEED1129D002D0DD0135D4B43BD
:100B5000DF19012D08D0A21853784B43DF19022D5D
:100B600002D092784A43D719E1221201054608358E
:100B700038CD406954435943791809193C226A43D6
:100B8000891808188A49441801252846214600F08A
:100B900041FC284600F03AFC011B4842484113B092
:100BA000F0BDC04621F8FFFF8033E1010085E2017E
:100BB00000EA2400F0B585B001900120029000F019
:100BC00025FC054600F06CFC43196C4A6C488342D6
:100BD00032D9002617460AE06C4883426A4829D376
:100BE0001B187F1C761C66488342644A23D90493F1
:100BF000B01803250540681E854164243846214607
:100C0000FFF76FFB6043F3494018801B41424141AD
:100C100003911920040138462146FFF762FB049B2B
:100C20006043EC494018B042D6D00398054355487C
:100C3000D6D1D1E7514AB218019802600320164676
:100C400004900640701E8641E649514302200C463E
:100C5000C441E54D0022AC42029D00D31546042458
:100C60000394E141E14FB942029F00D81746E3499E
:100C70004A784B4C6243934202D202981A465BE098
:100C80009B1A8A78624393421A4655D32E433740C3
:100C900001D0444805E01346444A93421A464BD3D8
:100CA00041481218D54BD8786043824201D204984B
:100CB00042E0121A18796043824201D203983BE065
:100CC000121A58796043824201D2052034E0121A88
:100CD00098796043824201D206202DE0121AD87919
:100CE0006043824201D2072026E0121A187A60433C
:100CF000824201D208201FE0121A587A60438242D1
:100D000001D2092018E0121A987A6043824201D277
:100D10000A2011E0121AD87A6043824201D20B20D5
:100D20000AE0121A187B4443A24201D30D2000E0CE
:100D30000C20111B00D30A46019E70601849104612
:100D40001446FFF7CEFA411CB160194941430C1912
:100D5000E120050120462946FFF7C3FA4543611B00
:100D60008AB2144B53435A0D3C235343C91A89B2D8
:100D7000F06032617161012005B0F0BDDE07000056
:100D80007F33E10180CC1EFE007B1DFE0085E20169
:100D9000295C8FC2295C8F020AD7A30008000020BB
:100DA000805101000016DBFF80C4D9FF803B260084
:100DB00080AEFEFF89880000F0B583B001907648D0
:100DC00000F05EFF75A000F05BFF7CA000F058FF14
:100DD0007E4800F08DFD7E4802A9FFF7CDF97D4CDD
:100DE00002990819252810D37B4D784E784F284654
:100DF00000F046FF304600F07BFD02A93846FFF7C1
:100E0000BBF9029908192528F1D2019801607348AD
:100E100000F06EFD724800F06BFD6D4802A9FFF70F
:100E2000ABF90299481E0C2810D36B4D6C4E684FDD
:100E3000284600F025FF304600F05AFD02A938464A
:100E4000FFF79AF90299481E0C28F1D2019C6160C3
:100E5000624800F04DFD226803201040411E884189
:100E60006049514302220B46D3415F4D01240022C9
:100E7000AB42234600D3134618430423D9415B4BAE
:100E8000994200D81446044059A5514E524F02E0F1
:100E9000384600F0F5FE284600F02AFD02A930464B
:100EA000FFF76AF90299002905D001984068534A72
:100EB000105C814208D9002CEAD1019840680228D0
:100EC000E6D11D29E4D11D2101988160434800F03D
:100ED0000FFD4B4800F00CFD3D4802A9FFF74CF90F
:100EE000029918290FD33C4D454E394F284600F042
:100EF000C7FE304600F0FCFC02A93846FFF73CF97B
:100F000002991829F2D20198C160344800F0F0FC2F
:100F10003C4800F0EDFC2E4802A9FFF72DF902999C
:100F20003C290FD32C4D374E294F284600F0A8FE00
:100F3000304600F0DDFC02A93846FFF71DF90299A2
:100F40003C29F2D201980161244800F0D1FC2E48DE
:100F500000F0CEFC1E4802A9FFF70EF902993C29C9
:100F60000FD31D4D284E1A4F284600F089FE3046FB
:100F700000F0BEFC02A93846FFF7FEF802993C29B2
:100F8000F2D201984161154800F0B2FC024800F02D
:100F900077FE03B0F0BDC046F21C00002D2D2D2DB4
:100FA0002D2D2D2D2D2D2D2D2D2D2D2D2D2D2D2D71
:100FB0002D2D2D2D2D2D2D2D2D2D0D0054696D65D3
:100FC0002053657474696E67730D0000F41C000093
:100FD000211D000022F8FFFFEB1C0000E61C0000B2
:100FE000061D0000295C8FC2295C8F020AD7A3006E
:100FF0004461792020203A200000000008000020F1
:10100000FD1C0000181D00000F1D000002490968AA
:101010000840411E884170470880084070B541096A
:101020008900234BC9180A6AD9691C46183C2468F0
:1010300007240C405D68194614390968890501D4F4
:10104000002110E01968C900CE0F1A49F140002DA7
:1010500009D41D682D01ED0E00D1102569431D68CE
:101060006D02AD0FE940641E062C09D87C4424793A
:101070006400A7440C03030505070A000D4906E0B8
:10108000002104E00121C90301E07D2109021F24A0
:1010900004400325A5402A40E2402E2800D1921C9E
:1010A0009868052800D30520C140D140084670BD8E
:1010B0001880084000127A0070B50C4C2568002B8F
:1010C00001D0054300E08543A668E0682560002B59
:1010D00001D00E4300E08E43A660002B02D01043E7
:1010E000E06070BD9043E06070BDC0462480084061
:1010F000002A03D002680A430260704702688A43EC
:1011000002607047F0B500252C462B4603E0090A23
:101110001035202D5ED0CE070ED18E0714D44E0789
:101120001BD40E0722D4CE0629D48E0632D44E0606
:101130003BD40E06EBD543E00326AE4034431646BF
:10114000AE4033438E07EAD50C26AE403443AE1C86
:101150001746B7403B434E07E3D53026AE403443F5
:101160002E1D1746B7403B430E07DCD5C026AE40C8
:101170003443AE1D1746B7403B43CE06D5D50326B4
:101180003602AE4034432E4608361746B7403B433E
:101190008E06CCD50326B602AE4034432E460A3620
:1011A0001746B7403B434E06C3D503263603AE4031
:1011B00034432E460C361746B7403B430E06A6D5A1
:1011C0000326B603AE4034432E460E361746B740CC
:1011D0003B439CE74169A143416141691943416136
:1011E000F0BDB0B5846825468D43C368012A04D09C
:1011F0008B43002A02D10C4301E00B432C46846050
:10120000C360B0BDF0B581B00E464120010200259B
:10121000012428462A462346FFF74EFF21020627CF
:1012200028463A46FFF77CFAA10228463A46FFF7DD
:1012300077FAA7073846314600F060FA3846294663
:10124000224600F0A4FA38462146224600F09FFAD2
:1012500001B0F0BDF0B581B005460124A004A103A2
:1012600000222346FFF728FF680012490D5A022684
:10127000304629462246FFF753FA094FBD623846E9
:1012800029463246FFF7ADFF384629462246FFF78A
:1012900039FF384629462246FFF72AFF01B0F0BD44
:1012A00000400B4040000349085A03490A68424085
:1012B0000A607047E01C000020400B4006480168AF
:1012C000002908D10168002905D10168002902D14F
:1012D00001680029F3D070474C00002070470000DF
:1012E0003349344A13680020272B5ED01368272B1C
:1012F0005BD01368272B58D01368272B55D0136861
:10130000272B52D01368272B4FD01368272B4CD094
:101310001368272B49D01368272B46D01368272B37
:1013200043D01368272B40D01368272B3DD0136878
:10133000272B3AD01368272B37D01368272B34D0AC
:101340001368272B31D01368272B2ED01368272B37
:101350002BD01368272B28D01368272B25D0136890
:10136000272B22D01368272B1FD01368272B1CD0C4
:101370001368272B19D01368272B16D01368272B37
:1013800013D01368272B10D01368272B0DD01368A8
:10139000272B0AD01368272B07D01368272B04D0DC
:1013A000203103D01368272B9CD170470120704750
:1013B00000CA91FE08A106400F48012101600F49B3
:1013C00002680A4212D002680A420FD002680A423A
:1013D0000CD002680A42F3D108E00A68002A09D05A
:1013E0000A68002A06D00968002903D0011F0A688C
:1013F000002AF2D17047C04604A10640FFEFFFFF6C
:101400000148006880B2704700A10640800003498F
:10141000405870478000014A8150704700A2064042
:10142000704780B584B0694600200881039001228E
:1014300012020192E12252020092FFF7E3FE04B091
:1014400080BD000037490A6802239A4340001043D8
:1014500008607047411E884132490A6801239A4357
:10146000101808607047C04610B5FFF7A5FF0124AB
:10147000204600F047F8204600F03AF81020FFF729
:10148000C5FD0028FAD001242046FFF7DBFF2046E7
:10149000214600F01FF80F20000200F03BF810BDBD
:1014A000014800687047C04600A006400148006837
:1014B000C0B270470CA0064080B5FFF7F7FFC00729
:1014C00002D00348012101700020FFF7EBFE80BD30
:1014D00018000020054A002903D01168014311605B
:1014E00070471168814311607047C04610A00640E4
:1014F000411E8841C0000B490A6808239A4310180E
:101500000860704707490A6820239A434001104346
:10151000086070470F210902024A13688B43034396
:101520001360704708A0064010B5012084072021F1
:10153000204600F0DDF80028F9D0204600F024F91C
:1015400010BD000009490A46103AC3B213600122D7
:1015500012020B68134208D10B68134205D10B68C5
:10156000134202D10B681342F3D0704710000040C1
:1015700070477047F0B586B0594810210591016059
:101580005849C86A402203921043C862564802680C
:10159000272A08D00268272A05D00268272A02D005
:1015A0000268272AF3D10324A0020A6A82430A624E
:1015B0000122D0020B6803430B604868000708D47F
:1015C0004868000705D44868000702D44868000747
:1015D000F3D50868049420430423029398430860D9
:1015E000086B0724204003280BD0086B20400328F9
:1015F00007D0086B2040032803D0086B2040032845
:10160000EED13A4B1868104306250195A84318609F
:1016100000200090C86157020868B84308601302B0
:10162000081F05681D4305600D680826B5430D6059
:1016300005683D43056095020E682E430E604D68B7
:101640006D0708D44D686D0705D44D686D0702D449
:101650004D686D07F3D5CD6A039EB543CD620F2566
:10166000ED054D6115074E692E434E6105689D439A
:1016700005600868384308604868800708D44868EF
:10168000800705D44868800702D448688007F3D5EE
:10169000164D2868049B1843029B984328600098C5
:1016A000C86108681043019B98430860086B20409C
:1016B00001280BD0086B2040012807D0086B204080
:1016C000012803D0086B20400128EFD12868059934
:1016D00008432860100329680143296006B0F0BD63
:1016E0000C8108400480084008A106400002084020
:1016F00000690840411E884170470000B0B50D46A2
:101700000446406819490140E8880843A988014314
:1017100028890843E96801436160002014498C422C
:101720000BDC012189078C4212D015498C4213D061
:1017300014498C4215D1082011E00E498C4209D081
:101740000D498C420AD00D498C420AD11A2006E07C
:10175000182004E00A2002E01C2000E01E20FFF711
:101760005DFC2968FEF7BDFD6062B0BDFCE0FFFFD7
:10177000FFFF03400020044000100440000004402C
:101780000010004000200040006880B27047102325
:101790008B40002A03D0416819434160704741687B
:1017A0009943416070470020704780B5FFF7BCFE49
:1017B00080BD80B5FFF7C6FE80BD000084B000206C
:1017C000402201230146FFF777FCFFF789FD00283F
:1017D00000D0FEE70020FFF73DFDFFF722FE224884
:1017E00002210160FFF70CFE012802D11FA000F0CA
:1017F00047FA00200390FFF709FE234DA84203D1CA
:1018000030A000F03DFA14E020A000F039FAFFF714
:101810002BFE254E3046FFF7CFFA3046FFF73EF855
:1018200000281CD00120FFF715FE00202946FFF7F5
:10183000F1FD2C4F2C4D38780028FCD003983870DF
:101840002846FFF7B7F90ECD28686E68AC6800909F
:101850000196029425480C3D00F04AF8EBE713A0EE
:1018600000F00EFAFEE7C04600E100E00D0A506FFE
:10187000776572204F6E205265736574206F6363C5
:101880007572726564210D00A5A555AA0D0A525402
:1018900043206E6F742079657420636F6E6669678C
:1018A00075726564210D0000340000200D0A41644A
:1018B0006A7573742074696D65206572726F722128
:1018C0000D0000000D0A4E6F206E65656420746F78
:1018D00020636F6E66696775726520525443210DEF
:1018E00000000000180000201C000020241D000043
:1018F0000FB410B503A9044B044A029800F018F87D
:1019000010BC08BC04B01847B31700000400002046
:1019100002E008C8121F08C1002AFAD170477047B8
:10192000002001E001C1121F002AFBD17047000016
:10193000FFB58FB00546002606E025280AD0129A8A
:10194000119990476D1C761C28780028F5D13046F7
:1019500013B0F0BD002402940121B54A009400E0C8
:1019600004436D1C2B780846203B98401042F7D169
:1019700028782A280ED002222878014630390929F1
:1019800016D802990A2359433039401814436D1C64
:101990000290F1E7109802C802911090002904DA31
:1019A00001204003044348420290022004436D1C7E
:1019B00028782E2817D10420044368786D1C2A2823
:1019C0000CD110986D1C02C8009110900BE000998A
:1019D0000A225143303940186D1C00902878014686
:1019E00030390929F3D928786C2810D006DC4C2826
:1019F0001AD068280ED06A2817D104E0742813D0B2
:101A00007A2812D110E00120400504430CE00121A6
:101A1000090501E0032109050C436978814203D1DE
:101A20000120000524186D1C6D1C2878692874D0CD
:101A300006DC00288BD0632827D0642806D16CE010
:101A40006E2808D073282CD0752878D0129A119956
:101A50009047761C5FE06002400F022809D00328FF
:101A60000DD00428109801680DD00E60001D109054
:101A700051E01098F21701680E604A60F6E710987E
:101A800001680E80F2E70E70F0E710986A46017860
:101A90001173001D10900020507303A801900120C5
:101AA00005E0109802C8019110900020C043610722
:101AB0000CD5002700E07F1C00998F420FDA874287
:101AC000F9DB0199C95D0029F5D108E0002700E0A4
:101AD0007F1C8742FCDB0199C95D0029F8D102987F
:101AE0002146C01B0290129B119A00F0B3F8801996
:101AF000C61907E0019801990078491C0191129AD2
:101B0000119990477F1EF5D22146129B119A029897
:101B100000F090F886196D1C16E70A2001901099C4
:101B200001C910916102490F032900D100B20429B3
:101B300000D140B2002803DA40422D2103E00DE03D
:101B4000210504D52B216A461173012103E0E10729
:101B500011D02021F7E70CAF0C9114E00A2001907E
:101B6000109901C910916102490F032900D180B277
:101B7000042900D1C0B20021EDE70199FEF7B1FBC5
:101B800030317F1E39700028F7D104A8C01B2030E7
:101B90000190600704D5012000048443009801E00F
:101BA000012000900199884201DD401A00E00020E8
:101BB000411800900C9809180298401A0290E0030E
:101BC00006D42146129B119A029800F043F8861918
:101BD00000200D9008E003A9085C129A1199904723
:101BE0000D98401C761C0D900C998842F3DBE003A5
:101BF0000CD52146129B119A029800F02BF88619F9
:101C000004E0129A302011999047761C0099481EE2
:101C100000900029F5DC05E03878129A7F1C1199B4
:101C20009047761C0199481E01900029F4DC6BE76F
:101C300009280100F8B5044600251E461746880409
:101C400004D405E039462020B0476D1C641EF9D548
:101C50002846F8BDFFB50446002581B01E46C803DE
:101C600001D5302700E02027880404D505E0384658
:101C70000399B0476D1C641EF9D5284605B0F0BD28
:101C800010B5044601E0FFF794FD2078641C034979
:101C90000028F8D10A20FFF78CFD10BD04000020B9
:101CA000DDDDDDDDDCBBBBDDDDDDDDDDDDDDDDDDA9
:101CB00098888888888888887777777777888888E9
:101CC0008555555666666666666666666668888881
:101CD0008333333222222222222222222228888D7A
:101CE00000080001000425640D0A00496E76616C4D
:101CF00069640D005965617220203A2000486F75B3
:101D00007220203A20004D6F6E7468203A200053F4
:101D100065636F6E643A20004D696E7574653A2094
:101D2000002564000D253034642E253032642E25C4
:101D300030326420253032643A253032643A25301E
:101D400032640000641D0000000000201800000044
:101D5000101900007C1D000018000020380200004F
:101D6000201900000000000000000000001F1C1FE0
:0C1D70001E1F1E1F1F1E1F1E1F00000054
:04000005000000C136
:00000001FF
