:020000040000FA
:1000000030090020C1000000831E000029180000F4
:10001000FFFFFFFFFFFFFFFFFFFFFFFFFFFFFFFFF0
:10002000FFFFFFFFFFFFFFFFFFFFFFFF871E000037
:10003000FFFFFFFFFFFFFFFF851E000033010000F1
:1000400035010000350100003501000035010000D8
:1000500035010000350100003501000035010000C8
:1000600035010000350100003501000035010000B8
:1000700035010000350100003501000035010000A8
:10008000350100003501000035010000491800006D
:10009000591800003501000035010000350100004D
:1000A0003501000035010000350100003501000078
:1000B0003501000035010000350100003501000068
:1000C0001D4880471D4880471D4800471D4801695D
:1000D000002908D14169002905D18169002902D18F
:1000E000C169002909D01848C1680901090D002912
:1000F0000ED005290CD006290AD0BFF34F8F134824
:100100001349016013491248C860BFF34F8FFEE7DF
:100110000E4801680E48884200D070470E480F49CB
:1001200001600A480E4901607047FEE7FEE7FEE7FE
:10013000FEE7FEE7FEE70000CD000000891E00009C
:100140006501000000030840800108400000002015
:100150000400FA0500ED00E0008108400100000005
:10016000000000000348854600F038F800480047CA
:100170000520000030090020D2B201E00270401CCE
:10018000491EFBD270470022F6E710B513460A4617
:1001900004461946FFF7F0FF204610BD70B504462F
:1001A000002903D000202022012310E0002801D0E4
:1001B0000020C043C046C0460DE02546D5408D42D4
:1001C00005D30D469540641B1D46954040191546C4
:1001D000521E002DF1DC214670BD00001CB50948FF
:1001E00000900948019005460126009C05E0E3685F
:1001F00007CC33430C3C98471034AC42F7D3FFF79D
:10020000B5FF0000703C0000903C0000F0B58EB0DF
:10021000C0005C4BC4180F23180207901803089005
:100220001804099018050A9018060B9018070C90EE
:100230000E060D9452D00120084045422F461F4023
:100240008807059000D5F0374807049001D5079836
:1002500007430807039001D508980743C806029092
:1002600001D5099807438806019001D50A980743EC
:100270004806009003D530460B9E37430646069647
:10028000002E01D50C9E37430D9C2468BC431701FA
:100290000598C6173E401540354316020498C71707
:1002A00037402F4315030398C6172E403E431504CD
:1002B0000298C7172F40374315050198C6172E40DF
:1002C0003E4315060098C017284030431507069E88
:1002D000F6172E40064326430D9C26600E04300E72
:1002E00041D0C805C7173B408805069000D5F033BC
:1002F0004805059001D5079803430805079001D5E7
:1003000008980343C80408902FD4880431D44904C2
:1003100033D4002E01D50C9D2B4365689D431301FA
:10032000069CE4171C40174027431302059CE41762
:100330001C403C431303079FFF171F402743130430
:10034000089CE4171C403C431305C0171840204389
:100350001306C917194001431007F21702400A4358
:100360002A430D9842600EB0F0BD099803438804FB
:10037000CDD50A9D2B434904CBD50B9D2B43002E95
:10038000C9D4CAE720200240F0B58BB00A460D4D13
:1003900028700D4C20683C2101F09CFB5720400246
:1003A0000AA908800026099607960696074808902D
:1003B00002270597049128780390206803A901F08B
:1003C0007BFC05E0140000200400002030750000D4
:1003D000206801F047FA0028FAD0D52000020AA9C7
:1003E0000880099607960696054808900597049197
:1003F00028780390206803A901F05EFC02E0C04663
:1004000030750000206801F02DFA0028FAD0012094
:100410000290C0030AA90880099607960696054827
:1004200008900597049128780390206803A901F0AB
:1004300043FC01E030750000206801F013FA002849
:10044000FAD01520C0020AA90880099607960696D8
:10045000054808900597049128780390206803A91F
:1004600001F02AFC02E0C04630750000206801F06F
:10047000F9F90028FAD03F2000020AA9088009965D
:1004800007960696F54808900597049128780390FA
:10049000206803A901F010FC206801F0E3F90028AE
:1004A000FAD0D32000020AA908800996079606967A
:1004B000EA4808900597049128780390206803A9DA
:1004C00001F0FAFB206801F0CDF90028FAD00AA863
:1004D0000680099607960696E049089105970490CC
:1004E00028780390206803A901F0E6FB206801F05A
:1004F000B9F90028FAD0029881030AA80191018075
:10050000099607960696F949089105970490287868
:100510000390206803A901F0CFFB206801F0A2F945
:100520000028FAD08D2000020AA9088009960796B3
:100530000696EE4808900597049128780390206865
:1005400003A901F0B9FB206801F08CF90028FAD06A
:10055000052080020AA90880099607960696E348B6
:1005600008900597049128780390206803A901F06A
:10057000A3FB206801F076F90028FAD00298400326
:100580000AA90880099607960696D8480890059704
:10059000049128780390206803A901F08DFB20685E
:1005A00001F060F90028FAD00AA80680099607969B
:1005B0000696CE4908910597049028780390206804
:1005C00003A901F079FB206801F04CF90028FAD06A
:1005D000A12000020AA90880099607960696C3483A
:1005E00008900597049128780390206803A901F0EA
:1005F00063FB206801F036F90028FAD01920C00208
:100600000AA90880099607960696F3480890059768
:10061000049128780390206803A901F04DFB20681D
:1006200001F020F90028FAD06D2040020AA90880C4
:10063000099607960696E848089005970491287849
:100640000390206803A901F037FB206801F00AF944
:100650000028FAD0092040020AA9088009960796C6
:100660000696DD4808900597049128780390206845
:1006700003A901F021FB206801F0F4F80028FAD06A
:10068000812000020AA90880099607960696D2489A
:1006900008900597049128780390206803A901F039
:1006A0000BFB206801F0DEF80028FAD0CF20000212
:1006B0000AA90880099607960696C74808900597E4
:1006C000049128780390206803A901F0F5FA2068C6
:1006D00001F0C8F80028FAD0DB2000020AA908803F
:1006E000099607960696BC480890059704912878C5
:1006F0000390206803A901F0DFFA206801F0B2F846
:100700000028FAD00AA80199018009960796069652
:10071000B14908910597049028780390206803A9AF
:1007200001F0CAFA206801F09DF80028FAD0D9201B
:1007300000020AA90880099607960696A64808901E
:100740000597049128780390206803A901F0B4FA72
:10075000206801F087F80028FAD0F12000020AA9E9
:1007600008800996079606969B480890059704917D
:1007700028780390206803A901F09EFA206801F010
:1007800071F80028FAD0292080020AA90880099669
:10079000079606969048089005970491287803904C
:1007A000206803A901F088FA206801F05BF80028AE
:1007B000FAD0532040020AA90880099607960696A7
:1007C000854808900597049128780390206803A92C
:1007D00001F072FA206801F045F80028FAD01720DD
:1007E00040020AA908800996079606967A4808905A
:1007F0000597049128780390206803A901F05CFA1A
:10080000206801F02FF80028FAD0AF2000020AA9D2
:100810000880099607960696EC480890059704917B
:1008200028780390206803A901F046FA206801F0B7
:1008300019F80028FAD002988102AA48FFF7A3FC11
:1008400000F056F806480178DD4A1170DD4908606D
:100850004078DA4908700BB0F0BDC0463075000032
:100860006236000080B5012081029E48FFF78BFCB4
:1008700080BDC046F0B589B004468120000208A9B9
:1008800008800026079605960496D0480690022711
:1008900003970291CC4800780190CD4D286801A9BA
:1008A00001F00AFA286800F0DDFF0028FAD008A855
:1008B0000680002C01D0314601E03021C94341704F
:1008C000079605960496C149069103970290BE4883
:1008D00000780190286801A901F0EEF9286800F07D
:1008E000C1FF0028FAD009B0F0BDC0463075000045
:1008F000F0B58BB00B2000030AA9088000200990F6
:10090000079002900690B14808900220019005904F
:100910000491AD4800780390AD4D286803A901F01B
:10092000CBF9286800F09EFF0028FAD00AA80299A7
:100930000180099107910691A449089101990591B7
:100940000490A14800780390286803A901F0B4F945
:10095000286800F087FF0028FAD0012420030AA9A4
:10096000088002980990079006909848089001988E
:1009700005900491944800780390286803A901F039
:100980009BF9286800F06EFF0028FAD0A70203AE9A
:100990000C36EE4C20780AA940220A804870029852
:1009A00030607060B060F0600198059004918648F6
:1009B0000078039085480890286803A901F07CF925
:1009C0007F1E286800F04EFF0028FAD0641C38040F
:1009D000E0D10BB0F0BDC04630750000F0B58CB072
:1009E0000B9301920A9011980290002878D01298E7
:1009F0000490002801D0022000E001200022049B86
:100A0000012B069200D006900B98C41D049D6B1E0E
:100A100028469841012D01D040000490E008009044
:100A20001346144606E0491C039B5B1C1AB202984D
:100A3000824255DA03930B980028F4D00098424381
:100A4000019880180890382008400001099007207C
:100A5000084001231A4682400792D04305900025A2
:100A60002F460BE009980543B84A505D079E704039
:100A700050557F1C3DB20B988542D4DA680701D0EF
:100A8000640002E0E810089A145CCAB20020402A10
:100A90001E4600D306460A9AAD18802D1A4600D38A
:100AA0000246324060B2002805D4002AE1D0069800
:100AB000022805D1D6E7002ADBD004980228D1D03D
:100AC000012806D109980543EB4A505D079E304343
:100AD000CEE709980543E84A505D059E3040C7E7D8
:100AE0000CB0F0BD20000020F0B58DB00291F749A8
:100AF00009784B07C908002B01D10C4600E04C1CBB
:100B000040B2002802D5029B5B180293002C52D001
:100B1000C117884351B2202900DC202120390491DB
:100B200005AD0C350027C0B20190FD4E04E07F1CDE
:100B3000039C641E20063ED003940298C019C1B2E3
:100B4000019800F0FFF9FD4800780028EFD000245C
:100B5000FB4909784A07C908002A00D0491CC0B2DD
:100B60000246049B5A434A43F34909688918091904
:100B70007843081880780CA940220A804870002029
:100B800028606860A860E860022007900691E3484A
:100B900000780590E0480A90306805A901F08CF8CB
:100BA000306800F05FFE0028FAD0E4480078641C4A
:100BB0008442CDD3BBE70DB0F0BDC0461C00002081
:100BC0001D000020180000201400002030750000D7
:100BD0000400002080B582B000938218521ED2B269
:100BE0000B4600F00DF802B080BD80B582B00093D6
:100BF0008A18521ED3B2024600F002F802B080BD3D
:100C0000F0B587B0141AE5176C40661B5C1AE5173F
:100C10006C40641B05960494B4420BD916460246F8
:100C200099420DD83746069316460B46BE420BD264
:100C300001200BE01E4613460A4601469942F1D9AF
:100C400017460691BE42F3D30021C843019006988F
:100C5000984201D207B0F0BD0C9A0698C11ACC1781
:100C60006140081BB91BCC176140091B0391009020
:100C700047081F24E001029004E05B1CD8B2069CE8
:100C8000A042E7D80598049C844213D9022A3AD09E
:100C9000012A22D0002A4CD107241C400125A5405E
:100CA0001C0102980440F0B2201873490C5CAC435C
:100CB0000C543EE0022A2FD0012A17D0002A38D146
:100CC00007203040012484403001029D2840DDB2DD
:100CD000401969490D5CA5432AE00720184001240A
:100CE00084401801029D2840F5B207E007203040FB
:100CF000012484403001029D2840DDB240195E4944
:100D00000D5C254314E0072018400124844018019D
:100D1000029D2840F5B207E00720304001248440BE
:100D20003001029D2840DDB2401953490D5C6540F9
:100D30000D5438B20399471A3CB2002C01D50098E3
:100D40002718002C99D50198361896E72000002026
:100D5000F0B587B003AC07C4002B5CD01C46981ECE
:100D60000090581E029000262C4D0696019310E02C
:100D70000120069030200143CAB2704800784643F3
:100D800003983018C0B20499FFF7AEFEA7423E4662
:100D900041D0771CF8B2844201D1012120E0F04318
:100DA00020180099891BC9B2032901D2012108E04A
:100DB000FC2202400023012169431B1DDCB2944246
:100DC000FAD103221040019C0AD0012801D10A2047
:100DD00005E0022802D07D20C00000E064204143ED
:100DE0000598FFF7DBF90A21FFF7D8F906980028E4
:100DF000C0D10298B042BDDD0029B9D14F4800787A
:100E0000464303983018C0B220220499FFF76CFEC5
:100E100000200690BAE707B0F0BDC04610270000DA
:100E2000022A1BD0012A0DD0002A23D107220A4012
:100E300001239340F8220A40110108180E490A5C68
:100E40009A4316E007220A4001239340F8220A4001
:100E50001101081808490A5C1A430AE007220A40EF
:100E600001239340F8220A401101081802490A5C44
:100E70005A400A547047C04620000020F0B581B0A7
:100E800014461278002A1ED00D460646002705E0BB
:100E900000267F1CF8B2225C002A14D0F0B2E9B21E
:100EA000D2B2FFF721FE254800788021091A861961
:100EB000F0B28142EDDA22480078C1084D194007AE
:100EC000E6D06D1CE4E701B0F0BDC0461C00002078
:100ED00010B588B007A900220A80002801D0582048
:100EE00000E05920C04348700692049203923D48A6
:100EF00005900220029001913B48007800903B4C05
:100F00002068694600F0D8FE206800F0ABFC00289D
:100F1000FAD008B010BDC0463075000014000020A3
:100F200004000020044908600178044A11704078E8
:100F3000034908707047C046180000201D000020BB
:100F40001C000020F0B589B0044608A800260680E1
:100F5000503941700796059604962249069102275A
:100F600003970290204800780190204D286801A93D
:100F700000F0A2FE286800F075FC0028FAD008A84E
:100F80000680210910314170079605960496F949AB
:100F9000069103970290F84800780190286801A90B
:100FA00000F08AFE286800F05DFC0028FAD008A84E
:100FB00006800F210C404470079605960496ED4973
:100FC000069103970290EC4800780190286801A9E7
:100FD00000F072FE286800F045FC0028FAD009B045
:100FE000F0BDC04630750000140000200400002051
:100FF000F0B58BB01E46019202910090172040027E
:101000000AA908800025099507950695D9480890F2
:10101000022705970491D84800780390D74C2068A0
:1010200003A900F049FE206800F01CFC0028FAD05B
:101030003F2E00D1BAE0012E00D1B7E0002E00D043
:1010400095E1272000020AA90880099507950695D1
:10105000C848089005970491C74800780390206815
:1010600003A900F029FE206800F0FCFB0028FAD05C
:101070000AA80580099507950695BE490891059728
:101080000490BD4800780390206803A900F014FE86
:10109000206800F0E7FB0028FAD00AA80580009934
:1010A0004170099507950695B249089105970490F6
:1010B000B14800780390206803A900F0FDFD206886
:1010C00000F0D0FB0028FAD00AA8058001994170F1
:1010D000099507950695A749089105970490A64894
:1010E00000780390206803A900F0E6FD206800F076
:1010F000B9FB0028FAD00AA8058002994170099529
:10110000079506959B490891059704909A480078A1
:101110000390206803A900F0CFFD206800F0A2FB37
:101120000028FAD00AA805800995079506959149E7
:10113000089105970490904800780390206803A9CF
:1011400000F0BAFD206800F08DFB0028FAD0FF20E7
:1011500000020AA908800995079506958548089018
:1011600005970491844800780390206803A900F053
:10117000A3FD206800F076FB0028FAD02F200002A3
:101180000AA908800995079506957A480890059759
:101190000491794800780390206803A900F08CFD41
:1011A000206800F05FFB0028FAD0E0E0A3200002F6
:1011B0000AA908800995079506956E480890059735
:1011C00004916D4800780390206803A900F074FD35
:1011D000206800F047FB0028FAD00AA8058009958E
:1011E0000795069563490891059704906248007831
:1011F0000390206803A900F05FFD206800F032FB37
:101200000028FAD0012080030AA9088009950795D3
:101210000695584808900597049157480078039020
:10122000206803A900F048FD206800F01BFB00289F
:10123000FAD0152040020AA908800995079506955D
:101240004C480890059704914B480078039020681B
:1012500003A900F031FD206800F004FB0028FAD05B
:101260000AA80580099507950695424908910597B2
:101270000490414800780390206803A900F01CFD09
:10128000206800F0EFFA0028FAD00AA8058000993B
:101290004170099507950695364908910597049080
:1012A000354800780390206803A900F005FD206808
:1012B00000F0D8FA0028FAD00AA8058001994170F8
:1012C0000995079506952B490891059704902A489A
:1012D00000780390206803A900F0EEFC206800F07D
:1012E000C1FA0028FAD00AA8058002994170099530
:1012F000079506951F490891059704901E480078A8
:101300000390206803A900F0D7FC206800F0AAFA37
:101310000028FAD00AA80580467009950795069519
:10132000F849089105970490F748007803902068E1
:1013300003A900F0C1FC206800F094FA0028FAD05C
:101340002F2000020AA90880099507950695FE48F6
:10135000089005970491FD4800780390206803A940
:1013600000F0AAFC206800F07DFA0028FAD00BB04B
:10137000F0BDC046307500001400002004000020BD
:10138000F0B58BB01E4601920291009017204002EA
:101390000AA908800025099507950695EA4808904E
:1013A000022705970491E94800780390E84C2068EB
:1013B00003A900F081FC206800F054FA0028FAD05C
:1013C0003F2E00D1BAE0012E00D1B7E0002E00D0B0
:1013D00095E1132040020AA9088009950795069512
:1013E000D948089005970491D84800780390206860
:1013F00003A900F061FC206800F034FA0028FAD05C
:101400000AA80580099507950695CF490891059783
:101410000490CE4800780390206803A900F04CFCAB
:10142000206800F01FFA0028FAD00AA80580009969
:101430004170099507950695C34908910597049051
:10144000C24800780390206803A900F035FC2068AA
:1014500000F008FA0028FAD00AA805800199417026
:10146000099507950695B849089105970490B748DE
:1014700000780390206803A900F01EFC206800F0AB
:10148000F1F90028FAD00AA805800299417009955F
:1014900007950695AC49089105970490AB480078EC
:1014A0000390206803A900F007FC206800F0DAF937
:1014B0000028FAD00AA80580099507950695A24943
:1014C000089105970490A14800780390206803A92B
:1014D00000F0F2FB206800F0C5F90028FAD0FF20E8
:1014E00000020AA908800995079506959648089074
:1014F00005970491954800780390206803A900F0AF
:10150000DBFB206800F0AEF90028FAD02F200002A3
:101510000AA908800995079506958B4808900597B4
:1015200004918A4800780390206803A900F0C4FB66
:10153000206800F097F90028FAD0E0E0A32000022C
:101540000AA908800995079506957F480890059790
:1015500004917E4800780390206803A900F0ACFB5A
:10156000206800F07FF90028FAD00AA805800995C4
:10157000079506957449089105970490734800787B
:101580000390206803A900F097FB206800F06AF937
:101590000028FAD0012080030AA908800995079540
:1015A000069569480890059704916848007803906B
:1015B000206803A900F080FB206800F053F90028A0
:1015C000FAD0292000020AA90880099507950695F6
:1015D0005D480890059704915C4800780390206866
:1015E00003A900F069FB206800F03CF90028FAD05C
:1015F0000AA805800995079506955349089105970E
:101600000490524800780390206803A900F054FB2E
:10161000206800F027F90028FAD00AA80580009970
:1016200041700995079506954749089105970490DB
:10163000464800780390206803A900F03DFB20682D
:1016400000F010F90028FAD00AA80580019941702D
:101650000995079506953C490891059704903B48E4
:1016600000780390206803A900F026FB206800F0B2
:10167000F9F80028FAD00AA8058002994170099566
:101680000795069530490891059704902F480078F2
:101690000390206803A900F00FFB206800F0E2F837
:1016A0000028FAD00AA80580467009950795069586
:1016B00025490891059704902448007803902068F4
:1016C00003A900F0F9FA206800F0CCF80028FAD05D
:1016D0002F2000020AA908800995079506951A4847
:1016E000089005970491194800780390206803A991
:1016F00000F0E2FA206800F0B5F80028FAD00BB04C
:10170000F0BDC046307500001400002010B588B050
:101710001720400207A9088000200690049003903B
:101720000948059002200290019108480078009035
:10173000074C2068694600F0BFFA206800F092F874
:101740000028FAD008B010BD307500001400002049
:101750000400002070B541098900234BC9180A6AAA
:10176000D9691C46183C246807240C405D6819465A
:1017700014390968890501D4002110E01968C900ED
:10178000CE0F1A49F140002D09D41D682D01ED0E30
:1017900000D1102569431D686D02AD0FE940641E3C
:1017A000062C09D87C4424796400A7440C03030563
:1017B00005070A000D4906E0002104E00121C903E4
:1017C00001E07D2109021F2404400325A5402A4091
:1017D000E2402E2800D1921C9868052800D30520ED
:1017E000C140D140084670BD1880084000127A0000
:1017F00070B50C4C2568002B01D0054300E08543F3
:10180000A668E0682560002B01D00E4300E08E43FF
:10181000A660002B02D01043E06070BD9043E060F2
:1018200070BDC0462480084006480168002908D1E0
:101830000168002905D10168002902D10168002949
:10184000F3D070471000002080B5012000F03CF874
:10185000022000F039F880BD80B5002000F034F897
:1018600080BD0000B0B544214143E0484518286BD5
:10187000012801D10420B0BD686B012801D10520E9
:10188000B0BDA86A002809D0E86B002808DDE86A26
:10189000012816D10020E8620320B0BD0120B0BDB0
:1018A0000022AA62286801214C02214600F07AFA3F
:1018B0002868214600F00EFA286800F020FA02207D
:1018C000B0BD0020B0BDC046F0B581B04421414359
:1018D000F84A5058002800D1DBE055180C2100F0E0
:1018E0006BFA42050126B102002A13D4C20517D4AF
:1018F000020522D4704A904222DD704A904258DD9F
:101900001D225204904200D182E06D4A90427FD065
:101910006C4936E02E63286800F0DCF901B0F0BDB8
:1019200031022E63286800F0D5F9286800F04FFADC
:10193000286800F04CFA01B0F0BDF1026E63EAE7EE
:101940006149884219DC7102884272D031048842B0
:1019500000D09EE028696969891E884203D1286801
:10196000002100F0AFF9286800F031FAA9692A696E
:101970008854501C286101B0F0BD544988425AD0A7
:101980005349884200D084E02868710200F0A2F92F
:10199000286800F0B4F9286C002879D0F40428688D
:1019A000214600F0B1F901286ED1E86B0128F6DA82
:1019B0006FE019210904884203D01D2109048842DF
:1019C00067D128696969891E884203D12868002186
:1019D00000F078F9286800F0FAF9A9692A698854B2
:1019E000501C28616969884253D1286800F087F942
:1019F0000020A862286C00284BD0F40428682146F7
:101A000000F082F9012846D1E86B0128F6DA40E0BF
:101A10002868AA68002A17D06968EA68515C00F053
:101A2000D9F96868401C6860A868401EA86001B0C9
:101A3000F0BDEE626FE7686902282AD328680121A9
:101A400000F040F901B0F0BD0F46710400242246B9
:101A500000F0A8F92020285C032822D0022823D0F7
:101A6000012816D1286800F04AF9AC62286C0028D9
:101A70000FD0F4042868214600F046F901280AD165
:101A8000E86B0128F6DA04E02868002100F024F968
:101A9000EE6201B0F0BD2868002100F01DF901B030
:101AA000F0BD286800F02BF93A466F622868A98BD0
:101AB00000F0D4F901B0F0BDFFFF1800FFFF3900BE
:101AC00004003A0000023A00030018000400180065
:101AD00000021800F0B587B0164605460124E7035A
:101AE000022841D0012D20D0002D5CD171480191F8
:101AF000A74901604049002002462346FFF778FECF
:101B00000296022610210397072730463A46FEF731
:101B10007DFB20213046029E3A46039FFEF776FB6E
:101B200020053449086001993DE0624801919749D8
:101B300041642F49002002462346FFF759FE210346
:101B4000029602260397072730463A46FEF75EFBC9
:101B500061033046029E3A46039FFEF757FBE004BE
:101B60002449086001991EE0882001915149874A63
:101B70000A501F49002002462346FFF739FEA10301
:101B8000029602260397072730463A46FEF73EFBA9
:101B90003046029E03993A46039FFEF737FBE00466
:101BA00014490860019904AC21810020A0702080B4
:101BB000124800681249FEF7F1FAE07005964426D3
:101BC0006E433C4DA859214600F0A4F8A8590D4990
:101BD0000124224600F0E6F8A859214600F085F8D5
:101BE000A859394600F0F8F807B0F0BD20040020ED
:101BF0000140000000E100E0024000000000002081
:101C000000127A0005070100F0B581B00D464421AD
:101C1000414328484718287E202178540120B86283
:101C20000024FC623C637C6368697D21C900FEF787
:101C3000B5FAF8637C60A868B8603C616868F860D1
:101C400028697861E868B8612868F861F86B00284D
:101C500011DD687E386438680126314600F03CF8B2
:101C60003868F10400F050F8012805D1F86B01281C
:101C7000F6DA01B0F0BDFEE738687102009100F0BD
:101C800029F838680099324600F08CF8287E401E0A
:101C9000022805D838687104324600F083F800E065
:101CA000B4027C623868B98B224600F0D7F801B0E4
:101CB000F0BDC0462004002080B501220A76FFF75F
:101CC000A3FF80BD4A1E9141026801239A43511827
:101CD00001607047C16070474A1E9141C9000268A7
:101CE00008239A435118016070474A1E91414903E5
:101CF0000122520303689343591801607047016839
:101D000002220A4302607047C0680840411E8841B1
:101D100070470000F0B581B00D460446006885218B
:101D200088432978014368780843A97801432160F2
:101D30002889A060002015498C4203D014498C42A8
:101D400002D10220FFF706FD092141436A681426EB
:101D50005643074608463146FEF720FA2168090B2C
:101D60000C220A400BA18958EA788D18401BC11734
:101D7000884320610B2078433146FEF70FFA401B61
:101D8000C1178843606101B0F0BDC04600800440C7
:101D90000090044006000000080000000900000058
:101DA00000000000002A03D042680A4342607047E6
:101DB00042688A434260704781B0002200920090DE
:101DC0000098401800900098006801B07047806942
:101DD000C0B270478161704770B502694369046899
:101DE0002404A50F1C4CC0467D442D796D00AF44E2
:101DF0000109142B651CA94218D1022A24D39B1E69
:101E0000921E21E000291AD00125ED03A9421BD121
:101E1000002A19D05B1E521E16E00125AD03A9420F
:101E200010D0002910D1DB1CD21C0DE00125ED03E0
:101E3000A94209D1022A07D3DB1ED21E04E09B1C53
:101E4000921C01E05B1C521C02614361026822404B
:101E50000A43026070BDC046FF3F000003689B0755
:101E600008D503689B0705D503689B0702D503685F
:101E70009B07F3D4002A02D0012292021143C161D0
:101E80007047704770477047F0B586B059481021C9
:101E9000059101605849C86A402203921043C86204
:101EA00056480268272A08D00268272A05D0026807
:101EB000272A02D00268272AF3D10324A0020A6A43
:101EC00082430A620122D0020B6803430B60486818
:101ED000000708D44868000705D44868000702D402
:101EE00048680007F3D5086804942043042302934C
:101EF00098430860086B0724204003280BD0086B28
:101F00002040032807D0086B2040032803D0086B2B
:101F100020400328EED13A4B18681043062501955E
:101F2000A843186000200090C86157020868B843B1
:101F300008601302081F05681D4305600D68082628
:101F4000B5430D6005683D43056095020E682E435C
:101F50000E604D686D0708D44D686D0705D44D6857
:101F60006D0702D44D686D07F3D5CD6A039EB54366
:101F7000CD620F25ED054D6115074E692E434E616B
:101F800005689D4305600868384308604868800715
:101F900008D44868800705D44868800702D4486898
:101FA0008007F3D5164D2868049B1843029B98437D
:101FB00028600098C86108681043019B9843086036
:101FC000086B204001280BD0086B2040012807D067
:101FD000086B2040012803D0086B20400128EFD176
:101FE000286805990843286010032968014329607F
:101FF00006B0F0BD0C8108400480084008A10640EE
:10200000000208403C200B49FEF7BEF900F076FBC9
:1020100000F0C8FB00F00AFC00F0D4FA00F096F9DA
:1020200000F08EF800F018FD00F090FC00F004F8CD
:10203000FEE7C046801A060070B582B00120FEF7A8
:1020400019FC7D20850001958401BE4E3068214633
:10205000FEF7A4F80199414301910198411E0191B5
:1020600000280ED00198411E0191002809D0019846
:10207000411E0191002804D00198411E01910028C1
:10208000EBD10020FEF7F6FB019530682146FEF704
:1020900085F80199414301910198411E0191002861
:1020A0000ED00198411E0191002809D00198411ECF
:1020B0000191002804D00198411E01910028EBD124
:1020C0000120FEF7D7FB019530682146FEF766F840
:1020D0000199414301910198411E019100280ED0C0
:1020E0000198411E0191002809D00198411E0191DB
:1020F000002804D00198411E01910028EBD1002056
:10210000FEF7B8FB019530682146FEF747F80199C4
:10211000414301910198411E019100280ED0019880
:10212000411E0191002809D00198411E019100280B
:1021300004D00198411E01910028EBD102B070BD7E
:10214000F0B585B0FEF78EFB012040260096039087
:10215000019000257A4A802328462946FEF73EFC56
:10216000FEF7C6FB4B20870004977D20840175484D
:1021700000682146FEF712F804994143049104983F
:10218000411E049100280ED00498411E049100289D
:1021900009D00498411E0491002804D00498411EDF
:1021A00004910028EBD100960195654A80232846CA
:1021B0002946FEF713FCFEF79BFB04976148006875
:1021C0002146FDF7EBFF0499414304910498411E19
:1021D000049100280ED00498411E0491002809D0D3
:1021E0000498411E0491002804D00498411E0491D3
:1021F0000028EBD102200096029001900020504A66
:1022000080230146FEF7EAFBFEF772FB0497EC48D9
:1022100000682146FDF7C2FF0499414304910498E8
:10222000411E049100280ED00498411E04910028FC
:1022300009D00498411E0491002804D00498411E3E
:1022400004910028EBD1FEF70DFB00960398019056
:1022500000253D4A802328462946FEF7BFFBFEF7AE
:1022600047FB0497D64800682146FDF797FF04997D
:10227000414304910498411E049100280ED0049813
:10228000411E0491002809D00498411E04910028A1
:1022900004D00498411E04910028EBD100960195CA
:1022A000294A802328462946FEF798FBFEF720FBA3
:1022B0000497C34800682146FDF770FF0499414325
:1022C00004910498411E049100280ED00498411EE8
:1022D0000491002809D00498411E0491002804D0DC
:1022E0000498411E04910028EBD1009602980190B9
:1022F0000020154A80230146FEF770FBFEF7F8FA2E
:102300000497FD4800682146FDF748FF04994143C2
:1023100004910498411E049100280ED00498411E97
:102320000491002809D00498411E0491002804D08B
:102330000498411E04910028EBD105B0F0BDC046C1
:10234000262C00000000002026300000F0B589B0E7
:10235000FEF788FA002570260124284629463246D1
:102360002346FEF737FC4022304629462346FEF737
:102370003CFC082705976226284639463246234604
:10238000FEF728FC38220692304639462346FEF7EF
:102390002CFC1027049754262846394632462346FB
:1023A000FEF718FC30220392304639462346FEF7EA
:1023B0001CFC1827029746262846394632462346F3
:1023C000FEF708FC28220192304639462346FEF7E4
:1023D0000CFC202628463146069F3A462346FEF747
:1023E000F9FB3846314632462346FEF7FEFB2A26E5
:1023F0002846019F394632462346FEF7EBFB30461E
:102400003946029A2346FEF7F0FB1C262846039F16
:10241000394632462346FEF7DDFB30463946049AFC
:102420002346FEF7E2FB0E262846069D2946324645
:102430002346FEF7CFFB30462946059A2346FEF792
:10244000D4FBFEF755FA7D208100059107918101AB
:10245000F54800680691FDF7A1FE079941430791F1
:102460000798411E079100280ED00798411E07913A
:10247000002809D00798411E0791002804D007982A
:10248000411E07910028EBD1FEF7ECF970243827A4
:1024900002971026012520463946324601962B46E2
:1024A000FEF798FB08220492204639462B46FEF799
:1024B0009CFB6224302703971E22204639462B4678
:1024C000FEF788FB2046394632462B46FEF78DFB49
:1024D0005426282700972C22304639462B46FEF7F3
:1024E00079FB18243046394622462B46FEF77DFB01
:1024F000462620273A22304639462B46FEF76AFB0D
:10250000304639463A462B46FEF76FFB4822029E7C
:10251000304621462B46FEF75DFB30462146009AA9
:102520002B46FEF762FB2A2456222046019F39469D
:102530002B46FEF74FFB20463946039A2B46FEF703
:1025400054FB1C2464222046049F39462B46FEF788
:1025500041FB2046394632462B46FEF746FB0E2409
:1025600000267222204631462B46FEF733FB4022DE
:10257000204631462B46FEF738FBFEF7B9F90598A1
:102580000890F14800680699FDF708FE0899414354
:1025900008910898411E089100280ED00898411E05
:1025A0000891002809D00898411E0891002804D0FD
:1025B0000898411E08910028EBD109B0F0BDC04633
:1025C00000000020F0B587B0FEF74CF900252E463C
:1025D0002F46F0B2FCB201222146FEF721FC7F1CFF
:1025E0003F2CF6D3701C46B2002EF1D5FEF780F9D1
:1025F0007D208100019104918101D34800680291FE
:10260000FDF7CCFD0499414304910498411E0491C7
:1026100000280ED00498411E0491002809D0049887
:10262000411E0491002804D00498411E0491002802
:10263000EBD100270397039CF8B2E6B200253146A0
:102640002A46FEF7EDFB641C1F2EF5D3781C47B21B
:10265000002FF0D5FEF74CF901980590BA480068B4
:102660000299FDF79BFD0599414305910598411E8F
:10267000059100280ED00598411E0591002809D02B
:102680000598411E0591002804D00598411E05912A
:102690000028EBD12C462F46E0B2FEB20222314692
:1026A000FEF7BEFB7F1C3F2EF6D3601C44B2002C0D
:1026B000F1D5FEF71DF901980690E64800680299E9
:1026C000FDF76CFD0699414306910698411E06915F
:1026D00000280ED00698411E0691002809D00698C1
:1026E000411E0691002804D00698411E069100283C
:1026F000EBD107B0F0BDC04600000020B0B582B0FD
:10270000FEF7B0F8FEF7F4F88A48FEF70BFC192440
:102710000021444D20462A46FEF7B0FB0121204609
:102720002A46FEF7ABFB022120462A46FEF7A6FB0F
:10273000032120462A46FEF7A1FB042120462A4613
:10274000FEF79CFB052120462A46FEF797FB062153
:1027500020462A46FEF792FB072120462A46FEF72E
:102760008DFB7D20810001918101BA480068FDF751
:1027700015FD0199414301910198411E01910028E5
:102780000ED00198411E0191002809D00198411EE8
:102790000191002804D00198411E01910028EBD13D
:1027A00002B0B0BDB0B582B0FEF75CF8FEF7A0F89D
:1027B0006448FEF7B7FB0C2400211A4D20462A4638
:1027C000FEF75CFB022120462A46FEF757FB042158
:1027D00020462A46FEF752FB062120462A46FEF7EF
:1027E0004DFB7D208100019181019A480068FDF731
:1027F000D5FC0199414301910198411E01910028A6
:102800000ED00198411E0191002809D00198411E67
:102810000191002804D00198411E01910028EBD1BC
:1028200002B0B0BD543C000000000020F0B585B0FF
:10283000FEF718F8FEF75CF81020002135A2FEF72D
:102840001DFB0820022137A2FEF718FB3C4E05E0D5
:102850003078401C3070C0B27E2856D23548FEF722
:1028600061FB0020039005252946334AFEF706FB4D
:102870003F2002902946314AFEF700FB327830278C
:1028800038462946FEF730F932786724032301934E
:1028900020462946FEF75CFA2A48FEF743FB062548
:1028A00003982946244AFEF7E9FA02982946234A62
:1028B000FEF7E4FA327838462946FEF715F9327801
:1028C00020462946019BFEF743FA0A2004907D200A
:1028D0008101CC480068FDF761FC049941430491F3
:1028E0000498411E04910028B2D00498411E04911E
:1028F0000028ADD00498411E04910028A8D0049867
:10290000411E04910028EBD1A2E72020307005B0D1
:10291000F0BDC04642657374204D6F64756C65737D
:1029200000000000424D4433314D303930205445D1
:102930005354000026340000673C0000613C000056
:1029400008000020623600000000002070B582B050
:102950000120FEF7BDFA7D20850001958401A94E76
:1029600030682146FDF71AFC019941430191019815
:10297000411E019100280ED00198411E01910028AE
:1029800009D00198411E0191002804D00198411EF0
:1029900001910028EBD10020FEF79AFA01953068EA
:1029A0002146FDF7FBFB0199414301910198411E2E
:1029B000019100280ED00198411E0191002809D0F4
:1029C0000198411E0191002804D00198411E0191F7
:1029D0000028EBD10120FEF77BFA019530682146F3
:1029E000FDF7DCFB0199414301910198411E0191E2
:1029F00000280ED00198411E0191002809D00198AD
:102A0000411E0191002804D00198411E0191002827
:102A1000EBD10020FEF75CFA019530682146FDF706
:102A2000BDFB0199414301910198411E019100288C
:102A30000ED00198411E0191002809D00198411E35
:102A40000191002804D00198411E01910028EBD18A
:102A500002B070BD0000002070B582B007210020D8
:102A60000A460346FEF78CFC7D2085000195840113
:102A7000644E30682146FDF791FB01994143019175
:102A80000198411E019100280ED00198411E01912C
:102A9000002809D00198411E0191002804D0019816
:102AA000411E01910028EBD10020072101230A4695
:102AB000FEF766FC019530682146FDF76FFB019932
:102AC000414301910198411E019100280ED00198C7
:102AD000411E0191002809D00198411E0191002852
:102AE00004D00198411E01910028EBD1002007215C
:102AF0003F230A46FEF744FC019530682146FDF766
:102B00004DFB0199414301910198411E019100281B
:102B10000ED00198411E0191002809D00198411E54
:102B20000191002804D00198411E01910028EBD1A9
:102B3000072100200A460346FEF75AFA019530683D
:102B40002146FDF72BFB0199414301910198411E5C
:102B5000019100280ED00198411E0191002809D052
:102B60000198411E0191002804D00198411E019155
:102B70000028EBD10020072101230A46FEF738FA8E
:102B8000019530682146FDF709FB01994143019108
:102B90000198411E019100280ED00198411E01911B
:102BA000002809D00198411E0191002804D0019805
:102BB000411E01910028EBD1002007213F230A4646
:102BC000FEF716FA019530682146FDF7E7FA0199FC
:102BD000414301910198411E019100280ED00198B6
:102BE000411E0191002809D00198411E0191002841
:102BF00004D00198411E01910028EBD1FEF786FD1B
:102C000002B070BD0000002002E008C8121F08C119
:102C1000002AFAD170477047002001E001C1121F5D
:102C2000002AFBD17047000000000000007FE00098
:102C3000000000000000000000000001FFFFFFFE98
:102C40000000000000000000000007FFFFFFFFFF82
:102C5000FFC0000000000000000FFFFFFFFFFFFFAC
:102C6000FFFFFC00000000003FFFFFFFFFFFFFFF32
:102C7000FFFFFFFF8000007FFFFFFFFFFFFFFFFF61
:102C8000FFFFFFFFFFF07FFFFFFFFFFFFFFFFFFFE3
:102C9000FFFFFFFFFFFF7FFFFFFFFFFFFFFFFFFFC4
:102CA000FFFFFFFFDFFF7FFFFFFFFFFFFFFFFFFFD4
:102CB000FFFFFFE003FF7FFFFFFFFFFFFFFFFFFFBF
:102CC000FFFFF00001FF7FFFFFFFFFFFFFFFFFFFA0
:102CD000FFF0000000FF7FFFFFFFFFFFFFFFFFFF90
:102CE000F800000000FF7FFFFFFFFFFFFFFFFFFC7A
:102CF00000000000007F7FFFFFFFFFFFFFFFFE00DF
:102D000000000000007F7FFFFFFFFFFFFFFE0000CD
:102D100000000000007F7FFFFFFFFFFFFF000000BB
:102D200000000000007F7FFFFFFFFFFFFC000000AE
:102D300000000000007F7FFFFFFFFFFFFC0000009E
:102D400000000000007F7FFFFFFFFFFFFC0000008E
:102D500000000000007F7FFFFFFFFFFFFC0000007E
:102D60000000000000FF7FFFFFFFFFFFFC000000EE
:102D70000000000001FF7FFFFFFFFFFFFC000000DD
:102D800003FE000003FF7FFFFFFFFFFFFC000000CA
:102D90007FFF000007FF7FFFFFFFFFFFFC00000039
:102DA0007FFF00001FFF7FFFFFFFFFFFFC00000011
:102DB0007FFE00007FFF7FFFFFFFFFFFFC000000A2
:102DC0007FFC0000FFFF7FFFFFFFFFFFFC00000014
:102DD0007FF00003FFFF7FFFFFFFFFFFFC0000000D
:102DE0007F0000007FFF7FFFFFFFFFFFFC00000070
:102DF0007F00000003FF7FFFFFFFFFFFFC000000DC
:102E00007F000000007F7FFFFFFFFFFFFFFE00004D
:102E10007F000000003F7FFFFFFFFFFFFFFFC000BC
:102E20007F000000000F7FFFFFFFFFFFFFFFE000BC
:102E30007F000000000F7FFFFFFFFFFFFFFFF0009C
:102E40007F00000000077FFFFFFFFFFFFFFFF8008C
:102E50007F00000000077FFFFFFFFFFFFFFFF8007C
:102E60007F00000000037FFFFFFFFFFFFFFFF80070
:102E70007F00000000037FFFFFFFFFFFFFFFF80060
:102E80007F00000000077FFFFFFFFFFFFFFFF8004C
:102E90007F0FF00000077FFFFFFFFFFFFFFFF00045
:102EA0007FFFF80000077FFFFFFFFFFFFFFFF0003D
:102EB0007FFFF800000F7FFFFFFFFFFFFFFFC00055
:102EC0007FFFF000000F7FFFFFFFFFFFFFFF00000D
:102ED0007FFFE000001F7FFFFFFFFFFFFFF000000C
:102EE0007FFF8000003F7FFFFFFFFFFFFC0000002F
:102EF0007FF00000007F7FFFFFFFFFFFFC0000006E
:102F00007F00000000FF7FFFFFFFFFFFFC000000CD
:102F10007F00000003FF7FFFFFFFFFFFFC000000BA
:102F20007F00000007FF7FFFFFFFFFFFFC000000A6
:102F30007F0000001FFF7FFFFFFFFFFFFC0000007E
:102F40007F0000003FFF7FFFFFFFFFFFFC0000004E
:102F50007F000000FFFE7FFFFFFFFFFFFC0000007F
:102F60007F000003FF807FFFFFFFFFFFFC000000EA
:102F70007F00001FF0007FFFFFFFFFFFFC0000004D
:102F80007F0000FE000003FFFFFFFFFFFC000000CA
:102F90007F000F800000001FFFFFFFFFFC0000000C
:102FA0007F00F00000000000FFFFFFFFFC000000BA
:102FB0007F3E00000000000007FFFFFFFC00000054
:102FC0007FC0000000000000003FFFFFFC00000188
:102FD000F0000000000000000001FFFFFC00003EC8
:102FE000000000000000000000000FFFFC00078050
:102FF00000000000000000000000007FFC00F00066
:10300000000000000000000000000003FC1E0000A3
:103010000000000000000000000000001F80000011
:10302000000000000000000003E0000000000000BD
:1030300000000000000000003FFF00000000000052
:103040000000000000000001FFFFF0000000000091
:10305000000000000000001FFFFFFF8000000000D4
:1030600000000000000001FFFFFFFFF8000000006B
:103070000000000000001FFFFFFFFFFFC000000076
:10308000000000000000FFFFFFFFFFFFE000000066
:10309000000000000000FFFFFFFFFFFFE000000056
:1030A000000000000000FFFFFFFFFFE1E000000064
:1030B000000000000000FFFFFFFFFF00E000000035
:1030C000000000000000FFFFFFFFF800E00000002C
:1030D000000000000000FFFFFFFFC000E000000054
:1030E000000000000000FFFFFFFE0000E000000005
:1030F000000000000000FFFFFFF00000E00FFF03F2
:10310000FFE0FE1FFFC0FFFFFFC00000600FFFC316
:10311000FFE1FF1FFFC0FFFFFE000000600FC7E3DD
:10312000F0438381FC40FFFFFC000000600FC7E319
:10313000F0070180FC00FFFFFC000000E00FC3E38C
:10314000F00701C0FC00FFFFFC000000E00FC3E33C
:10315000F00701C0FC00FFFFFC000000E00FC3E32C
:10316000F00781C0FC00FFFFFC000000E00FC3E39C
:10317000F007C100FC00FFFFFC003C01E00FC3E3CF
:10318000F007F000FC00FFFFFC00FC01E00FC7C3EC
:10319000F007FC00FC00FFFFFC00FC03E00FCF8306
:1031A000FF87FE00FC00FFFFFC00FC07E00FFF03B1
:1031B000FF83FF00FC00FFFFFC00FC07E00FFFC3E4
:1031C000F001FF80FC00FFFFFC00F80FE00FC7E3F9
:1031D000F001FFC0FC00FFFFFC00F007E00FC3E3BD
:1031E000F0007FC0FC00FFFFFC00E001E00FC3F334
:1031F000F0003FC0FC00FFFFFC00E000E00FC3F365
:10320000F0060FC0FC00FFFFFF80E000600FC3F37B
:10321000F00E07E0FC00FFFFFFC0E000600FC3F30B
:10322000F00E03C0FC00FFFFFFE0E000200FC3F33F
:10323000F00603C0FC00FFFFFFE0E000200FC3F337
:10324000F00603C0FC00FFFFFFF0E000200FC7E323
:10325000F00703C0FC00FFFFFFF0E000200FFFE3DA
:10326000FFF3CF80FC00FFFFFFF0E000200FFFC363
:10327000FFF1FF00FC00FFFFFFF0E0002007FE036E
:10328000FFE0FC00FC00FFFFFFF0E7002000000073
:10329000000000000000FFFFFFE0FF002000000032
:1032A000000000000000FFFFFFE0FF002000000022
:1032B000000000000000FFFFFFE0FF0060000000D2
:1032C000000000000000FFFFFFC0FF0060000000E2
:1032D000000000000000FFFFFF00FE00600F3C7CCC
:1032E0007F1C4E0FC7C0FFFFFC00F800E00F3CEE54
:1032F000739C4E0E0CC0FFFFFC00E000E00F3CCEC4
:10330000739C4E0E0C40FFFFFC00E001E00F3DCF30
:10331000739C4E0E0E40FFFFFC00E001E00FFDC766
:10332000739C4E0F8F80FFFFFC00E003E00FFDC792
:10333000739C4E0FCFC0FFFFFC00E007E00FFDC7FE
:10334000739C4E0E07E0FFFFFC00E007E00FDDC7B7
:10335000739C4E0E09E0FFFFFC00E00F800DDDCEF8
:10336000739C4E0E08E0FFFFFC00E01E000DDCEE3B
:10337000739C4E0E08E07FFFFC00E030000D9CFEC9
:10338000771FCE0E0DC03FFFFC00E0C0000D9C7803
:103390007E0F8FEFE7800FFFFC00E30000000000CE
:1033A00000000000000003FFFC00EC000000000033
:1033B00000000000000000FFFC00F0000000000022
:1033C000000000000000003FFC00C0000000000002
:1033D000000000000000000FFC03000000000000DF
:1033E0000000000000000003FC0C000000000000D2
:1033F0000000000000000000FC6000000000000071
:1034000000000000000000003D80000000000000FF
:1034100000000000000000000E000000000000009E
:10342000000000000000060800000000000000008E
:10343000002F000000000700070000147F147F1415
:1034400000242A7F2A12006264081323003649559B
:10345000225000000503000000001C224100000073
:1034600041221C000014083E08140008083E080809
:10347000000000A060000008080808080000606064
:103480000000002010080402003E5149453E0000A3
:10349000427F4000004261514946002141454B3185
:1034A000001814127F10002745454539003C4A4951
:1034B00049300001710905030036494949360006C3
:1034C0004949291E0000363600000000563600002B
:1034D00000081422410000141414141400004122A6
:1034E000140800020151090600324959513E007C7E
:1034F0001211127C007F49494936003E4141412268
:10350000007F4141221C007F49494941007F090950
:103510000901003E4149497A007F0808087F000000
:10352000417F4100002040413F01007F08142241BB
:10353000007F40404040007F020C027F007F040873
:10354000107F003E4141413E007F09090906003ECF
:103550004151215E007F09192946004649494931F8
:103560000001017F0101003F4040403F001F20401B
:10357000201F003F4038403F0063140814630007D9
:103580000870080700615149454300007F41410030
:1035900000552A552A55000041417F0000040201D0
:1035A00002040040404040400000010204000020AE
:1035B00054545478007F48444438003844444420EC
:1035C00000384444487F00385454541800087E0999
:1035D00001020018A4A4A47C007F08040478000061
:1035E000447D4000004080847D00007F102844001E
:1035F0000000417F4000007C04180478007C08042F
:10360000047800384444443800FC2424241800186A
:10361000242418FC007C0804040800485454542056
:1036200000043F444020003C4040207C001C2040DF
:10363000201C003C4030403C004428102844001C22
:10364000A0A0A07C004464544C4400000877000013
:103650000000007F00000000770800000010081044
:10366000080008100000000000000000000000003A
:1036700000000000000000F800000000000000331F
:103680003000000000100C06100C060000000000C6
:103690000000000040C07840C0784000043F0404AF
:1036A0003F040400007088FC08300000001820FF70
:1036B000211E0000F008F000E018000000211C03AB
:1036C0001E211E0000F00888700000001E21232427
:1036D0001927211010160E00000000000000000045
:1036E00000000000000000E01804020000000007D5
:1036F0001820400000020418E000000000402018DC
:1037000007000000404080F0804040000202010FAE
:1037100001020200000000F0000000000101011F92
:1037200001010100000000000000000080B07000F6
:103730000000000000000000000000000001010186
:103740000101010100000000000000000030300015
:1037500000000000000000008060180400601806EF
:103760000100000000E010080810E000000F102029
:1037700020100F00001010F8000000000020203F73
:1037800020200000007008080888700000302824FD
:10379000222130000030088888483000001820209E
:1037A00020110E000000C02010F8000000070424C3
:1037B000243F240000F80888880808000019212008
:1037C00020110E0000E0108888180000000F112062
:1037D00020110E0000380808C83808000000003F1B
:1037E000000000000070880808887000001C22217A
:1037F00021221C0000E010080810E0000000312227
:1038000022110F00000000C0C000000000000030C6
:103810003000000000000080000000000000806018
:103820000000000000008040201008000001020499
:103830000810200040404040404040000404040480
:10384000040404000008102040800000002010083C
:1038500004020100007048080808F0000000003071
:1038600036010000C030C828E810E00007182724FF
:1038700023140B000000C038E0000000203C2302AD
:103880000227382008F8888888700000203F202010
:1038900020110E00C0300808080838000718202042
:1038A0002010080008F808080810E000203F202039
:1038B00020100F0008F88888E8081000203F20201A
:1038C0002320180008F88888E8081000203F20000E
:1038D00003000000C0300808083800000718202046
:1038E000221E020008F808000008F808203F210105
:1038F00001213F20000808F8080800000020203FB0
:103900002020000000000808F8080800C08080801F
:103910007F00000008F888C028180800203F200118
:103920002638200008F8080000000000203F202072
:103930002020300008F8F800F8F80800203F003F89
:10394000003F200008F830C00008F808203F2000A1
:1039500007183F00E01008080810E0000F102020B2
:1039600020100F0008F808080808F000203F210187
:1039700001010000E01008080810E0000F182424DE
:1039800038504F0008F8888888887000203F200051
:10399000030C302000708808080838000038202107
:1039A00021221C00180808F8080818000000203F11
:1039B0002000000008F808000008F808001F202078
:1039C00020201F000878880000C838080000073849
:1039D0000E010000F80800F80008F800033C07009A
:1039E000073C0300081868808068180820302C0302
:1039F000032C30200838C800C83808000000203FD9
:103A00002000000010080808C838080020382621C7
:103A100020201800000000FE020202000000007FCB
:103A200040404000000C30C00000000000000001D9
:103A30000638C00000020202FE00000000404040C4
:103A40007F000000000004020202040000000000E9
:103A50000000000000000000000000008080808066
:103A6000808080800002020400000000000000004E
:103A700000000000000080808080000000192422E7
:103A800022223F2008F8008080000000003F112023
:103A900020110E000000008080800000000E112028
:103AA00020201100000000808088F800000E112006
:103AB00020103F200000808080800000001F222214
:103AC00022221300008080F0888888180020203F80
:103AD000202000000000808080808000006B949493
:103AE0009493600008F8008080800000203F21004F
:103AF00000203F2000809898000000000020203F18
:103B000020200000000000809898000000C0808005
:103B1000807F000008F8000080808000203F2402A1
:103B20002D302000000808F8000000000020203F91
:103B3000202000008080808080808000203F200046
:103B40003F20003F8080008080800000203F2100D7
:103B500000203F200000808080800000001F202087
:103B600020201F00808000808000000080FFA120B6
:103B700020110E000000008080808000000E1120C7
:103B800020A0FF80808080008080800020203F2156
:103B90002000010000008080808080000033242409
:103BA00024241900008080E0808000000000001FB5
:103BB000202000008080000000808000001F202066
:103BC00020103F20808080000080808000010E3027
:103BD0000806010080800080008080800F300C0388
:103BE0000C300F0000808000808080000020312E8B
:103BF0000E312000808080000080808080818E7067
:103C00001806010000808080808080000021302C18
:103C10002221300000000000807C02020000000031
:103C2000003F404000000000FF00000000000000D6
:103C3000FF0000000002027C800000000040403FC6
:103C40000000000000060101020204040000000060
:103C50000000000048656C6C6F20576F726C642127
:103C600000434F44453A0041534349493A0000005C
:103C7000903C0000000000200C000000082C000018
:103C80009C3C00001000002020090000182C0000BF
:0C3C9000008793030100000020000000EA
:04000005000000C136
:00000001FF
