:020000040000FA
:1000000010020020C10000003506000015060000A7
:10001000FFFFFFFFFFFFFFFFFFFFFFFFFFFFFFFFF0
:10002000FFFFFFFFFFFFFFFFFFFFFFFFC90800000B
:10003000FFFFFFFFFFFFFFFF79070000CB08000075
:1000400035010000110800003501000035010000F5
:1000500035010000350100003501000035010000C8
:1000600035010000350100003501000035010000B8
:1000700035010000350100003501000035010000A8
:100080003501000035010000350100003501000098
:100090003501000035010000350100003501000088
:1000A0003501000035010000350100003501000078
:1000B0003501000035010000350100003501000068
:1000C0001D4880471D4880471D4800471D4801695D
:1000D000002908D14169002905D18169002902D18F
:1000E000C169002909D01848C1680901090D002912
:1000F0000ED005290CD006290AD0BFF34F8F134824
:100100001349016013491248C860BFF34F8FFEE7DF
:100110000E4801680E48884200D070470E480F49CB
:1001200001600A480E4901607047FEE7FEE7FEE7FE
:10013000FEE7FEE7FEE70000CD000000CD0800006E
:100140006501000000030840800108400000002015
:100150000400FA0500ED00E0008108400100000005
:10016000000000000348854600F026F800480047DC
:100170001D0C00001002002070B50446002903D0B9
:1001800000202022012310E0002801D00020C043DD
:10019000C046C0460DE02546D5408D4205D30D46EC
:1001A0009540641B1D46954040191546521E002D72
:1001B000F1DC214670BD00001CB5094800900948DB
:1001C000019005460126009C05E0E36807CC334317
:1001D0000C3C98471034AC42F7D3FFF7C7FF000040
:1001E00090110000B0110000F0B58EB0C0005C4B63
:1001F000C4180F23180207901803089018040990D8
:1002000018050A9018060B9018070C900E060D940E
:1002100052D00120084045422F461F4088070590D4
:1002200000D5F0374807049001D507980743080721
:10023000039001D508980743C806029001D5099894
:1002400007438806019001D50A98074348060090A5
:1002500003D530460B9E374306460696002E01D541
:100260000C9E37430D9C2468BC4317010598C617A4
:100270003E401540354316020498C71737402F43B8
:1002800015030398C6172E403E4315040298C7175E
:100290002F40374315050198C6172E403E431506DB
:1002A0000098C017284030431507069EF6172E40C9
:1002B000064326430D9C26600E04300E41D0C8052F
:1002C000C7173B408805069000D5F03348050590D8
:1002D00001D5079803430805079001D50898034303
:1002E000C80408902FD4880431D4490433D4002E94
:1002F00001D50C9D2B4365689D431301069CE417B3
:100300001C40174027431302059CE4171C403C4344
:100310001303079FFF171F4027431304089CE4178C
:100320001C403C431305C017184020431306C9174F
:10033000194001431007F21702400A432A430D985F
:1003400042600EB0F0BD099803438804CDD50A9DE4
:100350002B434904CBD50B9D2B43002EC9D4CAE7B0
:1003600020200240024909680840411E8841704728
:100370000880084070B541098900234BC9180A6AF2
:10038000D9691C46183C246807240C405D6819464E
:1003900014390968890501D4002110E01968C900E1
:1003A000CE0F1A49F140002D09D41D682D01ED0E24
:1003B00000D1102569431D686D02AD0FE940641E30
:1003C000062C09D87C4424796400A7440C03030557
:1003D00005070A000D4906E0002104E00121C903D8
:1003E00001E07D2109021F2404400325A5402A4085
:1003F000E2402E2800D1921C9868052800D30520E1
:10040000C140D140084670BD1880084000127A00F3
:1004100070B50C4C2568002B01D0054300E08543E6
:10042000A668E0682560002B01D00E4300E08E43F3
:10043000A660002B02D01043E06070BD9043E060E6
:1004400070BDC04624800840002A03D002680A43D9
:100450000260704702688A4302607047F0B5002569
:100460002C462B4603E0090A1035202D5ED0CE071E
:100470000ED18E0714D44E071BD40E0722D4CE06FD
:1004800029D48E0632D44E063BD40E06EBD543E07B
:100490000326AE4034431646AE4033438E07EAD5BA
:1004A0000C26AE403443AE1C1746B7403B434E07C4
:1004B000E3D53026AE4034432E1D1746B7403B43AC
:1004C0000E07DCD5C026AE403443AE1D1746B740FC
:1004D0003B43CE06D5D503263602AE4034432E46E6
:1004E00008361746B7403B438E06CCD50326B602E6
:1004F000AE4034432E460A361746B7403B434E06BD
:10050000C3D503263603AE4034432E460C36174679
:10051000B7403B430E06A6D50326B603AE40344390
:100520002E460E361746B7403B439CE74169A14330
:100530004161416919434161F0BDB0B58468254608
:100540008D43C368012A04D08B43002A02D10C4397
:1005500001E00B432C468460C360B0BDF0B581B0B0
:100560000E46412001020025012428462A46234642
:10057000FFF74EFF2102062728463A46FFF734FED2
:10058000A10228463A46FFF72FFEA7073846314614
:1005900000F0EAFA38462946224600F02EFB38469B
:1005A0002146224600F029FB01B0F0BDF0B581B034
:1005B00005460124A004A10300222346FFF728FFDB
:1005C000680012490D5A0226304629462246FFF796
:1005D0000BFE094FBD62384629463246FFF7ADFF94
:1005E000384629462246FFF739FF38462946224633
:1005F000FFF72AFF01B0F0BD00400B404000034967
:10060000085A03490A6842400A60704728110000EE
:1006100020400B4006480168002908D101680029E4
:1006200005D10168002902D101680029F3D0704783
:1006300008000020704700003349344A1368002046
:10064000272B5ED01368272B5BD01368272B58D03D
:100650001368272B55D01368272B52D01368272BEC
:100660004FD01368272B4CD01368272B49D0136821
:10067000272B46D01368272B43D01368272B40D055
:100680001368272B3DD01368272B3AD01368272BEC
:1006900037D01368272B34D01368272B31D0136839
:1006A000272B2ED01368272B2BD01368272B28D06D
:1006B0001368272B25D01368272B22D01368272BEC
:1006C0001FD01368272B1CD01368272B19D0136851
:1006D000272B16D01368272B13D01368272B10D085
:1006E0001368272B0DD01368272B0AD01368272BEC
:1006F00007D01368272B04D0203103D01368272B91
:100700009CD170470120704700CA91FE08A10640A5
:100710000F48012101600F4902680A4212D00268A5
:100720000A420FD002680A420CD002680A42F3D192
:1007300008E00A68002A09D00A68002A06D0096879
:10074000002903D0011F0A68002AF2D17047C04671
:1007500004A10640FFEFFFFF0148006880B2704728
:1007600000A1064080000349405870478000014ABC
:100770008150704700A20640704780B584B069463A
:10078000002008810390012212020192E12252020C
:100790000092FFF7E3FE04B080BD000037490A680D
:1007A00002239A434000104308607047411E88416D
:1007B00032490A6801239A43101808607047C046FE
:1007C00010B5FFF7A5FF0124204600F047F82046AA
:1007D00000F03AF81020FFF7C5FD0028FAD00124F8
:1007E0002046FFF7DBFF2046214600F01FF80F20D0
:1007F000000200F03BF810BD014800687047C04699
:1008000000A0064001480068C0B270470CA0064036
:1008100080B5FFF7F7FFC00702D003480121016050
:100820000020FFF7EBFE80BD0C000020054A0029E8
:1008300003D0116801431160704711688143116052
:100840007047C04610A00640411E8841C0000B49B9
:100850000A6808239A4310180860704707490A6815
:1008600020239A4340011043086070470F2109027A
:10087000024A13688B4303431360704708A0064085
:1008800010B5012084072021204600F067F90028D8
:10089000F9D0204600F0AEF910BD000009490A4623
:1008A000103AC3B21360012212020B68134208D13E
:1008B0000B68134205D10B68134202D10B68134237
:1008C000F3D070471000004070477047F0B586B015
:1008D00059481021059101605849C86A4022039285
:1008E0001043C86256480268272A08D00268272A9F
:1008F00005D00268272A02D00268272AF3D10324F0
:10090000A0020A6A82430A620122D0020B680343F2
:100910000B604868000708D44868000705D4486899
:10092000000702D448680007F3D508680494204300
:100930000423029398430860086B0724204003288F
:100940000BD0086B2040032807D0086B20400328F9
:1009500003D0086B20400328EED13A4B18681043AF
:1009600006250195A843186000200090C861570231
:100970000868B84308601302081F05681D43056036
:100980000D680826B5430D6005683D430560950276
:100990000E682E430E604D686D0708D44D686D07D4
:1009A00005D44D686D0702D44D686D07F3D5CD6A47
:1009B000039EB543CD620F25ED054D6115074E69C8
:1009C0002E434E6105689D43056008683843086002
:1009D0004868800708D44868800705D448688007BD
:1009E00002D448688007F3D5164D2868049B184345
:1009F000029B984328600098C86108681043019BD7
:100A000098430860086B204001280BD0086B2040F9
:100A1000012807D0086B2040012803D0086B204034
:100A20000128EFD128680599084328601003296838
:100A30000143296006B0F0BD0C81084004800840E5
:100A400008A106400002084070B52F4800F094F954
:100A50002EA000F091F9334800F056FBFFF710FF8D
:100A6000C0B23038002409280AD80A2161430C1882
:100A7000FFF706FFC0B230380A28F6D3172CEDD89E
:100A80002948214600F078F928A000F075F925489A
:100A900000F03AFBFFF7F4FEC0B230380025092819
:100AA0000AD80A2169430D18FFF7EAFEC0B23038B0
:100AB0000A28F6D33B2DEDD81B48294600F05CF9F7
:100AC00020A000F059F9174800F01EFBFFF7D8FEF0
:100AD000C0B23038002609280AD80A2171430E18FE
:100AE000FFF7CEFEC0B230380A28F6D33B2EEDD841
:100AF0000D48314600F040F93C206843E1210901EE
:100B000061434018801970BD441100000D0A202077
:100B1000506C656173652053657420486F757273FE
:100B20000000000042110000871100000D0A202083
:100B3000506C6561736520536574204D696E7574E2
:100B4000657300000D0A2020506C656173652053A9
:100B50006574205365636F6E64730000006908401C
:100B6000411E884170470000B0B50D4604464068FC
:100B700019490140E8880843A988014328890843A6
:100B8000E96801436160002014498C420BDC0121BB
:100B900089078C4212D015498C4213D014498C42DB
:100BA00015D1082011E00E498C4209D00D498C4224
:100BB0000AD00D498C420AD11A2006E0182004E020
:100BC0000A2002E01C2000E01E20FFF7D3FB29686A
:100BD000FFF7D2FA6062B0BDFCE0FFFFFFFF034009
:100BE00000200440001004400000044000100040B9
:100BF00000200040006880B2704710238B40002A1C
:100C000003D041681943416070474168994341608E
:100C1000704780B5FFF742FE80BD000000204022F3
:100C200001230146FFF7F4FBFFF706FD002800D083
:100C3000FEE70020FFF7BAFCFFF79FFD29480221DD
:100C40000160FFF789FD012802D127A000F094F888
:100C500000242046FFF786FD2B4DA84203D139A082
:100C600000F08AF815E029A000F086F8FFF7A8FD4B
:100C70002EA000F081F8FFF7E7FE0146012630467E
:100C8000FFF774FD00202946FFF770FD3046FFF79F
:100C90008DFD344800F038FA334E30680128FCD11D
:100CA000FFF7AAFD07460120FFF75CFDC0192F4999
:100CB000FFF762FA0F46E120050108462946FFF7D3
:100CC0005BFA01464543781B82B2294B5A43520DC9
:100CD0003C235343C01A83B2264800F04DF83460D9
:100CE000DBE7C04600E100E00D0A0A20506F77659F
:100CF00072204F6E205265736574206F6363757246
:100D00007265642E2E2E2E005AA500000D0A0A20B0
:100D1000525443206E6F742079657420636F6E6641
:100D20006967757265642E2E2E2E00000D0A205202
:100D3000544320636F6E666967757265642E2E2E4C
:100D40002E0000000D0A204E6F206E656564207431
:100D50006F20636F6E666967757265205254432E0B
:100D60002E2E2E00421100000C00002080510100A8
:100D7000898800002E1100000FB410B503A9044BA0
:100D8000044A029800F018F810BC08BC04B01847D8
:100D9000130C00000000002002E008C8121F08C168
:100DA000002AFAD170477047002001E001C1121FEC
:100DB000002AFBD170470000FFB58FB00546002622
:100DC00006E025280AD0129A119990476D1C761CCE
:100DD00028780028F5D1304613B0F0BD00240294E5
:100DE0000121B54A009400E004436D1C2B780846AD
:100DF000203B98401042F7D128782A280ED00222B2
:100E0000287801463039092916D802990A2359430E
:100E10003039401814436D1C0290F1E7109802C855
:100E200002911090002904DA012040030443484253
:100E30000290022004436D1C28782E2817D104202C
:100E4000044368786D1C2A280CD110986D1C02C8C8
:100E5000009110900BE000990A225143303940185C
:100E60006D1C00902878014630390929F3D928787B
:100E70006C2810D006DC4C281AD068280ED06A28BE
:100E800017D104E0742813D07A2812D110E0012081
:100E9000400504430CE00121090501E00321090597
:100EA0000C436978814203D10120000524186D1C90
:100EB0006D1C2878692874D006DC00288BD0632844
:100EC00027D0642806D16CE06E2808D073282CD077
:100ED000752878D0129A11999047761C5FE06002CD
:100EE000400F022809D003280DD00428109801686B
:100EF0000DD00E60001D109051E01098F21701689F
:100F00000E604A60F6E7109801680E80F2E70E70F6
:100F1000F0E710986A4601781173001D10900020C8
:100F2000507303A80190012005E0109802C80191B8
:100F300010900020C04361070CD5002700E07F1C03
:100F400000998F420FDA8742F9DB0199C95D0029C8
:100F5000F5D108E0002700E07F1C8742FCDB019907
:100F6000C95D0029F8D102982146C01B0290129B4E
:100F7000119A00F0B3F88019C61907E00198019999
:100F80000078491C0191129A119990477F1EF5D261
:100F90002146129B119A029800F090F886196D1C58
:100FA00016E70A200190109901C910916102490FBA
:100FB000032900D100B2042900D140B2002803DA8D
:100FC00040422D2103E00DE0210504D52B216A4686
:100FD0001173012103E0E10711D02021F7E70CAFE5
:100FE0000C9114E00A200190109901C9109161023E
:100FF000490F032900D180B2042900D1C0B20021D9
:10100000EDE70199FFF7B8F830317F1E39700028FD
:10101000F7D104A8C01B20300190600704D501203F
:1010200000048443009801E0012000900199884267
:1010300001DD401A00E00020411800900C980918CA
:101040000298401A0290E00306D42146129B119A9E
:10105000029800F043F8861900200D9008E003A9DB
:10106000085C129A119990470D98401C761C0D90BF
:101070000C998842F3DBE0030CD52146129B119AB0
:10108000029800F02BF8861904E0129A302011998A
:101090009047761C0099481E00900029F5DC05E079
:1010A0003878129A7F1C11999047761C0199481E36
:1010B00001900029F4DC6BE709280100F8B504462B
:1010C00000251E461746880404D405E03946202032
:1010D000B0476D1C641EF9D52846F8BDFFB504461F
:1010E000002581B01E46C80301D5302700E0202727
:1010F000880404D505E038460399B0476D1C641E8A
:10110000F9D5284605B0F0BD10B5044601E0FFF75B
:1011100080FD2078641C03490028F8D10A20FFF7DD
:1011200078FD10BD00000020000800010004546993
:101130006D653A20253032753A253032753A2530C2
:1011400032750D000D0A3D3D3D3D3D3D3D3D3D3D72
:101150003D3D3D3D54696D652053657474696E670E
:10116000733D3D3D3D3D3D3D3D3D3D3D3D3D3D3D79
:101170003D3D3D3D3D3D3D3D3D3D3D3D3D3D3D3D9F
:101180003D3D3D3D3D3D003A2020257500000000DD
:10119000B01100000000002004000000980D0000C5
:1011A000B41100000800002008020000A80D000093
:0411B000000000003B
:04000005000000C136
:00000001FF
