:020000040000FA
:10000000D8070020C10000002B01000051130000A0
:10001000FFFFFFFFFFFFFFFFFFFFFFFFFFFFFFFFF0
:10002000FFFFFFFFFFFFFFFFFFFFFFFF2F010000AC
:10003000FFFFFFFFFFFFFFFF31010000B91C0000C1
:1000400035010000350100003501000035010000D8
:1000500035010000350100003501000035010000C8
:1000600035010000350100003501000035010000B8
:1000700035010000350100003501000035010000A8
:100080003501000035010000350100003501000098
:100090003501000035010000350100003501000088
:1000A0003501000035010000350100003501000078
:1000B00035010000952900003501000035010000E0
:1000C0001D4880471D4880471D4800471D4801695D
:1000D000002908D14169002905D18169002902D18F
:1000E000C169002909D01848C1680901090D002912
:1000F0000ED005290CD006290AD0BFF34F8F134824
:100100001349016013491248C860BFF34F8FFEE7DF
:100110000E4801680E48884200D070470E480F49CB
:1001200001600A480E4901607047FEE7FEE7FEE7FE
:10013000FEE7FEE7FEE70000CD000000C91C00005E
:100140006501000000030840800108400000002015
:100150000400FA0500ED00E0008108400100000005
:10016000000000000348854600F026F800480047DC
:100170006D2E0000D807002070B50446002903D07A
:1001800000202022012310E0002801D00020C043DD
:10019000C046C0460DE02546D5408D4205D30D46EC
:1001A0009540641B1D46954040191546521E002D72
:1001B000F1DC214670BD00001CB5094800900948DB
:1001C000019005460126009C05E0E36807CC334317
:1001D0000C3C98471034AC42F7D3FFF7C7FF000040
:1001E0001431000034310000F0B58EB0C0005C4B1B
:1001F000C4180F23180207901803089018040990D8
:1002000018050A9018060B9018070C900E060D940E
:1002100052D00120084045422F461F4088070590D4
:1002200000D5F0374807049001D507980743080721
:10023000039001D508980743C806029001D5099894
:1002400007438806019001D50A98074348060090A5
:1002500003D530460B9E374306460696002E01D541
:100260000C9E37430D9C2468BC4317010598C617A4
:100270003E401540354316020498C71737402F43B8
:1002800015030398C6172E403E4315040298C7175E
:100290002F40374315050198C6172E403E431506DB
:1002A0000098C017284030431507069EF6172E40C9
:1002B000064326430D9C26600E04300E41D0C8052F
:1002C000C7173B408805069000D5F03348050590D8
:1002D00001D5079803430805079001D50898034303
:1002E000C80408902FD4880431D4490433D4002E94
:1002F00001D50C9D2B4365689D431301069CE417B3
:100300001C40174027431302059CE4171C403C4344
:100310001303079FFF171F4027431304089CE4178C
:100320001C403C431305C017184020431306C9174F
:10033000194001431007F21702400A432A430D985F
:1003400042600EB0F0BD099803438804CDD50A9DE4
:100350002B434904CBD50B9D2B43002EC9D4CAE7B0
:1003600020200240F0B585B0584800260670584855
:100370000670584806600225012404942846294640
:100380002246FFF731FFA103019130462246FFF7D5
:100390002BFF6702284639462246FFF725FFE10377
:1003A000029130462246FFF71FFFE10200912846E6
:1003B0002246FFF719FF484C206828432060EE438F
:1003C000606830406060A56238460C3802F096FCE8
:1003D0006562206828432060606830406060A562E4
:1003E0003E480168019A11430160416891434160B0
:1003F00042622168394321606168B9436160676284
:100400002168009A9143216061681143616001682D
:10041000029A9143016041681143416008262846D1
:1004200003953146049F3A46FFF7DEFE2068B0434D
:100430002060606830436060A0683043A0600320A3
:10044000102631463A46FFF7CFFEF2430292244887
:100450000168114001604168314341608168314366
:100460008160042728463946049D2A46FFF7BCFED2
:100470002068B8432060606838436060A0683843F3
:10048000A0602027039839462A46FFF7ADFE206872
:10049000B8432060606838436060A0683843A0605B
:1004A000039831462A46FFF79FFE206802990840CC
:1004B0002060606830436060A0683043A0607D20A9
:1004C000C00002F01BFC05B0F0BDC0464900002092
:1004D0004A0000204400002000400B4000000B4078
:1004E00000600B40F0B599B0012001021891810223
:1004F00006910190C6020021CD4C169610E0E32033
:1005000002F0E9F900200990C94C322002F094FC75
:100510000999491C30463138814201D900F057FE13
:10052000099102F0B3F90028EFD0032520462946AF
:1005300002F0C0F960782178AA291CD123281AD1A9
:100540001795022014902056BA4D2870811CE01C8B
:1005500002F0B0F90027E8570119C978C0B2421C6F
:10056000D3B29342B44D52D11591032825D2B0494C
:100570008C1C002739E0002209925529C5D1232877
:10058000C3D1179502202056AC4D2870811CE01C69
:10059000149002F08FF90027E8570119C9781591D6
:1005A000C2B2531CD9B29942A34D00D025E2032A0E
:1005B00000D3F9E1A61C00270FE2FC2616409C4957
:1005C0008C1C00273B4621787940695C67784F4056
:1005D000E95DA7784F40E95DE7784F40EF5D241D66
:1005E0001B1DD9B2B142EED1169E17990A4015993A
:1005F0000DD0217879406F5C012A07D0617879406D
:100600006F5C022A02D0A17879406F5C1599B942DB
:1006100000D074E700250528189C00D126E10628A3
:10062000874F00D0BEE1824BD878432141401879F2
:100630004F2242400A4358794D2141401143CCB2E8
:1006400061426141187ADA799B79002C00D00DE281
:10065000532B00D00AE2502A00D007E2492800D0EC
:1006600004E2149C3C601898F430029002F046FBBF
:10067000381F129004603D46283D286820432860BA
:100680003B46243B1868A04318603C60012017904B
:10069000C20310926B4C20681043206060686A4966
:1006A00008406060A26217984202286810432860E0
:1006B000186866490840186003923A6028680699ED
:1006C000084328601868624A10401860396028683A
:1006D0003043286018685F49084018603E60286809
:1006E000189A10430895286018685B4908400793DA
:1006F00018603A601546052002F000FB2068524958
:10070000084020606068109908436060179802F004
:10071000F5FA129C14982060266002F0EFFA25602A
:100720000EE0169E1E600899086820430860079A2C
:100730001068494908401060A8B2022800D1AAE117
:100740003E60A02002F078FB12980660542002F070
:1007500073FB0020414C3E4614E01899316002279B
:10076000384602F069FB364E169D3560384602F079
:1007700063FB129805606400394804401799481CCF
:100780000B2905D2179010980442E6D0129EE4E798
:100790000597331F189C1C6032490878401C08706C
:1007A000C0B2052800D172E13746089A10682A497C
:1007B00008401060079908682043086000252A480F
:1007C000057016983060119309E00421149AD14005
:1007D000159D0D43C0B20328194F119BA1D2159549
:1007E000169E1E601C460125284602F025FB3E6031
:1007F000284602F021FB0C3F1797386813901A4FD8
:1008000038781490284602F017FB2660284602F03C
:1008100013FB3878401C38701899139A0A42189CB8
:10082000D3D10D49FC31149A1141159D0D40D1E7EA
:100830009003002030000020822F00008903002058
:1008400028400B4000000B40FF7FFFFFFFFDFFFF34
:10085000FFFBFFFFFFF7FFFFFFFEFFFFA04A0000C7
:10086000C0FF0100880300204B0000200995A84923
:10087000C8784328A74F00D00BE108794F2800D053
:1008800007E148794D2800D003E18879432800D05A
:10089000FFE0C879452800D036E601F07DF90698DA
:1008A00038603E603C600125284602F0C5FA3C1FD6
:1008B00026603E460C3E3068284602F0BDFA169887
:1008C00038601698386018982060284602F0B4FA0C
:1008D000169820603068284602F0AEFA1698386004
:1008E0001698386018982060284602F0A5FA1698E5
:1008F00020603068284602F09FFA169838601698F3
:10090000386018983860284602F096FA16982060E9
:100910003068284602F090FA1698386016983860C9
:1009200018983860284602F087FA169820603068D8
:10093000284602F081FA16983860169838601898A0
:100940003860284602F078FA169820603068284609
:1009500002F072FA16983860169838601898386065
:10096000284602F069FA169820603068284602F09E
:1009700063FA1698386016983860189838602846D8
:1009800002F05AFA169820603068169E284602F047
:1009900053FA3E600698206001F010F83E2001F006
:1009A0009AFFB1E50995AFE51392FC211940A61C09
:1009B00000273C4632787A40AA5C77785740EA5D57
:1009C000B7785740EA5DF7785740EF5D361D241D34
:1009D000E2B28A42EED14E4C139A17990B400CD0DA
:1009E000317879406F5C012B07D0717879406F5C6A
:1009F000022B02D0B17879406F5C1599B9421FD1B2
:100A00001546454A1168091811603F230B40434EB3
:100A10003370434C21683B2B15D8C01A82B2149F07
:100A2000384600F0C1FC00203E4D29567818327837
:100A3000801A23685918891A00F0B6FC169E09E03E
:100A4000E320169E0DE068B282B2149800F0ACFC70
:100A5000169E344D002028562168081820603E203C
:100A60002B4C01F038FF002009904EE509954F3BD3
:100A70005C425C412140012900D045E5522A244CCA
:100A800000D042E54428189D00D03EE5A2E3264868
:100A900067E30C4639E500212448159101803E604A
:100AA0000225284602F0C8F911980660284602F08F
:100AB000C3F91E490888401C088080B2400AEED065
:100AC0000A950899086820430860079A1068184931
:100AD00008401060144815990170119D2C60202663
:100AE00011E018990160169C3C60012002F0A4F905
:100AF0002C600424204602F09FF91599481C7608C2
:100B00000B29159016D2F0073846EAD02846E8E7B8
:100B10009003002028400B408C0300208A03002013
:100B2000440000208903002088030020500000209A
:100B3000FFFEFFFF04940024204602F0CDF920467A
:100B400002F0CAF9072002F0C7F90994204602F022
:100B5000C3F9089B1868069C20431860079D286805
:100B6000124A10402860391F0C601868169E3043E6
:100B7000186028680E4A104028603E601868189C6B
:100B80002043186028680B4A104028600C601868E1
:100B9000094A104018602868039A104328600B9196
:100BA000069808600A2002F0A9F807E0FFFBFFFFA3
:100BB000FFF7FFFFFFFEFFFFFFFDFFFF0698386016
:100BC0003E603C600125284602F036F90B9C266009
:100BD00017980068284602F02FF93E603E6018988A
:100BE0002060284602F028F92660179800682846F9
:100BF00002F022F93E603E6018983860284602F004
:100C00001BF9266017980068284602F015F93E6027
:100C10003E6018982060284602F00EF9266017986A
:100C20000068284602F008F93E603E60189820608F
:100C3000284602F001F9266017980068284602F05D
:100C4000FBF83E603E6018983860284602F0F4F8E1
:100C5000266017980068284602F0EEF83E603E6075
:100C600018982060284602F0E7F826601798006878
:100C7000284602F0E1F83E603E6018983860284649
:100C800002F0DAF8266017980068284602F0D4F8D7
:100C90003E603E6018983860284602F0CDF8266025
:100CA00017980068284602F0C7F83E603E60189822
:100CB0003860284602F0C0F8266017980068284679
:100CC00002F0BAF83E603E6018983860284602F09C
:100CD000B3F8266017980068284602F0ADF83E6029
:100CE0003E6018983860284602F0A6F826601798EB
:100CF0000068284602F0A0F83E603E601898386010
:100D0000284602F099F8266017980068284602F0F5
:100D100093F83E603E6018983860284602F08CF8E0
:100D2000266017980068284602F086F83E603E600C
:100D300018983860284602F07FF8266017980068F7
:100D4000284602F079F83E603E60189838602846E0
:100D500002F072F8266017980068284602F06CF8D6
:100D60003E603E6018983860284602F065F82660BC
:100D700017980068284602F05FF83E603E601898B9
:100D80003860284602F058F8266017980068284610
:100D900002F052F83E603E6018983860284602F033
:100DA0004BF8266017980068284602F045F83E6028
:100DB0003E6018983860284602F03EF82660179882
:100DC0000068284602F038F83E603E6018983860A7
:100DD000284602F031F8266017980068284602F08D
:100DE0002BF83E603E6018983860284602F024F8E0
:100DF000266017980068284602F01EF83E603E60A4
:100E000018983860284602F017F82660179800688E
:100E1000284602F011F83E603E6018983860284677
:100E200002F00AF8266017980068284602F004F8D5
:100E30003E603E6018983860284601F0FDFF26604D
:100E400017980068284601F0F7FF3E603E6018984A
:100E50003860284601F0F0FF2660179800682846A1
:100E600001F0EAFF3E603E6018983860284601F0C5
:100E7000E3FF266017980068284601F0DDFF3E601A
:100E80003E6018983860284601F0D6FF2660179813
:100E90000068284601F0D0FF3E603E601898386038
:100EA000284601F0C9FF266017980068284601F01F
:100EB000C3FF3E603E6018983860284601F0BCFFD2
:100EC000266017980068284601F0B6FF3E603E6035
:100ED00018983860284601F0AFFF26601798006820
:100EE000284601F0A9FF3E603E6018983860284609
:100EF00001F0A2FF266017980068284601F09CFFC9
:100F00003E603E6018982060284601F095FF2660FC
:100F100017980068284601F08FFF3E603E601898E1
:100F20002060284601F088FF266017980068284650
:100F300001F082FF3E603E6018982060284601F074
:100F40007BFF266017980068284601F075FF3E6019
:100F50003E6018982060284601F06EFF26601798C2
:100F60000068284601F068FF3E603E6018982060E7
:100F7000284601F061FF266017980068284601F0B6
:100F80005BFF3E603E6018982060284601F054FFE9
:100F9000266017980068284601F04EFF3E603E60CC
:100FA00018982060284601F047FF266017980068CF
:100FB000284601F041FF3E603E60189820602846B8
:100FC00001F03AFF266017980068284601F034FFC8
:100FD0003E600499A14A14921591994F3E600B9C72
:100FE000189820600125284601F026FF26601798F2
:100FF00000681390284601F01FFF3E603E6018987D
:101000002060284601F018FF2660179800681290AB
:10101000284601F011FF3E603E6018982060284687
:1010200001F00AFF2660179800681190284601F029
:1010300003FF3E603E6018982060284601F0FCFEE9
:101040002660179800680F90284601F0F5FE3E6074
:101050003E6018982060284601F0EEFE2660179842
:1010600000680E90284601F0E7FE3E603E6018984A
:101070002060284601F0E0FE2660179800680D9079
:10108000284601F0D9FE3E603E6018982060284650
:1010900001F0D2FE2660179800680C90284601F0F7
:1010A000CBFE3E603E6018982060284601F0C4FEEA
:1010B000266017980468284601F0BEFE3E6011982D
:1010C000000A0A9B18401399090A1940129A9205BE
:1010D000D20F5118149A890040180F998905C90F29
:1010E000081880000E99090A194008180D998905F9
:1010F000C90F081880000C99090A19400818A105A1
:10110000C90F081815991070521C491E080400D008
:1011100061E706980B9908605049087853280AD16E
:101120004878462807D18878442804D1C8785028C0
:1011300001D14B4805704B490878401C0870C0B27B
:101140000328169E3E4F189C0AD045480078002878
:1011500000D133E5434809990170414801701DE40D
:10116000404800250570E32001F0B5FB059F344E93
:101170003760029801F0C2FD301F076009953149C0
:101180000D60089D2968039B19432960079F3968F2
:101190002F4A1140396003602B4A11682B4B1940CC
:1011A00011605168109B19435160296821432960DF
:1011B0003968294A11403960046028682549084087
:1011C00028603868169E30433860FFF79DF900208C
:1011D00019B0F0BD3E2001F07EFB149C3C60284617
:1011E000F43001F08BFD381F0460044600211548DF
:1011F000016001984202394628390B6813430B609D
:10120000243F3B6893433B602260C2030E4803685F
:10121000934303604368134343600A682A430A60A8
:101220003A68AA433A6025600868B04308603868A5
:10123000304338600A2001F061FD019819B0F0BD1B
:1012400028400B404400002000000B40FF7FFFFFC0
:10125000FFFDFFFFFFF7FFFFFFFEFFFF4C00002039
:10126000D0030020D103002080B501214902054AA6
:1012700013680B43136053688B435360516201F052
:1012800009FB80BD00400B4080B501F0FFFA411E14
:10129000884180BDB0B505460124204601F02EFDF1
:1012A0000448002D00D1001D02210160204601F0FC
:1012B00025FDB0BD24400B40024909680840411E8D
:1012C000884170470880084070B50C4C2568002B99
:1012D00001D0054300E08543A668E0682560002B47
:1012E00001D00E4300E08E43A660002B02D01043D5
:1012F000E06070BD9043E06070BDC046248008404F
:1013000001218902104A13688B4380021843106040
:101310007047C04603490A6808239A43C000104337
:10132000086070470480084001214902064A13689A
:101330008B4301794902194311609169034B0B40BA
:101340000068184390617047008008400000FFFF6C
:1013500006480168002908D10168002905D1016803
:10136000002902D101680029F3D070473400002021
:1013700070B50C4C2568002B01D0054300E0854377
:101380006668A0682560002B01D00E4300E08E4304
:101390006660002B02D01043A06070BD9043A06037
:1013A00070BDC04604810840F0B587B01746019172
:1013B000039000F0F1FB0126B002414C0090206048
:1013C000F5022560300206902060304601F034FDC1
:1013D000201F0490056020460C38059000683046B8
:1013E00001F02AFD2560256006982060304601F056
:1013F00023FD0498056005980068304601F01CFD47
:101400002560256006982060304601F015FD04989F
:10141000056005980068304601F00EFD25602560E6
:1014200006982060304601F007FD04980560059895
:101430000068304601F000FD2560256006982060B8
:10144000304601F0F9FC04980560059800683046C4
:1014500001F0F2FC2560256006982060304601F01E
:10146000EBFC049C256005980068304601F0E4FC24
:1014700013480560056006982060304601F0DCFCEA
:101480002560059C2068304601F0D6FC0C490D60B3
:101490000D6006980860304601F0CEFC04980560A7
:1014A0002068304601F0C8FC05490D600D600198C8
:1014B000000C029040B20028084604DA02E0C04660
:1014C00028400B40049806990160304601F0B4FCB6
:1014D0000498056005980068304601F0ADFCE649C7
:1014E0000D600D6002984006084600D504980699E4
:1014F0000160304601F0A0FC049805600598006882
:10150000304601F099FCDC490D600D6002988006C0
:101510000846019C00D5049806990160304601F008
:101520008BFC0498056005980068304601F084FC47
:10153000D1490D600D600298C006084600D5049898
:1015400006990160304601F077FC04980560059823
:101550000068304601F070FCC7490D600D600298CC
:101560000007084600D5049806990160304601F04E
:1015700063FC0498056005980068304601F05CFC47
:10158000BD490D600D6002984007084600D50498DB
:1015900006990160304601F04FFC049805600598FB
:1015A0000068304601F048FCB3490D600D600298B8
:1015B0008007084600D5049806990160304601F07E
:1015C0003BFC0498056005980068304601F034FC47
:1015D000F9490D600D600298C007084600D00498D4
:1015E00006990160304601F027FC049805600598D3
:1015F0000068304601F020FCEF490D600D60240AC0
:1016000060B20028084600DA049806990160304666
:1016100001F012FC0498056005980068304601F05E
:101620000BFCE5490D600D606006084600D5049886
:1016300006990160304601F0FFFB049805600598AB
:101640000068304601F0F8FBDB490D600D60A00634
:10165000084600D5049806990160304601F0ECFB7D
:101660000498056005980068304601F0E5FBD24912
:101670000D600D60E006084600D5049806990160EB
:10168000304601F0D9FB04980560059800683046A3
:1016900001F0D2FBC8490D600D602007084600D557
:1016A000049806990160304601F0C6FB0498056075
:1016B00005980068304601F0BFFBBF490D600D6022
:1016C0006007084600D5049806990160304601F08D
:1016D000B3FB0498056005980068304601F0ACFB48
:1016E000B5490D600D60A007084600D5049806991D
:1016F0000160304601F0A0FB049805600598006881
:10170000304601F099FBAC490D600D60E0070846DA
:1017100000D0049806990160304601F08DFB0498D2
:10172000056005980068304601F086FBA2490D600F
:101730000D60019C60B20028084600DA0498069902
:101740000160304601F078FB049805600598006858
:10175000304601F071FB98490D600D606006084647
:1017600000D5049806990160304601F065FB0498A5
:10177000056005980068304601F05EFB8E490D60FB
:101780000D60A006084600D5049806990160304611
:1017900001F052FB0498056005980068304601F09E
:1017A0004BFBFC490D600D60E006084600D504982F
:1017B00006990160304601F03FFB049805600598EA
:1017C0000068304601F038FBF2490D600D602007DB
:1017D000084600D5049806990160304601F02CFBBC
:1017E0000498056005980068304601F025FBE9493A
:1017F0000D600D606007084600D5049806990160E9
:10180000304601F019FB04980560059800683046E1
:1018100001F012FBDF490D600D60A007084600D5FE
:10182000049806990160304601F006FB04980560B3
:1018300005980068304601F0FFFAD6490D600D604A
:10184000E007084600D0049806990160304601F090
:10185000F3FA0498056005980068304601F0ECFA48
:10186000CC4A1560002F03991BD1101F009901600D
:1018700000F0A4F807B0F0BD28400B4006990160C5
:10188000304601F0D9FA256005980068304601F02D
:10189000D3FAFF4A15600399491C049F7F1E380440
:1018A000E3D00497002003910F561560141F002FFA
:1018B000104600DA2046069901600126304601F004
:1018C000BBFA256005980068304601F0B5FAF0498A
:1018D0000D600D607806084600D520460699016027
:1018E000304601F0A9FA256005980068304601F0FD
:1018F000A3FAE7490D600D60B806084600D52046FA
:1019000006990160304601F097FA25600598006855
:10191000304601F091FADE490D600D60F806084688
:1019200000D5204606990160304601F085FA256011
:1019300005980068304601F07FFAD5490D600D60CA
:101940003807084600D5204606990160304601F068
:1019500073FA256005980068304601F06DFACC49AD
:101960000D600D607807084600D520460699016095
:10197000304601F061FA256005980068304601F0B4
:101980005BFAC3490D600D60B807084600D52046D4
:1019900006990160304601F04FFA2560059800680D
:1019A000304601F049FABA490D600D60F807084663
:1019B00000D163E7204661E728400B40F0B585B0D1
:1019C0000124A002B24E00903060E702376020028E
:1019D00004903060204601F02FFA351F2F600C3E36
:1019E0003068204601F028FAA9490F600F6004987A
:1019F0000860204601F020FA2F603068204601F090
:101A00001BFAA3490F600F6004980860204601F09C
:101A100013FA2F603068204601F00EFA9C490F60DF
:101A20000F6004980860204601F006FA2F603068C5
:101A3000204601F001FA96490F600F600498086093
:101A4000204601F0F9F92F603068204601F0F4F9E2
:101A50008F480760076004982860204601F0ECF981
:101A60002F603068204601F0E7F989480760076079
:101A700004990160204601F0DFF92F6030682046AC
:101A800001F0DAF982480760076004982860204670
:101A900001F0D2F902952F6003963068204601F0DC
:101AA000CBF901977A480760019F029E784D2F601D
:101AB000049830600124204601F0BEF93760039895
:101AC0000068204601F0B8F92F602F60049D356052
:101AD000204601F0B1F9376003980068204601F014
:101AE000ABF96B48076007603560204601F0A4F948
:101AF0003760039D2868204601F09EF9644807601E
:101B0000076004983060204601F096F93760286835
:101B1000204601F091F95E4807600760049D35603A
:101B2000204601F089F9376003980068204601F0EB
:101B300083F95748076007603560204601F07CF95B
:101B40003760039D2868204601F076F95048076009
:101B5000076004983060204601F06EF9376028680D
:101B6000204601F069F94A48076007600498306030
:101B7000204601F061F937602D68204601F05CF9DC
:101B800043480760A80591D400980299086005B001
:101B9000F0BDC04628400B40F0B585B00124A0023E
:101BA00001903B4E3060E7023760200203903060C6
:101BB000204601F041F9301F07600546029030468B
:101BC0000C3804900068204601F036F93760376021
:101BD00003983060204601F02FF92F60049D28689B
:101BE000204601F029F937603760039830602046BD
:101BF00001F022F9029807602868204601F01CF9DC
:101C000037603760039D3560204601F015F9029872
:101C1000076004980068204601F00EF937603760CD
:101C20003560204601F008F9029E3760049800688C
:101C3000204601F001F9164807600760356020462C
:101C400001F0FAF8376004980068204601F0F4F8D3
:101C50000F48076007603560204601F0EDF83760F7
:101C6000049D2868204601F0E7F8094807600760EE
:101C700003990160204601F0DFF8376028682046AC
:101C800001F0DAF8024807600198306005B0F0BD55
:101C900028400B4005480068002806D0322004493F
:101CA000085C032801D10348006870470800002041
:101CB000AC02002000800A4002480168491C016013
:101CC0007047C04638000020F0B586B05948102152
:101CD000059101605849C86A402203921043C862C6
:101CE00056480268272A08D00268272A05D00268C9
:101CF000272A02D00268272AF3D10324A0020A6A05
:101D000082430A620122D0020B6803430B604868D9
:101D1000000708D44868000705D44868000702D4C3
:101D200048680007F3D5086804942043042302930D
:101D300098430860086B0724204003280BD0086BE9
:101D40002040032807D0086B2040032803D0086BED
:101D500020400328EED13A4B186810430625019520
:101D6000A843186000200090C86157020868B84373
:101D700008601302081F05681D4305600D680826EA
:101D8000B5430D6005683D43056095020E682E431E
:101D90000E604D686D0708D44D686D0705D44D6819
:101DA0006D0702D44D686D07F3D5CD6A039EB54328
:101DB000CD620F25ED054D6115074E692E434E612D
:101DC00005689D43056008683843086048688007D7
:101DD00008D44868800705D44868800702D448685A
:101DE0008007F3D5164D2868049B1843029B98433F
:101DF00028600098C86108681043019B98430860F8
:101E0000086B204001280BD0086B2040012807D028
:101E1000086B2040012803D0086B20400128EFD137
:101E20002868059908432860100329680143296040
:101E300006B0F0BD0C8108400480084008A10640AF
:101E400000020840F0B583B000293ED00B4606469C
:101E500000227B4C0DE0012738463146224600F037
:101E600027FC019B1B1B029A82183618002B744C0E
:101E70002DD002922068002807D000252560402B35
:101E800001931C46E7D34024E5E71B4800681B4943
:101E90001D46FEF771F92B46194948430221081ADD
:101EA00021680029E9D10021CF430125022817D05C
:101EB00021680029E1D121680029DED100280FD056
:101EC00021680029D9D1001DEAE700270EE040284B
:101ED0000FD15A480770216801290AD105701746A9
:101EE0002560012000210A4600F0E2FB384603B0DD
:101EF000F0BD1746FAE7C0460000002040420F0040
:101F00002E2200004E4801210160704770470000FA
:101F1000F0B581B01249402200F084FB0090002807
:101F200017D02F4A9368D0681668002107E0B542A1
:101F300010D007555560491C009C8C420DD0084CB0
:101F4000675C5468651C9D42F1D1002E02D00025CB
:101F5000EFE700210098814201D101B0F0BDFEE71A
:101F60005C00002010B51E4900224A600A60094A40
:101F7000CA60094A094B0A4C046343638263094AF5
:101F80004262094A8260094A026001204002886078
:101F900010BDC046AC000020111F00000D1F000046
:101FA000051F0000E51F00002D200000B11F0000EC
:101FB00080B52248017801290AD1214A11680129F6
:101FC00006D100211160017001200A4600F070FB6B
:101FD0000348016842688A4200D0406880BDC0461C
:101FE0009C000020417820290FD0212905D02229EA
:101FF00002D1C18800290FD070470B49C161C18847
:10200000082900D30821012209E00749C161C188DC
:10201000082903D3082101E00021C1610222242301
:10202000C25401627047C0463C00002003480021B2
:1020300001700348012101607047C046580000202C
:1020400004000020024800683221405C7047C0460E
:1020500084030020F0B585B0044600F083FB0746FA
:10206000800707D5E16C002901D0206D8847022048
:1020700000F072FA25462435F8060BD5102000F042
:102080006BFAA87B022805D300F094FBA87BE873C9
:102090000320A87326468836780704952BD5780642
:1020A00023D4002504988581042004998873A563AE
:1020B000E84320620498007CFD21014004980174EB
:1020C0003068039000F058FA00F07AFB3168284637
:1020D000049D00F093FA0398006800F015FB616C12
:1020E000002905D0A06C884702E0402000F034FAB7
:1020F000042000F031FA380706D500F061FBE87BD8
:10210000A873082000F028FA01210D02F80500D478
:1021100011E103910027384600F068FA810506D4E2
:10212000C10600D5B6E0800700D5D9E000E10290F5
:10213000039840020190204600F096FB2762049825
:10214000077020784006800F78440079400087446B
:102150000124262B2088DA49884252DCFF2800DC43
:102160000FE1DC49884200DD2DE1A84200D143E1C6
:1021700081214900884217D1A0880F270740039981
:1021800009D0A06B002806D1384600F005FA384681
:1021900000F0FAF90399049864E1216E00E0616EA1
:1021A000002901D0204688470498007802281AD0D8
:1021B0000128019E21D1E088216A814200DD206250
:1021C0000027384600F0F8F9216A4A1C5AD0049AD0
:1021D0001278012A56D1814249DA0220049A1070FD
:1021E000F8430F4645E0206A0028019E4AD10020AE
:1021F0000146024600F05CFA44E0002000F046FA96
:1022000040E0B049884200DCCFE01521C901884296
:1022100000DDE8E01121C901884200D1F7E0092181
:1022200009028842C0D1049A03981070A1781173F2
:10223000316800F0E3F93168022000F0DFF931681D
:10224000032000F0DBF93168042000F0D7F9316891
:10225000052000F0D3F931680627384600F0CEF9A2
:102260003168072000F0CAF9049887739CE7074695
:10227000081A2062E16900203A4600F019FAE06984
:10228000C019E0610020314600F08EF90298C106C5
:1022900000D448E706460027384600F08DF9216A49
:1022A0004A1C16D0049A1278012A12D1814205DA0A
:1022B0000220049A1070F8430F4601E00746081AFE
:1022C0002062E16900203A4600F0F2F9E069C019A5
:1022D000E0610020102100F067F93046800727D523
:1022E0000020022100F060F9206A401C20D00498F0
:1022F000007802281CD1E16900274022384600F00E
:1023000091F9E1690918E161216A081A20620FD187
:10231000049803990170A16A002902D0E06A8847F5
:10232000A762F8432062384639463A4600F0C0F9C1
:10233000284600F011F900F015FA00F0EBF9411C05
:102340001DD0683405E000F00DFA00F0E3F9411CFF
:1023500015D046B2304600F049F912210842F2D0B9
:102360001221304600F020F92846B04000F0F4F881
:10237000B00021580029E6D030468847E3E705B091
:10238000F0BD80285BD081286FD0822800D00BE779
:102390006776A1880F20084000F018F90221224634
:1023A0001832E261216220761BE005263102884264
:1023B00052D00D21C901884260D04549884200D0E1
:1023C000F2E6616DECE603210902884228D0424919
:1023D000884200D0E8E6A1880F20084001D000F034
:1023E0005BF904983DE03849884226D03749884255
:1023F00000D0D9E6A16DD3E6A078012800D0D3E6BD
:10240000049A03981070107CFD21014012E004989A
:102410000399017020463030E0612162019ECAE6D6
:10242000A078012800D0BFE6049A03981070107CB1
:10243000022101431174019EBDE6E16DB0E66776AD
:102440000220049A0399117021461831E16120623B
:10245000107C2076019EAEE6A07800F00DFA04987C
:10246000867303990170019EA5E6022027830499D3
:10247000039A0A7021461831E1611DE0E0780328D3
:102480000AD0022804D0012800D08DE6A0680EE012
:10249000E068E06140880CE0A0786169814200D882
:1024A00082E6800021690858002800D17CE6E061BE
:1024B00000780499039A0A702062019E7BE6C04668
:1024C000FF0400007F080000810A0000010B0000EB
:1024D00081060000FF0200000203000080B53221E7
:1024E00002224254034908608821405800F044F910
:1024F00080BDC04684030020B0B504468820205823
:1025000025463235AA780121114000F065F93220C4
:10251000205C032806D1204688304168002901D07C
:1025200080688847E16B002904D02878062801D10B
:10253000206C8847B0BD000010B50421034A044B4D
:10254000044C046043608260C16010BD0C00002038
:1025500084300000D0300000C14908607047C04698
:10256000401E41424141880201218902C64A136846
:102570008B4318181060704780B52020002101237C
:102580000A46FEF7F5FE80BD142141435B480A5818
:10259000092313400B5070471421414357480A58F0
:1025A000242313400B50704714224243014811501A
:1025B0007047C0461C800A40142141430248085815
:1025C0000003800D7047C04624800A401421414317
:1025D0004A480A181269D20001D5022200E00522F9
:1025E0000958D140012008407047C046142141439A
:1025F00042480818416880680840704710B51422A6
:1026000042433E4BD418C0000818416821618068DD
:1026100060600020C043A060D05819210140D15013
:1026200010BDC046B0B514244443344BE418002A0E
:102630000CD0334D00280BD0E068284090421ED8C3
:102640002269304B13408B4A9B180FE0002016E0A4
:10265000D868000C2840904211D81A69294D1540BD
:10266000844AAA181B691B039B0DD318C21C92082D
:102670000546184600F0DEF92846002D04D02168F2
:1026800010220A402260B0BD0020B0BD1421414399
:102690001A4804220A5070471421414317480A1867
:1026A000402393600A58242393430B507047C0463D
:1026B000F0B581B01425454310482F183869FB68E0
:1026C0000003840D0020A24216D80D4C234013D1E4
:1026D000384610300B4B00681840664BC318D01CAE
:1026E0008408084619461646224600F0A3F9FE6003
:1026F000022002494851304601B0F0BD14800A4022
:10270000FF010000FF0300001A490A6802430A6043
:102710007047C04601040ED441040FD4810410D484
:10272000C10411D4010512D4410513D4800514D578
:10273000012040B27047072040B27047062040B2E7
:102740007047052040B27047042040B27047032014
:1027500040B27047022040B270470020C04340B2F0
:10276000704700000348016840220A434068104057
:102770007047C04604800A40F0B512210162074A42
:10278000074B084C084D094E094F076046608560AD
:10279000C460016143618161C261F0BDD000018309
:1027A000C8200092880001911202000008000180F8
:1027B0001D0F0000344801680C220A430260704774
:1027C0000120000330490A6802430A6005208002A4
:1027D0000A6802400A60704770B520490A78002AEA
:1027E0003BD101250D70A9020022D4431C4A134697
:1027F000083B1E6876061CD41A4E1E6016687607C3
:1028000008D41668760705D41668760702D41668C9
:102810007607F3D51460EC021E68A6431E600068BC
:10282000121F146804431460A8021A6882431A60D5
:1028300010E00C3119601168490708D41168490784
:1028400005D41168490702D411684907F3D514600B
:10285000131F016818680843186070BD54000020F9
:1028600008800A400C0C000002490A6802604968AE
:102870004160704700A00A4001210902024A136822
:102880000B4313601061704700800A4080B500F070
:1028900037F880BD80B582B0019001980448017876
:1028A000002903D10121017000F07AF802B080BD47
:1028B0004800002070B500290BD00C4606460025C4
:1028C0007019611B00F080F84519A542F8D328461D
:1028D00070BD002070BD10B582B001A9087000F075
:1028E00052F80024002808D000F046F8002804D050
:1028F00001A80121FFF7A6FA0446204602B010BD48
:102900004B4908684A68101A01D289684018704714
:10291000B0B582B068460021818003210902009190
:10292000FEF702FD0120FEF7F5FC01242046FEF72C
:10293000C3FC0028F9D02046FEF7E2FC8C20214D94
:102940000A49295088200A49295028460830FFF7AB
:10295000F3FD28463C30FFF705FB2846FFF7BEFD98
:1029600060070449086002B0B0BDC046951C000075
:102970004003002000E100E080B5FFF763FB811F0A
:102980004842484180BD80B5FFF75CFB411E88414D
:1029900080BD000080B50B48FFF75CFB80BDC046E2
:1029A00010B50124A002E10300222346FEF78CFCAF
:1029B000FFF7AEFF2046FFF7D3FD0248FFF79CFD6F
:1029C00010BDC046AC020020F0B581B0184A1368B3
:1029D00054689C4201D1002426E05468E41A15D3BF
:1029E000A14217D2002918D09568D668002403E0C8
:1029F0001360641CA14212D057689F4210D0F75C4C
:102A000007555B1CAB42F3D10023F1E795686419CD
:102A1000A142E7D321460029E6D1002400E00C467C
:102A20000120C002FFF770FE204601B0F0BDC04695
:102A30009C000020F0B582B003260C463440850788
:102A400013D0002C1DD0012A19DB16404DD004787C
:102A50000C7044784C7084788C70C478CC70012EE3
:102A600045D1091D001D531E19E1002C13D0012A68
:102A700005DB1640042A49D20024002E77D102B08B
:102A8000F0BD012AFBDB1640042A00D391E00027A9
:102A9000002EF4D0CDE0012AF1DB164014460FD011
:102AA000541EA50043594B51012E09D0941EA50078
:102AB00043594B51022E03D0D41EA50043594B510C
:102AC000042ADCD3A200103A80188918621CC3685B
:102AD000CB6083688B6043684B6003680B60121F98
:102AE00010381039012AF2D8C9E71346D7E0047923
:102AF0000C7144794C7184798C71C479CC71022E3B
:102B000000D0C1E008310830931EC8E000967A4B2F
:102B10001A4000252C46019242594A554E19130E6F
:102B2000F370130CB370120A727047197A6832711D
:102B3000130EF371130CB371120A7271BA68327208
:102B4000130EF372130CB372120A7272FF68019AB9
:102B500037733B0EF3733B0CB3733B0A737310353F
:102B6000241DA242D8D14919009E002E87D0A20070
:102B700083580B701C0ECC701C0C8C701B0A4B7095
:102B8000012E00D17BE7801842680A71130ECB71C9
:102B9000130C8B71120A4A71022E00D16FE7806804
:102BA0000872020ECA72020C8A72000A487202B0DF
:102BB000F0BD0096504C224000252F4601923A4627
:102BC000475D461973781B02DB19B7783F04DB19A0
:102BD000F7783F06DB194B51337977793F02FB18C1
:102BE000B7793F04DB19F7793F06DB194F197B6092
:102BF000337A747A2402E318B47A24041B19F47A21
:102C000024061B19BB60337B747B2402E318B47B5E
:102C100024041B19F47B24061B19FB601746019A38
:102C200010353F1DBA42CAD14019009E002E00D176
:102C300025E7037844782402E318847824041B19D8
:102C4000C47824061B19BA008B50012E00D116E758
:102C50008918027943791B029A1883791B04D218C8
:102C6000C3791B06D2184A60022E00D107E7027A08
:102C7000437A1B029A18837A1B04D218C07A000682
:102C80001018886002B0F0BD037A0B72437A4B7261
:102C9000837A8B72C37ACB720C310C30D31E042A28
:102CA00000D2ECE65A1E03780B7043784B708378A1
:102CB0008B70C378CB7003790B7143794B71837937
:102CC0008B71C379CB71037A0B72437A4B72837A1F
:102CD0008B72C37ACB72037B0B73437B4B73837B07
:102CE0008B73C37BCB731030121F10310123DB4376
:102CF0009A42D8D3C3E6C046FCFFFF7FF0B582B04E
:102D0000002833D00323014619400091494A56490F
:102D100004282DD2009E002E28D000240C608A604A
:102D2000081F036806252B4303600B68002B08D19E
:102D30000B68002B05D10B68002B02D10B68002B10
:102D4000F3D0012E12D00C608A6003682B4303601D
:102D50000B68002B08D10B68002B05D10B68002BEA
:102D600002D10B68002BF3D0022E51D102B0F0BD7E
:102D700098430025019502E02D1D8542CAD0019B94
:102D80000B608A600E1F336806273B4333600B6875
:102D9000002B08D10B68002B05D10B68002B02D14A
:102DA0000B68002BF3D000230B608A6034683C432F
:102DB00034600C68002C08D10C68002C05D10C681C
:102DC000002C02D10C68002CF3D00B608A603468B0
:102DD0003C4334600C68002C08D10C68002C05D1F1
:102DE0000C68002C02D10C68002CF3D00B608A60B8
:102DF00033683B4333600B68002BBDD10B68002B5D
:102E0000BAD10B68002BB7D10B68002BF3D0B3E716
:102E10000C608A6002682A43026008680028A5D115
:102E200008680028A2D1086800289FD108680028F7
:102E3000F3D09BE760EA00000B4900220A603C22C5
:102E400042438A60081F0268062313430360086830
:102E5000002808D10868002805D10868002802D198
:102E600008680028F3D07047046007400F20000472
:102E7000012399031A04FEF727FA7D20C1001248A6
:102E80000068FDF779F9401E010E0DD10F49104A77
:102E90005060104803680B400321890759180160EE
:102EA0000020906007201060FDF75CFA0120FEF71B
:102EB000F1F9E1204002FEF7D7F9FEF7E5F9012824
:102EC000FBD1FDF70FFBF8E700000020FFFFFF003C
:102ED00010E000E020ED00E0F0B583B004460120F2
:102EE00003021F4F394624390A681A430A603946DB
:102EF00020390A6800939A430A60C00201900020BA
:102F0000019E10E038460099016002252846FFF72F
:102F100093FF7E602846FFF78FFF3E600299481CB2
:102F200064080D2904D20290E007EBD1381DEAE7CE
:102F300001242046FFF780FF019E7E602046FFF7B8
:102F40007BFF3E6030463038FFF776FF7E602046DC
:102F5000FFF772FF3E600520FFF76EFF03B0F0BD84
:102F600024400B4002E008C8121F08C1002AFAD111
:102F700070477047002001E001C1121F002AFBD1F9
:102F8000704700316253C4F5A697B988DBEA7D4CDF
:102F90001F2E4372211087B6E5D4FACB98A93E0FB5
:102FA0005C6D86B7E4D5427320113F0E5D6CFBCAA1
:102FB00099A8C5F4A796013063527C4D1E2FB8899D
:102FC000DAEB3D0C5F6EF9C89BAA84B5E6D7407179
:102FD00022137E4F1C2DBA8BD8E9C7F6A594033275
:102FE0006150BB8AD9E87F4E1D2C02336051C6F771
:102FF000A495F8C99AAB3C0D5E6F4170231285B45D
:10300000E7D67A4B1829BE8FDCEDC3F2A1900736C4
:10301000655439085B6AFDCC9FAE80B1E2D344753C
:103020002617FCCD9EAF38095A6B4574271681B020
:10303000E3D2BF8EDDEC7B4A192806376455C2F314
:10304000A0914776251483B2E1D0FECF9CAD3A0B18
:10305000586904356657C0F1A293BD8CDFEE7948FC
:103060001B2AC1F0A3920534675678491A2BBC8DF0
:10307000DEEF82B3E0D1467724153B0A5968FFCED4
:103080009DAC000009024B000201008032080B00D9
:1030900002020200000904000001020201000524EE
:1030A0000010010424020205240600010524010089
:1030B000010705820308000009040100020A00005C
:1030C00000070503024000000705810240000000E0
:1030D0001201100100000040D90408800001010223
:1030E00003010000040309040E0348004F004C00D4
:1030F000540045004B0000001A03550053004200E5
:103100002D005600430050002000440045004D00B3
:103110004F000000343100000000002030000000AB
:10312000642F00006431000030000020A807000078
:10313000742F0000008793030100000001000000CD
:10314000E4300000E8300000F83000001C000020EF
:10315000140353004E0030003000300030003000C7
:043160003000350006
:04000005000000C136
:00000001FF
