:020000040000FA
:10000000C00D0020C100000051140000711100005B
:10001000FFFFFFFFFFFFFFFFFFFFFFFFFFFFFFFFF0
:10002000FFFFFFFFFFFFFFFFFFFFFFFFFF140000C9
:10003000FFFFFFFFFFFFFFFF5314000055160000F6
:1000400035010000350100003501000035010000D8
:1000500035010000350100003501000035010000C8
:100060003501000035010000350100005514000085
:1000700035010000350100003501000035010000A8
:10008000350100003501000035010000911100002C
:10009000A1110000AD140000B7140000F91B00000E
:1000A000031C0000B9180000C3180000350100004F
:1000B0003501000035010000350100003501000068
:1000C0001D4880471D4880471D4800471D4801695D
:1000D000002908D14169002905D18169002902D18F
:1000E000C169002909D01848C1680901090D002912
:1000F0000ED005290CD006290AD0BFF34F8F134824
:100100001349016013491248C860BFF34F8FFEE7DF
:100110000E4801680E48884200D070470E480F49CB
:1001200001600A480E4901607047FEE7FEE7FEE7FE
:10013000FEE7FEE7FEE70000CD00000065160000C8
:100140006501000000030840800108400000002015
:100150000400FA0500ED00E0008108400100000005
:10016000000000000348854600F0D2F80048004730
:100170006D220000C00D002003460B439B0703D0F7
:1001800009E008C9121F08C0042AFAD203E00B785C
:100190000370401C491C521EF9D27047D2B201E0D4
:1001A0000270401C491EFBD270470022F6E710B5D2
:1001B00013460A4604461946FFF7F0FF204610BDD5
:1001C00030B505462A460B4610781C78521C5B1C3D
:1001D000002801D0A042F7D0002C03D0002802D084
:1001E0006D1CEFE7284630BDCAB2401E4178401C66
:1001F0008A4202D00029F9D100207047421C0178C0
:10020000401C0029FBD1801A704710B5002200E085
:10021000521C835C8C5CA34201D1002BF8D1D8B274
:10022000E1B2401A10BD30B503461D78002D08D04C
:100230000A461478521C002C03D0AC42F9D15B1C46
:10024000F3E7181A30BD70B5064602F021FC0468C9
:1002500005460A220021304600F022F82C6070BDCD
:1002600070B50446002903D000202022012310E0AD
:10027000002801D00020C043C046C0460DE02546FE
:10028000D5408D4205D30D469540641B1D469540D3
:1002900040191546521E002DF1DC214670BD0000AC
:1002A000F7B5009C0F4600262578641C002D05D06C
:1002B00000F046F80068405DC007F5D12B2D02D054
:1002C0002D2D18D0641E39462046029A00F03CF8C5
:1002D000002F04D03968A14201D10099396071051D
:1002E000022400290BDA4042002803DD02F0D0FB93
:1002F0000460A007FEBD012080020643E3E700285A
:10030000F8DA02F0C5FB04600048FEBDFFFFFF7F86
:100310001CB5094800900948019005460126009C3B
:1003200005E0E36807CC33430C3C98471034AC42FB
:10033000F7D3FFF71BFF00005832000078320000AF
:1003400000487047782F0000F7B582B0029C002764
:100350002078641C15460197302802D0002D15D056
:1003600015E020780127641C782804D0582802D092
:10037000002D09D00BE0002D01D0102D07D1002752
:1003800010252078641C02E0082500E00A250026DC
:10039000009610E00099012769430818020C2946CD
:1003A00080B2714300908E183804864201D3012038
:1003B00001902078641C294600F019F80028E9DA39
:1003C0000398002805D0002F01D0641E00E0029C95
:1003D00004600198002806D002F05AFB0221016057
:1003E000C81E05B0F0BD009930040843F9E73A286B
:1003F00000D23038202302469A43412A01D31046C6
:100400003738884201D30020C0437047F0B58EB022
:10041000C0005C4BC4180F23180207901803089003
:100420001804099018050A9018060B9018070C90EC
:100430000E060D9452D00120084045422F461F4021
:100440008807059000D5F0374807049001D5079834
:1004500007430807039001D508980743C806029090
:1004600001D5099807438806019001D50A980743EA
:100470004806009003D530460B9E37430646069645
:10048000002E01D50C9E37430D9C2468BC431701F8
:100490000598C6173E401540354316020498C71705
:1004A00037402F4315030398C6172E403E431504CB
:1004B0000298C7172F40374315050198C6172E40DD
:1004C0003E4315060098C017284030431507069E86
:1004D000F6172E40064326430D9C26600E04300E70
:1004E00041D0C805C7173B408805069000D5F033BA
:1004F0004805059001D5079803430805079001D5E5
:1005000008980343C80408902FD4880431D44904C0
:1005100033D4002E01D50C9D2B4365689D431301F8
:10052000069CE4171C40174027431302059CE41760
:100530001C403C431303079FFF171F40274313042E
:10054000089CE4171C403C431305C0171840204387
:100550001306C917194001431007F21702400A4356
:100560002A430D9842600EB0F0BD099803438804F9
:10057000CDD50A9D2B434904CBD50B9D2B43002E93
:10058000C9D4CAE72020024080B584B0002103917D
:1005900000900291012000020190B24800687D2184
:1005A000CA00694601F09EF904B080BDF0B5B5B04F
:1005B0000C46054603A82049C822FFF7DDFD284662
:1005C000FFF71CFE012809DB064603AF3846FFF79C
:1005D00015FE381829463246FFF7CEFD03AD2846F2
:1005E000FFF70CFE2221295428182C21417001AD5F
:1005F00012492846224602F037FA2846FFF7FEFD48
:10060000012809DB044603AD2846FFF7F7FD28184B
:1006100001A92246FFF7B0FD03AC2046FFF7EEFD2F
:100620000D21215420180A2141700321204600F099
:1006300021F9C0B235B0F0BD7C2F0000533200006C
:10064000F0B5B3B00C46054601A82249C822FFF711
:1006500093FD21A0032100F00DF9002836D0284693
:10066000FFF7CCFD012809DB064601AF3846FFF74E
:10067000C5FD381829463246FFF77EFD01AD2846F4
:10068000FFF7BCFD22272F5428182C2141708770BA
:100690002046FFF7B3FD012809DB054601AE3046D1
:1006A000FFF7ACFD301821462A46FFF765FD01AC87
:1006B0002046FFF7A3FD275420180D2141700A2181
:1006C00081700321204600F0D5F800E00020C0B280
:1006D00033B0F0BD4430000041542B43574D4F44DC
:1006E000453D310D0A000000F0B585B00291009241
:1006F000002A53D006460021C24DC44C854F04E069
:100700000199491C0098814248D201910298002821
:10071000F6D0002104E00399491C02988142EFD0F1
:10072000039105E038467C49FFF74AFD002815D1C2
:10073000286801F0CFF8002810D020683118286808
:1007400001F024FA2068401C2060C828EAD1C821A2
:100750003846FFF72AFD00202060E3E701200490DF
:100760007D208101D7480068FFF77AFD0499414355
:1007700004910498411E04910028CCD00498411E95
:1007800004910028C7D00498411E04910028C2D0CB
:100790000498411E04910028EBD1BCE705B0F0BDE0
:1007A000F0B583B004462D48C821FFF7FEFC2C4865
:1007B000002505602B48006801F08CF8002804D063
:1007C0002648C8210322FFF78FFF244E26A130467A
:1007D000FFF7F6FC00283DD03046FFF70FFD074637
:1007E0003A213046FFF700FD821BBB1A0125012B81
:1007F00030DB032119400291F719C043C0190328C7
:10080000019201D2002010E0B718194803400020DF
:100810003E18727822542218B1785170F178917094
:100820003179D170001D8342F2D1029F002F11D087
:1008300001994A1C1118094E715C2154012F09D0ED
:10084000411C5318F35C6354022F03D0801C111811
:10085000715C2154284603B0F0BDC046380000202A
:10086000F0080020140000202B4950440000000034
:10087000FCFFFF7FF0B583B002900091002943D0C8
:100880000024244F244D01940A2101262048324699
:10089000FFF72AFFC8213846FFF787FC01985B491C
:1008A0000860029800F03AF8642138463246FFF7B3
:1008B0001BFF38462946FFF783FC002825D1642119
:1008C00002223846FFF710FF38462946FFF778FC2A
:1008D00000281AD1642103223846FFF705FF384665
:1008E0002946FFF76DFC00280FD164210422384609
:1008F000FFF7FAFE38462946FFF762FC002804D1CC
:10090000641C00988442BFD30026304603B0F0BD7B
:10091000F40800203800002050320000F0B583B009
:100920000546FFF76BFCC2B2812A0AD313467D3B12
:100930000321184608407E3A032A019308D2002179
:100940001BE030480068294601F02AF903B0F0BDE9
:100950001A468A4300212C4B6E187D27F75D5F54A1
:100960005F187E24345D7C707F24345DBC708024ED
:10097000345DFC70091D8A42EED100280ED02A4653
:100980007D32545C204B5C54012807D04C1C165D12
:100990001E55022802D0881C115C1954194F386862
:1009A0007D262946324601F0FBF802200290B10173
:1009B00044480068FFF754FC0299414302910298B1
:1009C000411E029100280ED00298411E029100287B
:1009D00009D00298411E0291002804D00298411EBD
:1009E00002910028EBD13868074D2946019A01F0A1
:1009F000D7F8C8212846FFF7D8FB0448002101603A
:100A000003B0F0BD1400002004010020F008002015
:100A100070B5B4B00C46054601A82849C822FFF7B6
:100A2000ABFB6E46264930462A4602F01DF830469A
:100A3000FFF7E4FB012809DB054601AE3046FFF76E
:100A4000DDFB301869462A46FFF796FB01AD2846C4
:100A5000FFF7D4FB0D21295428180A2141700421E5
:100A60002846FFF707FF002823D0642033907D201D
:100A7000810114480068FFF7F3FB33994143339138
:100A80003398411E339100280ED03398411E339184
:100A9000002809D03398411E3391002804D03398A0
:100AA000411E33910028EBD103212046FFF7E2FEDF
:100AB00000E00020C0B234B070BDC0460C31000070
:100AC0005332000010000020F0B585B058480026D1
:100AD00006705848067058480660022501240494A0
:100AE000284629462246FFF791FCA1030191304692
:100AF0002246FFF78BFC6702284639462246FFF75D
:100B000085FCE103029130462246FFF77FFCE102BB
:100B1000009128462246FFF779FC484C206828437C
:100B20002060EE43606830406060A56238460C3853
:100B300001F0E0FA65622068284320606068304078
:100B40006060A5623E480168019A114301604168F6
:100B50009143416042622168394321606168B94331
:100B6000616067622168009A914321606168114366
:100B700061600168029A91430160416811434160DC
:100B80000826284603953146049F3A46FFF73EFC67
:100B90002068B0432060606830436060A0683043E4
:100BA000A0600320102631463A46FFF72FFCF2439F
:100BB000029224480168114001604168314341605C
:100BC000816831438160042728463946049D2A46BE
:100BD000FFF71CFC2068B843206060683843606001
:100BE000A0683843A0602027039839462A46FFF7BB
:100BF0000DFC2068B8432060606838436060A068DE
:100C00003843A060039831462A46FFF7FFFB20686F
:100C1000029908402060606830436060A0683043FB
:100C2000A0607D20C00001F065FA05B0F0BDC046AF
:100C3000D4010020D5010020D001002000400B404D
:100C400000000B4000600B400120C003024909680E
:100C500001404842484170471C000B40F0B581B04C
:100C600005250095284601F045FA01204702B84CB9
:100C70006760284601F03EFA27603D46703D2846F1
:100C800001F0D6FA67604B200601304601F0D0FA39
:100C90002760284601F0CCFA6760304601F0C8FAB8
:100CA0002760284601F0C4FA6760304601F0C0FAB8
:100CB0002760304601F0BCFA6760284601F0B8FAB8
:100CC0002760304601F0B4FA6760284601F0B0FAB8
:100CD0002760304601F0ACFA6760284601F0A8FAB8
:100CE0002760304601F0A4FA6760284601F0A0FAB8
:100CF0002760304601F09CFA6760284601F098FAB8
:100D00002760009801F0F6F901B0F0BDF0B581B0B0
:100D10000C46014640B2002801D4FA2002E07F20B0
:100D20000140FB2001F0AAFC002C53D005250095C2
:100D3000284601F0DFF901204702854C676028460C
:100D400001F0D8F927603D46703D284601F070FA61
:100D500067604B200601304601F06AFA276028469A
:100D600001F066FA6760304601F062FA27603046AB
:100D700001F05EFA6760284601F05AFA27602846BB
:100D800001F056FA6760304601F052FA27603046AB
:100D900001F04EFA6760284601F04AFA27603046B3
:100DA00001F046FA6760284601F042FA27603046B3
:100DB00001F03EFA6760284601F03AFA27603046B3
:100DC00001F036FA6760284601F032FA2760009891
:100DD00001F090F901B0F0BDB0B505460124204600
:100DE00001F088F95A48002D00D1001D0221016050
:100DF000204601F07FF9B0BDF0B583B0064605246A
:100E0000204601F077F901256F02514847600194AF
:100E1000204601F06FF94E4807601F3E02963540AC
:100E20004B2004013E46703E002D304600D0204647
:100E300001F0FEF946484760002D204600D03046BC
:100E400001F0F6F942480760022502980540304655
:100E500000D0204601F0ECF93D484760002D2046C7
:100E600000D0304601F0E4F93948076004250298C3
:100E70000540304600D0204601F0DAF9344847609A
:100E8000002D204600D0304601F0D2F930480760EE
:100E9000082502980540304600D0204601F0C8F9E8
:100EA0002B484760002D204600D0304601F0C0F9A5
:100EB00027480760102502980540304600D020469C
:100EC00001F0B6F922484760002D204600D0304698
:100ED00001F0AEF91E480760202502980540304613
:100EE00000D0204601F0A4F919484760002D2046A3
:100EF00000D0304601F09CF9154807604025029863
:100F00000540304600D0204601F092F91048476075
:100F1000002D204600D0304601F08AF90C480760C9
:100F2000029845B2002D304600DA204601F080F9E3
:100F300007484760002D00DA3446204601F078F972
:100F400003480760019801F0D5F803B0F0BDC04632
:100F500024400B4041680268914203D2891A80689C
:100F600008187047881A7047002343600360826046
:100F7000C160704702684368934201D10020704706
:100F8000C3689B5C0B70511C8268914200D10021A8
:100F9000016001207047F0B581B00091002A16D0A1
:100FA0000346002007E0BE4215D0DC6861555E6054
:100FB000401C82420ED00099095C1F685D686E1C5F
:100FC0009C68A642EFD1002F05D00026EDE7002057
:100FD00001B0F0BD104601B0F0BDB0B502460468E6
:100FE0004368581C9568A84203D10020002C04D106
:100FF000B0BDA04201D10020B0BDD468E154506022
:101000000120B0BD01684068411A4842484170471C
:1010100070B541098900234BC9180A6AD9691C4671
:10102000183C246807240C405D6819461439096887
:10103000890501D4002110E01968C900CE0F1A49B2
:10104000F140002D09D41D682D01ED0E00D11025B1
:1010500069431D686D02AD0FE940641E062C09D876
:101060007C4424796400A7440C03030505070A00A7
:101070000D4906E0002104E00121C90301E07D21C2
:1010800009021F2404400325A5402A40E2402E28DF
:1010900000D1921C9868052800D30520C140D1409A
:1010A000084670BD1880084000127A0070B50C4CDC
:1010B0002568002B01D0054300E08543A668E06861
:1010C0002560002B01D00E4300E08E43A660002B6C
:1010D00002D01043E06070BD9043E06070BDC04638
:1010E0002480084081627047002A03D002680A43C6
:1010F0000260704702688A4302607047B0B5846836
:1011000025468D43C368012A04D08B43002A02D1AF
:101110000C4301E00B432C468460C360B0BDF0B5C6
:1011200081B00E46412001020025012428462A46AE
:101130002346FFF7BBFF2102062728463A46FFF762
:1011400065F9A10228463A46FFF760F9A707384635
:10115000314600F073FD38462946224600F0CFFDA7
:1011600038462146224600F0CAFD01B0F0BD00001D
:1011700006480168002908D10168002905D10168E5
:10118000002902D101680029F3D070470001002036
:1011900080B5012000F00AF8022000F007F880BDB9
:1011A00080B5002000F002F880BD0000F0B581B0ED
:1011B00044214143794A5058002800D1DBE05518BA
:1011C0000C2100F022F942050126B102002A13D4B5
:1011D000C20517D4020522D4714A904222DD714A19
:1011E000904258DD1D225204904200D182E06E4AA6
:1011F00090427FD06D4936E02E63286800F0E6F813
:1012000001B0F0BD31022E63286800F0DFF82868D5
:1012100000F006F9286800F003F901B0F0BDF10212
:101220006E63EAE76249884219DC7102884272D033
:101230003104884200D09EE028696969891E88428D
:1012400003D12868002100F0B9F8286800F0E8F818
:10125000A9692A698854501C286101B0F0BD55491C
:1012600088425AD05449884200D084E028687102EC
:1012700000F0ACF8286800F0B4F8286C002879D0A9
:10128000F4042868214600F0B1F801286ED1E86B1B
:101290000128F6DA6FE019210904884203D01D21E4
:1012A0000904884267D128696969891E884203D187
:1012B0002868002100F082F8286800F0B1F8A969D8
:1012C0002A698854501C28616969884253D128686A
:1012D00000F087F80020A862286C00284BD0F404A6
:1012E0002868214600F082F8012846D1E86B0128E1
:1012F000F6DA40E02868AA68002A17D06968EA6828
:10130000515C00F090F86868401C6860A868401E56
:10131000A86001B0F0BDEE626FE7686902282AD3C9
:101320002868012100F04AF801B0F0BD0F467104B1
:101330000024224600F05FF82020285C032822D0F9
:10134000022823D0012816D1286800F04AF8AC62A0
:10135000286C00280FD0F4042868214600F046F8D5
:1013600001280AD1E86B0128F6DA04E02868002198
:1013700000F02EF8EE6201B0F0BD2868002100F008
:1013800027F801B0F0BD286800F02BF83A466F62EC
:101390002868A98B00F049F801B0F0BDD801002001
:1013A000FFFF1800FFFF390004003A0000023A0076
:1013B0000300180004001800000218004A1E9141A2
:1013C000026801239A43511801607047C160704759
:1013D0004A1E9141C900026808239A4351180160CE
:1013E0007047016802220A4302607047C0680840E3
:1013F000411E88417047002A03D042680A43426078
:10140000704742688A434260704781B00022009270
:1014100000900098401800900098006801B0704754
:101420008069C0B270478161704703689B0708D527
:1014300003689B0705D503689B0702D503689B07D4
:10144000F3D4002A02D0012292021143C1617047F5
:101450007047704780B5022000F05EFC80BD80B50B
:1014600084B0694600200881039001221202019293
:10147000E12252020092FFF752FE04B080BD00004C
:1014800009490A46103AC3B21360012212020B68DE
:10149000134208D10B68134205D10B68134202D1E5
:1014A0000B681342F3D070471000004080B5012054
:1014B00000F032FC80BD80B5002000F02DFC80BD26
:1014C0004161704701221302C269994200D012099A
:1014D0000F201040704740690840411E8841704706
:1014E000002A03D082680A438260704782688A4378
:1014F00082607047006980B2704701617047704731
:10150000F0B581B0454C06E045A14DA001F09CFA34
:10151000384601F07FFC0025A58325606560A56045
:10152000E56025616561A5612046FFF739F900286E
:10153000F1D02046FEF762FE0646401C01F094FC06
:1015400007460028E0D0002E384621D00320009026
:10155000042E38462DD200990E4019D0615D0A291B
:1015600003D00D2901D00170401C012E10D061194B
:101570004A780A2A03D00D2A01D00270401C022E9C
:1015800006D089780A2903D00D2901D00170401CAA
:10159000002101703846FEF731FE00283946B4D0EC
:1015A0000646384620A1FEF73EFEB0423946ACD191
:1015B00026E03246009882430025384602E02D1D81
:1015C000AA42C8D0635D0A2B03D00D2B01D0037053
:1015D000401C631959780A2903D00D2901D00170E4
:1015E000401C99780A2903D00D2901D00170401CB4
:1015F000D9780A29E3D00D29E1D00170401CDEE73B
:101600003846FEF720FE0446384601F003FC09A0E8
:10161000214601F019FA204601B0F0BD1800002063
:101620004E554C4C000000003031323334353637E3
:1016300038390000774E62723D25750A00000000BF
:10164000496E76616C696420696E7075743A202504
:10165000730A000002480168491C01607047C046D7
:10166000CC010020F0B586B05948102105910160E9
:101670005849C86A402203921043C862564802681B
:10168000272A08D00268272A05D00268272A02D014
:101690000268272AF3D10324A0020A6A82430A625D
:1016A0000122D0020B6803430B604868000708D48E
:1016B0004868000705D44868000702D44868000756
:1016C000F3D50868049420430423029398430860E8
:1016D000086B0724204003280BD0086B2040032808
:1016E00007D0086B2040032803D0086B2040032854
:1016F000EED13A4B1868104306250195A8431860AF
:1017000000200090C86157020868B84308601302BF
:10171000081F05681D4305600D680826B5430D6068
:1017200005683D43056095020E682E430E604D68C6
:101730006D0708D44D686D0705D44D686D0702D458
:101740004D686D07F3D5CD6A039EB543CD620F2575
:10175000ED054D6115074E692E434E6105689D43A9
:1017600005600868384308604868800708D44868FE
:10177000800705D44868800702D448688007F3D5FD
:10178000164D2868049B1843029B984328600098D4
:10179000C86108681043019B98430860086B2040AB
:1017A00001280BD0086B2040012807D0086B20408F
:1017B000012803D0086B20400128EFD12868059943
:1017C00008432860100329680143296006B0F0BD72
:1017D0000C8108400480084008A10640000208402F
:1017E00070B5204801F076FB14201FA1FFF710F917
:1017F00002202349FFF70CF9FFF782FE1728FBD8D8
:10180000204A014610460D4601F01EF916201EA181
:10181000FFF7FEF802201A49FFF7FAF8FFF770FE0B
:101820003B28FBD8174A014610460E4601F00CF93A
:1018300016201BA1FFF7ECF802201149FFF7E8F88A
:10184000FFF75EFE3B28FBD80E49044608462146BA
:1018500001F0FAF83C207043E12109016943401886
:10186000001970BDDC3100000D0A2020506C65614C
:1018700073652053657420486F7572730000000013
:10188000D9310000D43100000D0A2020506C656170
:10189000736520536574204D696E7574657300001F
:1018A0000D0A2020506C65617365205365742053C8
:1018B00065636F6E6473000080B5042000F03EFB2A
:1018C00080BD80B5012000F039FB022000F036FB1E
:1018D00080BD000080B50001B0490818FFF73AFB51
:1018E00080BDC046F0B585B00F46042800D928E178
:1018F0000490C046784400794000874402EF75A9FF
:1019000044000126B1070191BA480160B8489949DD
:10191000802402922246FFF727FBA04896492246E0
:10192000FFF722FB300441210902039700273A46C2
:101930003346FFF7BBFBB402924821463A46FFF715
:10194000DDFB31020091062538462A46FEF75EFD92
:101950003846039F21462A46FEF758FDF005884980
:1019600008603022019C2046314600F0BFF9204635
:10197000029900F0B3F920460099324600F0A4F92C
:101980009C480671DCE09B48CE4901620126750245
:10199000784841199648403080242246FFF7E4FAFF
:1019A000754841197D4840302246FFF7DDFA700442
:1019B00005210903002422463346FFF777FB6F48D1
:1019C000082529462246FFF799FB042106243046C4
:1019D0002246FEF71BFD304629462246FEF716FD3D
:1019E000700667490860ABE08248B2490161012690
:1019F0003502604841197E48203080242246FFF796
:101A0000B3FA5D484119654820302246FFF7ACFA29
:101A1000B0040321490300252A463346FFF746FB5D
:101A2000F403594821462A46FFF768FBB103022513
:101A30000397062728463A46FEF7E8FC2846214643
:101A40003A46039FFEF7E2FCB0064D49086077E096
:101A500068489A4981610320C50146484119644894
:101A60003030802402922246FFF77EFA4248411924
:101A70004A4830302246FFF777FA039701273804A7
:101A800021214902002422463B46FFF70FFB3D4837
:101A9000202529462246FFF731FB10210626204645
:101AA0003246FEF7B3FC204629463246FEF7AEFC2E
:101AB0003806334908603022804C2046394600F011
:101AC00015F92046029900F009F9390220463A46F4
:101AD00000F0FAF847480777039F31E04548764918
:101AE0008160434810302349803180242246FFF72B
:101AF0003BFA2A481030204980312246FFF734FA59
:101B00000126B0040921C90200252A463346FFF701
:101B1000CDFA74031C4821462A46FFF7EFFA310339
:101B200002250397062728463A46FEF76FFC28460B
:101B300021463A46039FFEF769FCB006104908604B
:101B40000498C5002B4E7059394600F077F870594B
:101B500000210124224600F0D2F870592146224685
:101B600000F0CDF870590921224600F0ADF805B01B
:101B7000F0BDC04670060020F003002000200B409E
:101B800000E100E000000B4000400B4080B5000188
:101B9000024A1018FFF7EEF980BDC046500300203E
:101BA000F0B581B0164600910446000110490F18A7
:101BB000BD683846FFF7CEF93246C04328180026E4
:101BC000824211D838460099FFF7E5F900280BD07A
:101BD0000546E00007490A180023537108580621FA
:101BE000012200F071F82E46304601B0F0BDC0462B
:101BF000A00300202803002080B5002000F09EF9FB
:101C000080BD80B5032000F099F980BD02690A40CB
:101C100002617047012901D0182100E0102182687B
:101C2000CA400F201040704700690840411E88419B
:101C30007047C0680840411E88417047B0B50D46E6
:101C40000446406819490140E8880843A9880143CF
:101C500028890843E96801436160002014498C42E7
:101C60000BDC012189078C4212D015498C4213D01C
:101C700014498C4215D1082011E00E498C4209D03C
:101C80000D498C420AD00D498C420AD11A2006E037
:101C9000182004E00A2002E01C2000E01E20FFF7CC
:101CA000B7F92968FEF7DCFA6062B0BDFCE0FFFF1F
:101CB000FFFF0340002004400010044000000440E7
:101CC0000010004000200040002A03D0C2680A43F0
:101CD000C2607047C2688A43C260704742697F230E
:101CE0009A430A43802111434161704749008A4069
:101CF00030238B40816899431143816070471023E2
:101D00008B40002A03D04168194341607047416805
:101D1000994341607047000070B5800186490E18F4
:101D2000085801242146FFF7D6FB012800D0B7E070
:101D300030688168C90700D1B2E03569002D44D010
:101D4000082D5FD3B1694A1CB2617268515CFFF71C
:101D5000D4FBB169481CB06105CE515C083EFFF769
:101D6000CCFBB169481CB06105CE515C083EFFF761
:101D7000C4FBB169481CB06105CE515C083EFFF759
:101D8000BCFBB169481CB06105CE515C083EFFF751
:101D9000B4FBB169481CB06105CE515C083EFFF749
:101DA000ACFBB169481CB06105CE515C083EFFF741
:101DB000A4FBB169481CB06105CE515C083EFFF739
:101DC0009CFB3069083830616AE0416903220A40AF
:101DD000032A65D101210022FFF782FB30684068A9
:101DE00040045DD4706AB16A01252A46FEF70EFBF5
:101DF000318D306AFFF776F9318D306A2A46FFF768
:101E000073F94DE0B169481CB06105CE515C083EE4
:101E1000FFF773FB3069401E3061012D40D0B1697E
:101E2000481CB06105CE515C083EFFF766FB306987
:101E3000401E3061022D33D0B169481CB06105CE1F
:101E4000515C083EFFF759FB3069401E3061032D9D
:101E500026D0B169481CB06105CE515C083EFFF741
:101E60004CFB3069401E3061042D19D0B169481C0B
:101E7000B06105CE515C083EFFF73FFB3069401E64
:101E80003061052D0CD0B169481CB06105CE515CA4
:101E9000083EFFF732FB3069401E3061062D40D10D
:101EA00030680421FFF717FB01281AD1306865025A
:101EB00008E03068FFF71EFBF1694A1CF261B26866
:101EC000505430682946FFF7FDFA002809D07069A0
:101ED000F1698142EDD3B4633068FFF70BFB3068E2
:101EE000F0E730681021FFF7F6FA012803D13068D7
:101EF0001021FFF7E5FA30682021FFF7ECFA0128FE
:101F000003D130682021FFF7DBFA30684021FFF76A
:101F1000E2FA012804D1746330684021FFF7D0FA57
:101F200070BDB169481CB06105CE515C083EFFF739
:101F3000E4FA3069401E46E7E8020020F0B583B0BD
:101F40000446C500684E7059002800D1C9E002213E
:101F5000FFF76AFE002800D0FEE777193868802175
:101F6000FFF762FE00285ED0200160490D18284668
:101F7000FFF748F8002805D0386802210022FFF753
:101F8000A3FE50E03879019002AE28463146FEF7B4
:101F9000F1FF3868317801600198012843D1284663
:101FA000FFF730F800283ED102AE28463146FEF752
:101FB000E1FF3868317801602846FFF723F80028F0
:101FC00031D102AE28463146FEF7D4FF3868317869
:101FD00001602846FFF716F8002824D102AE2846F3
:101FE0003146FEF7C7FF3868317801602846FFF7B1
:101FF00009F8002817D102AE28463146FEF7BAFF8D
:102000003868317801602846FEF7FCFF00280AD1C5
:1020100002AE28463146FEF7ADFF386831780160E0
:102020002846FEF7EFFF38683979002939D040217A
:10203000FFF7FAFD002818D038684021FFF7E6FDC9
:1020400038680221FFF7E6FD00280ED0200128495C
:102050000D1838680068C1B22846FEF7BEFF386820
:102060000221FFF7D7FD0028F3D138682021FFF7C0
:10207000DBFD002822D038680221FFF7CBFD0028C5
:102080001CD020011A490C1838680068C1B22046DB
:10209000FEF7A3FF38680221FFF7BCFD0028F3D14B
:1020A0000CE02021FFF7C0FD002807D020011049D7
:1020B000081839680968C9B2FEF78FFF386804212B
:1020C000FFF7B7FD00280CD0386801242102FFF784
:1020D000ABFD002805D0386804210022FFF7F4FD8D
:1020E0007C7103B0F0BDC04628030020A00300208F
:1020F00050030020F0B582B0002833D003230146FE
:1021000019400091494A564904282DD2009E002EBC
:1021100028D000240C608A60081F036806252B4322
:1021200003600B68002B08D10B68002B05D10B68EE
:10213000002B02D10B68002BF3D0012E12D00C60C3
:102140008A6003682B4303600B68002B08D10B687F
:10215000002B05D10B68002B02D10B68002BF3D0AC
:10216000022E51D102B0F0BD98430025019502E046
:102170002D1D8542CAD0019B0B608A600E1F3368FB
:1021800006273B4333600B68002B08D10B68002BFC
:1021900005D10B68002B02D10B68002BF3D0002374
:1021A0000B608A6034683C4334600C68002C08D1B2
:1021B0000C68002C05D10C68002C02D10C68002C96
:1021C000F3D00B608A6034683C4334600C68002CA8
:1021D00008D10C68002C05D10C68002C02D10C68C9
:1021E000002CF3D00B608A6033683B4333600B688C
:1021F000002BBDD10B68002BBAD10B68002BB7D1D7
:102200000B68002BF3D0B3E70C608A6002682A43A6
:10221000026008680028A5D108680028A2D10868D3
:1022200000289FD108680028F3D09BE760EA0000EF
:102230000B4900220A603C2242438A60081F026860
:102240000623134303600868002808D108680028A3
:1022500005D10868002802D108680028F3D070472B
:102260000460074080B5FFF70BF980BD84B0FFF72D
:10227000F6F8E1204002FEF787F90F200004012361
:1022800099031A04FEF712FF7D200090C1008948CF
:102290000068FDF7E5FF401E010E0DD18649874A13
:1022A0005060874803680B40032189075918016073
:1022B0000020906007201060FEF706FC0120FEF76A
:1022C0008BFD6420FFF716FF0620FEF795FD7DA02D
:1022D00000F0BAFB80A081A1FEF7B2F982A05021E4
:1022E000FEF764F9012801D086A000E081A000F08B
:1022F000F1FD052086A1FEF78BFB87A000F0A4FB73
:10230000874C0AE000200146FEF700FD04208F49BB
:10231000FEF77EFB284600F07DFD2046FEF740FAE2
:102320000128FAD17FA0214600F08EFB2046FDF760
:1023300065FF0646401C00F097FD0546002828D0A2
:10234000002E284623D00320042E019000D38AE0DB
:1023500000212846019A164019D0625C0A2A03D04F
:102360000D2A01D00270401C012E10D061184A784D
:102370000A2A03D00D2A01D00270401C022E06D07A
:1023800089780A2903D00D2901D00170401C002151
:10239000017069A0294600F057FB28466B49FDF7FC
:1023A00034FF002835D028466949FDF72EFF002864
:1023B000B0D106206649FEF72BFBFEF745FC00284E
:1023C00020D0FEF74BFC3220039000988101394861
:1023D0000068FDF745FF0399414303910398411EAF
:1023E000039100280ED00398411E0391002809D0C4
:1023F0000398411E0391002804D00398411E0391C5
:102400000028EBD100F0A6F800200146FEF77EFC84
:1024100080E7FEF719FC002800D173E7FEF71EFCE9
:10242000322002900098810122480068FDF718FFD1
:102430000299414302910298411E0291002800D165
:1024400060E70298411E0291002800D15AE70298E5
:10245000411E0291002800D154E70298411E0291CA
:102460000028E8D14EE7334683430021284603E0A5
:10247000091D8B4200D16DE7675C0A2F03D00D2F39
:1024800001D00770401C67187A780A2A03D00D2AF9
:1024900001D00270401CBA780A2A03D00D2A01D05C
:1024A0000270401CFA780A2AE2D00D2AE0D00270AD
:1024B000401CDDE710000020FFFFFF0010E000E0FF
:1024C00020ED00E054435020436F6E6E656374202E
:1024D000526573756C743A004135340072656D79DC
:1024E0003232373100000000332E32352E39352E8E
:1024F0003132320054435020737563636573730D3A
:1025000000000000544350206661696C0D0000001B
:10251000313233343500000068656C6C6F000000A8
:1025200018000020526563656976656420646174F3
:10253000613A2025730A0000436C65616E65642072
:10254000646174613A2025730A0000003D32000086
:1025500036320000F0B589B0FFF742F904462CA0EE
:10256000214600F071FA002C48D034A701E0641E27
:1025700044D020462E49FDF773FE0D46E1200601AA
:1025800008463146FDF76CFE01464643A81B82B261
:10259000284B5A43520D3C235343C01A83B226485A
:1025A00000F052FA6D4628463946224600F05CFAA1
:1025B0002846FDF723FE2946FEF72AFA7D20C100B2
:1025C0000891810121480068FDF74AFE08994143BE
:1025D00008910898411E08910028C8D00898411E0B
:1025E00008910028C3D00898411E08910028BED049
:1025F0000898411E08910028EBD1B8E714A000F01C
:1026000069FC122018A1FEF703FA09B0F0BDC0461C
:10261000436F756E74646F776E2073746172743A71
:10262000202575207365636F6E64730D0A000000CA
:1026300080510100898800002032000054696D65D6
:10264000204C6566743A2025750D0A0010000020A4
:10265000436F756E74646F776E2066696E69736818
:102660006564210D00000000436F756E74646F7720
:102670006E2046696E69736865640000F0B589B0C4
:102680000D46089005263046FFF734FD01277C02F1
:10269000EC4844603046FFF72DFD4B2001010795C3
:1026A000E848FF2D00D091E00460089807402646D6
:1026B000703C002F20460D4600D02846FFF7B8FD9D
:1026C000E0484660002F284600D02046FFF7B0FDC6
:1026D0003746DC480660022608980640204600D0AF
:1026E0002846FFF7A5FDD7484760002E284600D0B2
:1026F0002046FFF79DFDD348076004260898064052
:10270000204600D02846FFF793FDCE484760002EB4
:10271000284600D02046FFF78BFDCA4807600826F0
:1027200008980640204600D02846FFF781FDC5489E
:102730004760002E284600D02046FFF779FDC148AB
:102740000760102608980640204600D02846FFF76C
:102750006FFDBC484760002E284600D02046FFF79A
:1027600067FDB8480760202608980640204600D03C
:102770002846FFF75DFDB3484760002E284600D08D
:102780002046FFF755FDAF480760402608980640F1
:10279000204600D02846FFF74BFDAA484760002E90
:1027A000284600D02046FFF743FDA648076008985A
:1027B00046B2002E204600DA2846FFF739FDA14830
:1027C0004760002E00DA2546284632E10460089E64
:1027D00006973E402546703D002E284627460C466B
:1027E00000D02046FFF724FD96484760002E204683
:1027F00000D02846FFF71CFD924807600220089E83
:1028000005900640284600D02046FFF711FD8D4870
:102810004760002E204600D02846FFF709FD894872
:1028200007600420089E04900640284600D02046F9
:10283000FFF7FEFC83484760002E204600D0284664
:10284000FFF7F6FC7F4807600820089E03900640CB
:10285000284600D02046FFF7EBFC7A484760002E60
:10286000204600D02846FFF7E3FC7648076010209A
:10287000089E02900640284600D02046FFF7D8FC6C
:1028800070484760002E204600D02846FFF7D0FC55
:102890006C4807602020089E01900640284600D022
:1028A0002046FFF7C5FC67484760002E204600D051
:1028B0002846FFF7BDFC634807604020089E009053
:1028C0000640284600D02046FFF7B2FC5D4847602E
:1028D000002E204600D02846FFF7AAFC5948076082
:1028E000089846B2002E284600DA2046FFF7A0FCE2
:1028F00054484760002E204600DA2846FFF798FC2F
:102900005048076005263046FFF7F4FB4D494F60FD
:1029100030460E46FFF7EEFB3760079806990140F8
:102920000691284600D02046FFF782FC7760069883
:102930000028204600D02846FFF77AFC3760079829
:10294000059901400591284600D02046FFF770FC0C
:10295000776005980028204600D02846FFF768FCDD
:1029600037600798049901400491284600D020461A
:10297000FFF75EFC776004980028204600D02846C8
:10298000FFF756FC376007980399014003912846EA
:1029900000D02046FFF74CFC7760039800282046C3
:1029A00000D02846FFF744FC3760079802990140A1
:1029B0000291284600D02046FFF73AFC7760029843
:1029C0000028204600D02846FFF732FC37600798E1
:1029D000019901400191284600D02046FFF728FCCC
:1029E000776001980028204600D02846FFF720FC99
:1029F00037600798009901400091284600D0204692
:102A0000FFF716FC776000980028204600D0284683
:102A1000FFF70EFC3760079846B2002E284600DA12
:102A20002046FFF705FC07484760002E00DA2C46D9
:102A30002046FFF7FDFB034807600520FFF75AFB20
:102A400009B0F0BD24400B400FB410B503A9044BEE
:102A5000044A029800F030F810BC08BC04B01847D3
:102A600065220000000000200FB410B504A9074B38
:102A700002AA039800F020F8044602A9002000F002
:102A8000C3F9204610BC08BC04B01847092E00004A
:102A9000004870470C00002002E008C8121F08C15F
:102AA000002AFAD170477047002001E001C1121FCF
:102AB000002AFBD170470000FFB58FB00546002605
:102AC00006E025280AD0129A119990476D1C761CB1
:102AD00028780028F5D1304613B0F0BD00240294C8
:102AE0000121B54A009400E004436D1C2B78084690
:102AF000203B98401042F7D128782A280ED0022295
:102B0000287801463039092916D802990A235943F1
:102B10003039401814436D1C0290F1E7109802C838
:102B200002911090002904DA012040030443484236
:102B30000290022004436D1C28782E2817D104200F
:102B4000044368786D1C2A280CD110986D1C02C8AB
:102B5000009110900BE000990A225143303940183F
:102B60006D1C00902878014630390929F3D928785E
:102B70006C2810D006DC4C281AD068280ED06A28A1
:102B800017D104E0742813D07A2812D110E0012064
:102B9000400504430CE00121090501E0032109057A
:102BA0000C436978814203D10120000524186D1C73
:102BB0006D1C2878692874D006DC00288BD0632827
:102BC00027D0642806D16CE06E2808D073282CD05A
:102BD000752878D0129A11999047761C5FE06002B0
:102BE000400F022809D003280DD00428109801684E
:102BF0000DD00E60001D109051E01098F217016882
:102C00000E604A60F6E7109801680E80F2E70E70D9
:102C1000F0E710986A4601781173001D10900020AB
:102C2000507303A80190012005E0109802C801919B
:102C300010900020C04361070CD5002700E07F1CE6
:102C400000998F420FDA8742F9DB0199C95D0029AB
:102C5000F5D108E0002700E07F1C8742FCDB0199EA
:102C6000C95D0029F8D102982146C01B0290129B31
:102C7000119A00F0B3F88019C61907E0019801997C
:102C80000078491C0191129A119990477F1EF5D244
:102C90002146129B119A029800F090F886196D1C3B
:102CA00016E70A200190109901C910916102490F9D
:102CB000032900D100B2042900D140B2002803DA70
:102CC00040422D2103E00DE0210504D52B216A4669
:102CD0001173012103E0E10711D02021F7E70CAFC8
:102CE0000C9114E00A200190109901C91091610221
:102CF000490F032900D180B2042900D1C0B20021BC
:102D0000EDE70199FDF7ACFA30317F1E39700028EC
:102D1000F7D104A8C01B20300190600704D5012022
:102D200000048443009801E001200090019988424A
:102D300001DD401A00E00020411800900C980918AD
:102D40000298401A0290E00306D42146129B119A81
:102D5000029800F043F8861900200D9008E003A9BE
:102D6000085C129A119990470D98401C761C0D90A2
:102D70000C998842F3DBE0030CD52146129B119A93
:102D8000029800F02BF8861904E0129A302011996D
:102D90009047761C0099481E00900029F5DC05E05C
:102DA0003878129A7F1C11999047761C0199481E19
:102DB00001900029F4DC6BE709280100F8B504460E
:102DC00000251E461746880404D405E03946202015
:102DD000B0476D1C641EF9D52846F8BDFFB5044602
:102DE000002581B01E46C80301D5302700E020270A
:102DF000880404D505E038460399B0476D1C641E6D
:102E0000F9D5284605B0F0BD0A68531C0B60107058
:102E10007047000010B5002823D0124B0022001F7D
:102E2000196803E0814203D80A4649680029F9D1AC
:102E3000002A0AD01368841A9C4204D1006818182A
:102E40001060104602E0506000E01860002907D0D2
:102E500002680B1A934203D10B68D21802604968CA
:102E6000416010BD04000020F0B50B30C108C9005E
:102E7000144F0026144A0FE003688B420BD38B4299
:102E800005D95C1A4318456830C3083B00E0436825
:102E9000136002C004E0021D10680028ECD1304627
:102EA000002803D13868002801D00020F0BD064A70
:102EB00006481060064A121AD208D20044C0012007
:102EC0003860D7E70800002004000020C409002073
:102ED000C009002010B5044601E0FFF7C3F92078CF
:102EE000641C03490028F8D10A20FFF7BBF910BD84
:102EF00000000020004040404040404040404141F0
:102F000041414140404040404040404040404040BE
:102F10004040404040050202020202020202020258
:102F20000202020202202020202020202020200255
:102F300002020202020290909090909010101010E5
:102F40001010101010101010101010101010101081
:102F50000202020202028888888888880808080815
:102F600008080808080808080808080808080808E1
:102F70000202020240000000F52E000041542B43E3
:102F8000495053544152543D22544350222C220064
:102F90000000000000000000000000000000000031
:102FA0000000000000000000000000000000000021
:102FB0000000000000000000000000000000000011
:102FC0000000000000000000000000000000000001
:102FD00000000000000000000000000000000000F1
:102FE00000000000000000000000000000000000E1
:102FF00000000000000000000000000000000000D1
:1030000000000000000000000000000000000000C0
:1030100000000000000000000000000000000000B0
:1030200000000000000000000000000000000000A0
:103030000000000000000000000000000000000090
:103040000000000041542B43574A41503D220000EC
:103050000000000000000000000000000000000070
:103060000000000000000000000000000000000060
:103070000000000000000000000000000000000050
:103080000000000000000000000000000000000040
:103090000000000000000000000000000000000030
:1030A0000000000000000000000000000000000020
:1030B0000000000000000000000000000000000010
:1030C0000000000000000000000000000000000000
:1030D00000000000000000000000000000000000F0
:1030E00000000000000000000000000000000000E0
:1030F00000000000000000000000000000000000D0
:1031000000000000000000000000000041542B43BC
:10311000495053454E443D000000000000000000AF
:10312000000000000000000000000000000000009F
:10313000000000000000000000000000000000008F
:10314000000000000000000000000000000000007F
:10315000000000000000000000000000000000006F
:10316000000000000000000000000000000000005F
:10317000000000000000000000000000000000004F
:10318000000000000000000000000000000000003F
:10319000000000000000000000000000000000002F
:1031A000000000000000000000000000000000001F
:1031B000000000000000000000000000000000000F
:1031C00000000000000000000000000000000000FF
:1031D000000000003A202025750D0A000D0A3D3D33
:1031E0003D3D3D3D3D3D3D3D3D3D3D3D54696D6574
:1031F0002053657474696E67733D3D3D3D3D3D3DB3
:103200003D3D3D3D3D3D3D3D3D3D3D3D3D3D3D3DEE
:103210003D3D3D3D3D3D3D3D3D3D3D3D3D3D0D004B
:1032200054696D653A20253032753A253032753A49
:10323000253032750D0054696D696E670066616CEA
:103240006C00220D0A00222C300D0A00222C2200D4
:103250004F4B002564000000783200000000002081
:1032600038000000982A0000B0320000380000202A
:10327000880D0000A82A00000000000000000000E7
:103280000000000000000000008793030100000020
:10329000200000000000000000000000000000000E
:1032A000000000000000000000000000000000001E
:04000005000000C136
:00000001FF
