:020000040000FA
:1000000028040020C100000005090000E5080000E8
:10001000FFFFFFFFFFFFFFFFFFFFFFFFFFFFFFFFF0
:10002000FFFFFFFFFFFFFFFFFFFFFFFF09090000CA
:10003000FFFFFFFFFFFFFFFF070900000D090000A2
:1000400035010000350100003501000035010000D8
:1000500035010000350100003501000035010000C8
:1000600035010000350100003501000035010000B8
:1000700035010000350100003501000035010000A8
:100080003501000035010000350100003501000098
:100090003501000035010000350100003501000088
:1000A0003501000035010000350100003501000078
:1000B0003501000035010000350100003501000068
:1000C0001D4880471D4880471D4800471D4801695D
:1000D000002908D14169002905D18169002902D18F
:1000E000C169002909D01848C1680901090D002912
:1000F0000ED005290CD006290AD0BFF34F8F134824
:100100001349016013491248C860BFF34F8FFEE7DF
:100110000E4801680E48884200D070470E480F49CB
:1001200001600A480E4901607047FEE7FEE7FEE7FE
:10013000FEE7FEE7FEE70000CD0000001D0900001D
:100140006501000000030840800108400000002015
:100150000400FA0500ED00E0008108400100000005
:10016000000000000348854600F026F800480047DC
:10017000090C00002804002070B50446002903D0B3
:1001800000202022012310E0002801D00020C043DD
:10019000C046C0460DE02546D5408D4205D30D46EC
:1001A0009540641B1D46954040191546521E002D72
:1001B000F1DC214670BD00001CB5094800900948DB
:1001C000019005460126009C05E0E36807CC334317
:1001D0000C3C98471034AC42F7D3FFF7C7FF000040
:1001E0002C1100004C110000F0B58EB0C0005C4B2B
:1001F000C4180F23180207901803089018040990D8
:1002000018050A9018060B9018070C900E060D940E
:1002100052D00120084045422F461F4088070590D4
:1002200000D5F0374807049001D507980743080721
:10023000039001D508980743C806029001D5099894
:1002400007438806019001D50A98074348060090A5
:1002500003D530460B9E374306460696002E01D541
:100260000C9E37430D9C2468BC4317010598C617A4
:100270003E401540354316020498C71737402F43B8
:1002800015030398C6172E403E4315040298C7175E
:100290002F40374315050198C6172E403E431506DB
:1002A0000098C017284030431507069EF6172E40C9
:1002B000064326430D9C26600E04300E41D0C8052F
:1002C000C7173B408805069000D5F03348050590D8
:1002D00001D5079803430805079001D50898034303
:1002E000C80408902FD4880431D4490433D4002E94
:1002F00001D50C9D2B4365689D431301069CE417B3
:100300001C40174027431302059CE4171C403C4344
:100310001303079FFF171F4027431304089CE4178C
:100320001C403C431305C017184020431306C9174F
:10033000194001431007F21702400A432A430D985F
:1003400042600EB0F0BD099803438804CDD50A9DE4
:100350002B434904CBD50B9D2B43002EC9D4CAE7B0
:1003600020200240F0B585B0E84800260670E84835
:100370000670564806600225012404942846294642
:100380002246FFF731FFA103019130462246FFF7D5
:100390002BFF6702284639462246FFF725FFE10377
:1003A000029130462246FFF71FFFE10200912846E6
:1003B0002246FFF719FF464C206828432060EE4391
:1003C000606830406060A56238460C3800F064FB1D
:1003D0006562206828432060606830406060A562E4
:1003E0003C480168019A11430160416891434160B2
:1003F00042622168394321606168B9436160676284
:100400002168009A9143216061681143616001682D
:10041000029A9143016041681143416008262846D1
:1004200003953146049F3A46FFF7DEFE2068B0434D
:100430002060606830436060A0683043A0600320A3
:10044000102631463A46FFF7CFFEF2430292224889
:100450000168114001604168314341608168314366
:100460008160042728463946049D2A46FFF7BCFED2
:100470002068B8432060606838436060A0683843F3
:10048000A0602027039839462A46FFF7ADFE206872
:10049000B8432060606838436060A0683843A0605B
:1004A000039831462A46FFF79FFE206802990840CC
:1004B0002060606830436060A0683043A0607D20A9
:1004C000C00000F0E9FA05B0F0BDC0461C000020F5
:1004D00000400B4000000B4000600B408B4801784F
:1004E000012903D1002101700120704700207047CD
:1004F0000120C00302490968014048424841704751
:100500001C000B40F0B581B005250095284600F091
:10051000C3FA01204702E24C6760284600F0BCFAAB
:1005200027603D46703D284600F054FB67604B2035
:100530000601304600F04EFB2760284600F04AFBDB
:100540006760304600F046FB2760284600F042FB1B
:100550006760304600F03EFB2760304600F03AFB13
:100560006760284600F036FB2760304600F032FB1B
:100570006760284600F02EFB2760304600F02AFB1B
:100580006760284600F026FB2760304600F022FB1B
:100590006760284600F01EFB2760304600F01AFB1B
:1005A0006760284600F016FB2760009800F074FA98
:1005B00001B0F0BDF0B581B00C46014640B2002854
:1005C00001D4FA2002E07F200140FB2000F0B8FBBC
:1005D000002C53D005250095284600F05DFA012037
:1005E0004702AF4C6760284600F056FA27603D4648
:1005F000703D284600F0EEFA67604B200601304659
:1006000000F0E8FA2760284600F0E4FA6760304618
:1006100000F0E0FA2760304600F0DCFA6760284618
:1006200000F0D8FA2760284600F0D4FA6760304618
:1006300000F0D0FA2760304600F0CCFA6760284618
:1006400000F0C8FA2760304600F0C4FA6760284618
:1006500000F0C0FA2760304600F0BCFA6760284618
:1006600000F0B8FA2760304600F0B4FA6760284618
:1006700000F0B0FA2760009800F00EFA01B0F0BD6B
:10068000234800787047C04610B500F027F91A4992
:100690000A68821A0B2A2ED30860184A13681021A0
:1006A0000B405842584113681B0700D4801C136844
:1006B00004242340C0186040114B1B68DB0600D4A3
:1006C00008301268920600D408430E4A13780E4987
:1006D0000C78002C0AD0C4B29C4204D00B4B0124ED
:1006E0001C700B4B18701070002003E0C0B29842D1
:1006F00001D00120087010BD0C0000201C400B40F0
:100700001C600B400800002010000020200000208A
:10071000210000200349002800D0091D012080038A
:100720000860704724000B40B0B505460124204600
:1007300000F0B2F95A48002D00D1001D02210160DD
:10074000204600F0A9F9B0BDF0B583B006460524F7
:10075000204600F0A1F901256F025148476001943D
:10076000204600F099F94E4807601F3E029635403A
:100770004B2004013E46703E002D304600D02046FE
:1007800000F028FA46484760002D204600D0304649
:1007900000F020FA424807600225029805403046E2
:1007A00000D0204600F016FA3D484760002D204654
:1007B00000D0304600F00EFA394807600425029850
:1007C0000540304600D0204600F004FA3448476027
:1007D000002D204600D0304600F0FCF9304807607C
:1007E000082502980540304600D0204600F0F2F976
:1007F0002B484760002D204600D0304600F0EAF933
:1008000027480760102502980540304600D0204652
:1008100000F0E0F922484760002D204600D0304625
:1008200000F0D8F91E4807602025029805403046A0
:1008300000D0204600F0CEF919484760002D204630
:1008400000D0304600F0C6F91548076040250298F0
:100850000540304600D0204600F0BCF91048476003
:10086000002D204600D0304600F0B4F90C48076057
:10087000029845B2002D304600DA204600F0AAF971
:1008800007484760002D00DA3446204600F0A2F900
:1008900003480760019800F0FFF803B0F0BDC046C0
:1008A00024400B4070B50C4C2568002B01D005434B
:1008B00000E08543A668E0682560002B01D00E4368
:1008C00000E08E43A660002B02D01043E06070BDB4
:1008D0009043E06070BDC046248008400E48006828
:1008E0007047C04606480168002908D10168002900
:1008F00005D10168002902D101680029F3D07047B1
:1009000014000020704770477047000002480168DB
:10091000491C01607047C04618000020F0B586B041
:1009200059481021059101605849C86A4022039234
:100930001043C86256480268272A08D00268272A4E
:1009400005D00268272A02D00268272AF3D103249F
:10095000A0020A6A82430A620122D0020B680343A2
:100960000B604868000708D44868000705D4486849
:10097000000702D448680007F3D5086804942043B0
:100980000423029398430860086B0724204003283F
:100990000BD0086B2040032807D0086B20400328A9
:1009A00003D0086B20400328EED13A4B186810435F
:1009B00006250195A843186000200090C8615702E1
:1009C0000868B84308601302081F05681D430560E6
:1009D0000D680826B5430D6005683D430560950226
:1009E0000E682E430E604D686D0708D44D686D0784
:1009F00005D44D686D0702D44D686D07F3D5CD6AF7
:100A0000039EB543CD620F25ED054D6115074E6977
:100A10002E434E6105689D430560086838430860B1
:100A20004868800708D44868800705D4486880076C
:100A300002D448688007F3D5164D2868049B1843F4
:100A4000029B984328600098C86108681043019B86
:100A500098430860086B204001280BD0086B2040A9
:100A6000012807D0086B2040012803D0086B2040E4
:100A70000128EFD1286805990843286010032968E8
:100A80000143296006B0F0BD0C8108400480084095
:100A900008A1064000020840F0B582B0002833D01B
:100AA0000323014619400091494A564904282DD292
:100AB000009E002E28D000240C608A60081F036866
:100AC00006252B4303600B68002B08D10B68002B15
:100AD00005D10B68002B02D10B68002BF3D0012E3F
:100AE00012D00C608A6003682B4303600B68002BF4
:100AF00008D10B68002B05D10B68002B02D10B68C5
:100B0000002BF3D0022E51D102B0F0BD9843002546
:100B1000019502E02D1D8542CAD0019B0B608A60C1
:100B20000E1F336806273B4333600B68002B08D148
:100B30000B68002B05D10B68002B02D10B68002B32
:100B4000F3D000230B608A6034683C4334600C6847
:100B5000002C08D10C68002C05D10C68002C02D1A7
:100B60000C68002CF3D00B608A6034683C4334601E
:100B70000C68002C08D10C68002C05D10C68002CE6
:100B800002D10C68002CF3D00B608A6033683B43C1
:100B900033600B68002BBDD10B68002BBAD10B68FA
:100BA000002BB7D10B68002BF3D0B3E70C608A6041
:100BB00002682A43026008680028A5D10868002856
:100BC000A2D1086800289FD108680028F3D09BE7CD
:100BD00060EA00000B4900220A603C2242438A601E
:100BE000081F02680623134303600868002808D121
:100BF0000868002805D10868002802D10868002884
:100C0000F3D070470460074082B00F200004012336
:100C100099031A04FFF746FE7D20C1003E48006894
:100C2000FFF7AAFA401E010E0DD13C493C4A506024
:100C30003C4803680B4003218907591801600020D4
:100C4000906007201060FFF78DFB01200190FFF7F7
:100C50006BFD6420FFF720FF0620FFF775FD324D86
:100C6000324E334F334C06E0087000200146FFF748
:100C7000A1FC00202070FFF73BFC411E4842484188
:100C80002870FFF747FDFFF7FFFCFFF727FC002860
:100C9000F1D0FFF7F5FC30703978002901D03870B9
:100CA000E7E7C1070ED1810715D441071CD401071E
:100CB00028D4387010202070204908780828D4D80B
:100CC000401CD1E738700198207028780128CCD1D9
:100CD000FFF718FCCDE73870022020701648007826
:100CE0000A28C6D8401C07E038700420207012483B
:100CF00000780028BDD0401E0F490870C0B2FFF731
:100D000023FDB6E73870082020700C4908780028C9
:100D1000ABD0401EA8E7C04600000020FFFFFF0048
:100D200010E000E020ED00E026000020220000207E
:100D300024000020230000200400002025000020C3
:100D4000F0B589B00D46089005263046FFF7A4FEA1
:100D500001277C02EC4844603046FFF79DFE4B20A3
:100D600001010795E848FF2D00D091E00460089844
:100D700007402646703C002F20460D4600D02846EE
:100D8000FFF728FFE0484660002F284600D02046A5
:100D9000FFF720FF3746DC48066002260898064029
:100DA000204600D02846FFF715FFD7484760002EA1
:100DB000284600D02046FFF70DFFD34807600426E1
:100DC00008980640204600D02846FFF703FFCE488B
:100DD0004760002E284600D02046FFF7FBFECA4899
:100DE0000760082608980640204600D02846FFF7EE
:100DF000F1FEC5484760002E284600D02046FFF788
:100E0000E9FEC1480760102608980640204600D039
:100E10002846FFF7DFFEBC484760002E284600D07A
:100E20002046FFF7D7FEB8480760202608980640FE
:100E3000204600D02846FFF7CDFEB3484760002E7D
:100E4000284600D02046FFF7C5FEAF480760402681
:100E500008980640204600D02846FFF7BBFEAA4867
:100E60004760002E284600D02046FFF7B3FEA64874
:100E70000760089846B2002E204600DA2846FFF7A1
:100E8000A9FEA1484760002E00DA2546284632E137
:100E90000460089E06973E402546703D002E284679
:100EA00027460C4600D02046FFF794FE9648476040
:100EB000002E204600D02846FFF78CFE924807609F
:100EC0000220089E05900640284600D02046FFF7E5
:100ED00081FE8D484760002E204600D02846FFF74F
:100EE00079FE894807600420089E04900640284641
:100EF00000D02046FFF76EFE83484760002E204654
:100F000000D02846FFF766FE7F4807600820089E4D
:100F100003900640284600D02046FFF75BFE7A4843
:100F20004760002E204600D02846FFF753FE764843
:100F300007601020089E02900640284600D02046F8
:100F4000FFF748FE70484760002E204600D0284634
:100F5000FFF740FE6C4807602020089E0190064085
:100F6000284600D02046FFF735FE67484760002E30
:100F7000204600D02846FFF72DFE6348076040203A
:100F8000089E00900640284600D02046FFF722FE2B
:100F90005D484760002E204600D02846FFF71AFE25
:100FA00059480760089846B2002E284600DA2046C5
:100FB000FFF710FE54484760002E204600DA28460E
:100FC000FFF708FE5048076005263046FFF764FD2E
:100FD0004D494F6030460E46FFF75EFD376007987B
:100FE000069901400691284600D02046FFF7F2FD01
:100FF000776006980028204600D02846FFF7EAFDD3
:1010000037600798059901400591284600D0204691
:10101000FFF7E0FD776005980028204600D02846BD
:10102000FFF7D8FD376007980499014004912846DE
:1010300000D02046FFF7CEFD7760049800282046B8
:1010400000D02846FFF7C6FD376007980399014096
:101050000391284600D02046FFF7BCFD7760039837
:101060000028204600D02846FFF7B4FD37600798D7
:10107000029901400291284600D02046FFF7AAFDC0
:10108000776002980028204600D02846FFF7A2FD8E
:1010900037600798019901400191284600D0204609
:1010A000FFF798FD776001980028204600D0284679
:1010B000FFF790FD3760079800990140009128469E
:1010C00000D02046FFF786FD776000980028204674
:1010D00000D02846FFF77EFD3760079846B2002E05
:1010E000284600DA2046FFF775FD07484760002EC6
:1010F00000DA2C462046FFF76DFD03480760052007
:10110000FFF7CAFC09B0F0BD24400B4002E008C85C
:10111000121F08C1002AFAD170477047002001E071
:1011200001C1121F002AFBD1704700004C110000C2
:1011300000000020080000000C1100005411000005
:1011400008000020200400001C1100000087930309
:041150000600000095
:04000005000000C136
:00000001FF
