:020000040000FA
:1000000008020020C1000000E1030000C10300005D
:10001000FFFFFFFFFFFFFFFFFFFFFFFFFFFFFFFFF0
:10002000FFFFFFFFFFFFFFFFFFFFFFFFE5030000F4
:10003000FFFFFFFFFFFFFFFFE3030000E7030000F8
:1000400035010000350100003501000035010000D8
:1000500035010000350100003501000035010000C8
:1000600035010000350100003501000035010000B8
:1000700035010000350100003501000035010000A8
:100080003501000035010000350100003501000098
:100090003501000035010000350100003501000088
:1000A0003501000035010000350100003501000078
:1000B0003501000035010000350100003501000068
:1000C0001D4880471D4880471D4800471D4801695D
:1000D000002908D14169002905D18169002902D18F
:1000E000C169002909D01848C1680901090D002912
:1000F0000ED005290CD006290AD0BFF34F8F134824
:100100001349016013491248C860BFF34F8FFEE7DF
:100110000E4801680E48884200D070470E480F49CB
:1001200001600A480E4901607047FEE7FEE7FEE7FE
:10013000FEE7FEE7FEE70000CD000000E903000057
:100140006501000000030840800108400000002015
:100150000400FA0500ED00E0008108400100000005
:10016000000000000348854600F006F800480047FC
:1001700065050000080200201CB5094800900948E8
:10018000019005460126009C05E0E36807CC334357
:100190000C3C98471034AC42F7D3FFF7E7FF000060
:1001A0006006000070060000F0B58EB0C0005C4B29
:1001B000C4180F2318020790180308901804099018
:1001C00018050A9018060B9018070C900E060D944F
:1001D00052D00120084045422F461F408807059015
:1001E00000D5F0374807049001D507980743080762
:1001F000039001D508980743C806029001D50998D5
:1002000007438806019001D50A98074348060090E5
:1002100003D530460B9E374306460696002E01D581
:100220000C9E37430D9C2468BC4317010598C617E4
:100230003E401540354316020498C71737402F43F8
:1002400015030398C6172E403E4315040298C7179E
:100250002F40374315050198C6172E403E4315061B
:100260000098C017284030431507069EF6172E4009
:10027000064326430D9C26600E04300E41D0C8056F
:10028000C7173B408805069000D5F0334805059018
:1002900001D5079803430805079001D50898034343
:1002A000C80408902FD4880431D4490433D4002ED4
:1002B00001D50C9D2B4365689D431301069CE417F3
:1002C0001C40174027431302059CE4171C403C4385
:1002D0001303079FFF171F4027431304089CE417CD
:1002E0001C403C431305C017184020431306C91790
:1002F000194001431007F21702400A432A430D98A0
:1003000042600EB0F0BD099803438804CDD50A9D24
:100310002B434904CBD50B9D2B43002EC9D4CAE7F0
:100320002020024070B50C4C2568002B01D00543FD
:1003300000E08543A668E0682560002B01D00E43ED
:1003400000E08E43A660002B02D01043E06070BD39
:100350009043E06070BDC04624800840002A03D06E
:1003600002680A430260704702688A43026070476D
:10037000002A03D042680A434260704742688A43B9
:1003800042607047B0B5846825468D43C368012A32
:1003900004D08B43002A02D10C4301E00B432C46CE
:1003A0008460C360B0BDC0690840411E8841704789
:1003B000002A02D0242281507047282281507047A1
:1003C00006480168002908D10168002905D10168A3
:1003D000002902D101680029F3D0704700000020F5
:1003E0007047704770477047F0B586B05948102184
:1003F000059101605849C86A402203921043C862BF
:1004000056480268272A08D00268272A05D00268C1
:10041000272A02D00268272AF3D10324A0020A6AFD
:1004200082430A620122D0020B6803430B604868D2
:10043000000708D44868000705D44868000702D4BC
:1004400048680007F3D50868049420430423029306
:1004500098430860086B0724204003280BD0086BE2
:100460002040032807D0086B2040032803D0086BE6
:1004700020400328EED13A4B186810430625019519
:10048000A843186000200090C86157020868B8436C
:1004900008601302081F05681D4305600D680826E3
:1004A000B5430D6005683D43056095020E682E4317
:1004B0000E604D686D0708D44D686D0705D44D6812
:1004C0006D0702D44D686D07F3D5CD6A039EB54321
:1004D000CD620F25ED054D6115074E692E434E6126
:1004E00005689D43056008683843086048688007D0
:1004F00008D44868800705D44868800702D4486853
:100500008007F3D5164D2868049B1843029B984337
:1005100028600098C86108681043019B98430860F0
:10052000086B204001280BD0086B2040012807D021
:10053000086B2040012803D0086B20400128EFD130
:100540002868059908432860100329680143296039
:1005500006B0F0BD0C8108400480084008A10640A8
:100560000002084082B0032040040127B90300269E
:1005700032463B46FFF7D6FE3C03384621463A4614
:10058000FFF712FE384639463A46FFF70DFE294D71
:10059000284621463246FFF7E1FE284639463246D4
:1005A000FFF7DCFE284621463A46FFF7EBFE2846D9
:1005B00039463246FFF7E6FE2846019421463A4680
:1005C000FFF7D6FE284639463A46FFF7D1FEFC0231
:1005D0000226304621463A46FFF7E6FD3D02304608
:1005E00029463A46FFF7E0FD134E30460094214677
:1005F0003A46FFF7B3FE30462C4629463A46FFF707
:10060000ADFE0E4D0B4F0C4E38460199FFF7CBFE59
:100610000246287030460099FFF7CAFE012138468D
:10062000FFF7C1FE0246287030462146FFF7C0FEA4
:10063000EAE7C04600200B4000400B4004000020C9
:1006400002E008C8121F08C1002AFAD1704770479B
:10065000002001E001C1121F002AFBD170470000F9
:100660007006000000000020080200005006000094
:04000005000000C136
:00000001FF
